:020000040800F2
:1000000010B5054C237833B9044B13B10448AFF352
:1000100000800123237010BD70000020000000004C
:100020005832000808B5034B1BB103490348AFF32E
:10003000008008BD00000000740000205832000855
:1000400001F0FF01102A2BDB10F0070F08D010F889
:10005000013B013A8B422DD010F0070F42B3F6D18D
:10006000F0B441EA012141EA014122F007047FF0A6
:1000700000070023F0E80256083C85EA010586EAFD
:10008000010685FA47F5A3FA87F586FA47F6A5FA39
:1000900087F68EB9EED1F0BC01F0FF0102F0070245
:1000A00032B110F8013B013A83EA010313B1F8D1F0
:1000B0000020704701387047002D06BF35460338D1
:1000C000073815F0010F07D1013015F4807F02BF0A
:1000D000013015F4C03F0130F0BC0138704700BF5B
:1000E00000F1080343604FF0FF328260C360036198
:1000F00000230360704700230361704730B40D682C
:10010000B5F1FF3F11D000F108031C465B681A6887
:10011000AA42FAD963684B6099608C60616008619B
:1001200003680133036030BC70470469F2E7036978
:10013000416882688A60416851605A68824204BF9F
:1001400082685A60002202611A68013A1A601868CF
:10015000704710B5044601F0D3FBA46B01F0F2FB2D
:10016000B4FA84F0400910BD70B504461546866B9C
:10017000026C5AB903681BB100200136A66370BD3A
:10018000806801F065F90023A360F6E76DB9406867
:1001900002F08EF86368226C13446360A268934295
:1001A00019D3236863602846E7E7C06802F080F847
:1001B000226C5142E3689B1AE3602268934202D2A8
:1001C000A3680B44E360022D01D00020D5E726B1DF
:1001D000013E0020D1E72846CFE70020CDE770B5EB
:1001E00082B00190846C64B1A26BE36B9A4211D32C
:1001F0004FF0500383F31188BFF36F8FBFF34F8F1E
:10020000FEE74FF0500383F31188BFF36F8FBFF306
:100210004F8FFEE7A26B934203D80025284602B019
:1002200070BD94F8456076B2002201A92046FFF720
:100230009BFF0546B6F1FF3F06D07F2E0FD0731C03
:100240005BB284F84530E9E7636A002BE6D004F13D
:10025000240001F013F8002818BF0125DEE74FF055
:10026000500383F31188BFF36F8FBFF34F8FFEE707
:100270000346026C6AB110B50846D9681144D960CA
:100280009C68A14224BF1968D960D96802F010F8AF
:1002900010BD704770B5054601F032FB95F845403A
:1002A00064B2002C19DD05F1240608E06B6AA3B1E5
:1002B000304600F0E3FF68B9013C64B26CB1AB6C4E
:1002C000002BF3D02846FFF78AFF0028F4D001F076
:1002D000A9F8F1E701F0A6F8EEE7FF2385F845302D
:1002E00001F030FB01F00CFB95F8444064B2002CA7
:1002F0000FDD05F1100602E0013C64B24CB12B6940
:100300003BB1304600F0BAFF0028F5D001F08AF882
:10031000F2E7FF2385F8443001F014FB70BD38B5D7
:1003200080B10D460446C36B1BB1026CA2FB0323D4
:100330008BB14FF0500383F31188BFF36F8FBFF37E
:100340004F8FFEE74FF0500383F31188BFF36F8F99
:10035000BFF34F8FFEE701F0D3FA2268216CE36B05
:1003600001FB03F3D018A0600020A06362605B1A59
:100370001344E360FF2384F8443084F84530B5B972
:1003800023691BB901F0DEFA012038BD04F1100029
:1003900000F074FF0028F5D04FF0E0234FF08052BA
:1003A000C3F8042DBFF34F8FBFF36F8FEAE704F15B
:1003B0001000FFF795FE04F12400FFF791FEE1E73E
:1003C00073B110B582B01C4608B192B1F1B94FF0CB
:1003D000500383F31188BFF36F8FBFF34F8FFEE796
:1003E0004FF0500383F31188BFF36F8FBFF34F8F2C
:1003F000FEE70029EBD154230193019B542B0AD132
:10040000019B012384F84630224611E054230193D6
:10041000019B542B08D04FF0500383F31188BFF396
:100420006F8FBFF34F8FFEE7019B012384F84630A7
:100430002260E063216401212046FFF770FF9DF8F0
:10044000103084F850300023A364204602B010BD61
:10045000F8B550B10D4614460646A0FB012323B95A
:1004600001FB00F010F1550F08D94FF0500383F352
:100470001188BFF36F8FBFF34F8FFEE7543001F049
:1004800041FB074680B1002380F8463075B100F18A
:1004900054033B60FE633D6401213846FFF73FFF94
:1004A00087F850400023BB643846F8BD0346F0E7A8
:1004B0002DE9F04385B0019288B10E461D460446F1
:1004C000B1B1022D20D1E36B012B1DD04FF05003B1
:1004D00083F31188BFF36F8FBFF34F8FFEE74FF0A9
:1004E000500383F31188BFF36F8FBFF34F8FFEE785
:1004F000036C002BE5D04FF0500383F31188BFF35A
:100500006F8FBFF34F8FFEE700F092FF50B9019B52
:1005100063B14FF0500383F31188BFF36F8FBFF3C4
:100520004F8FFEE74FF00008002750E04FF0000823
:10053000FAE7A76B2A4631462046FFF715FEA36C63
:10054000B3B1022D00F0A0802046FFF748FE48B16D
:100550004FF0E0234FF08052C3F8042DBFF34F8FCC
:10056000BFF36F8F01F0EEF9012005B0BDE8F08315
:10057000636A63B90028F5D04FF0E0234FF0805252
:10058000C3F8042DBFF34F8FBFF36F8FEAE704F179
:10059000240000F073FE0028E4D04FF0E0234FF079
:1005A0008052C3F8042DBFF34F8FBFF36F8FD9E78D
:1005B00001F0C8F90020D8E702A800F0D5FE14E049
:1005C0002046FFF767FE00F0B9FC4FF0010801F08C
:1005D00097F9A26BE36B9A42ABD3022D4AD0019BF1
:1005E000002BE5D0B8F1000FE6D001F0ABF900F038
:1005F000BDFB01F085F994F8442052B2B2F1FF3FFF
:1006000008BF84F8447094F8452052B2B2F1FF3F1D
:1006100008BF84F8457001F095F901A902A800F01F
:10062000AFFE00BB01F06CF9D4F83890D4F83C80F0
:1006300001F088F9C145C3D1019904F1100000F01F
:10064000DBFD2046FFF726FE00F078FC0028BCD139
:100650004FF0E0234FF08052C3F8042DBFF34F8FCB
:10066000BFF36F8FB1E72046FFF714FE00F066FC82
:1006700000207AE7A76B022231462046FFF774FD7F
:10068000A36C002B3FF474AF002F7FF46BAF5BE7DC
:100690002DE9F04184B0019280B10E460446B1B11B
:1006A00000F0C6FEF8B9019B0BB34FF0500383F383
:1006B0001188BFF36F8FBFF34F8FFEE74FF05003EA
:1006C00083F31188BFF36F8FBFF34F8FFEE7036C87
:1006D000002BE5D04FF0500383F31188BFF36F8FE9
:1006E000BFF34F8FFEE74FF0000800273BE04FF0CD
:1006F0000008FAE731462046FFF7BAFD013DA56341
:1007000023692BB901F01EF9012004B0BDE8F08186
:1007100004F1100000F0B2FD0028F3D04FF0E02308
:100720004FF08052C3F8042DBFF34F8FBFF36F8F8C
:10073000E8E701F007F90020E7E702A800F014FE5F
:100740001CE02046FFF7A6FD00F0F8FB09E020467C
:10075000FFF7A0FD00F0F2FB2046FFF7FAFC0028AF
:1007600046D14FF0010801F0CBF8A56B002DC1D1A7
:10077000019B002BDDD0B8F1000FDED001F0E2F8D4
:1007800000F0F4FA01F0BCF894F844305BB2B3F135
:10079000FF3F08BF84F8447094F845305BB2B3F172
:1007A000FF3F08BF84F8457001F0CCF801A902A80A
:1007B00000F0E6FD0028CAD12046FFF7CAFC002859
:1007C000BFD0019904F1240000F016FD2046FFF788
:1007D00061FD00F0B3FB0028C3D14FF0E0234FF0E0
:1007E0008052C3F8042DBFF34F8FBFF36F8FB8E76C
:1007F00000208AE730B130B4044609B3114B002021
:10080000024610E04FF0500383F31188BFF36F8F5F
:10081000BFF34F8FFEE70B4800EBC2000EE0013242
:100820000833052A09D05D68A542F4D00028F6D126
:100830001D68002D08BF1846F1E708B1016044604B
:1008400030BC70478C00002070B504460D4616463B
:1008500001F056F894F844305BB2B3F1FF3F04BFA7
:10086000002384F8443094F845305BB2B3F1FF3F85
:1008700004BF002384F8453001F064F8A36B1BB17A
:100880002046FFF707FD70BD3246294604F12400DB
:1008900000F0CAFCF4E70000074B1B681B6823B993
:1008A000064B4FF0FF321A607047034B1B68DB6842
:1008B0001A68024B1A607047B80000206C010020D3
:1008C0002DE9F04707468A469846089E0A9C9500FF
:1008D0002A46A521206B01F0F9FCD4F83090BAF13A
:1008E000000F1AD00AF1FF3204F133030AF1090AAA
:1008F00012F8011F03F8011F09B15245F8D1002376
:1009000084F83D30042E0CD94FF0500383F3118846
:10091000BFF36F8FBFF34F8FFEE7002384F83430AF
:10092000F0E7E662A6644FF0000AC4F84CA0201D70
:10093000FFF7E1FB04F11800FFF7DDFB2461C6F1CE
:100940000506A6616462C4F850A0C4F85CA0C4F8AF
:1009500054A0C4F858A0C4F860A084F864A084F837
:1009600066A0043D4D444246394625F0070000F09C
:10097000B1FF2060099B03B11C60BDE8F087000057
:1009800070B5044600F0BCFF374A136801331360AA
:10099000364B1B68002B42D0354B1B683BB9334BA1
:1009A0001B68DA6AE36A9A429CBF304B1C60314A8A
:1009B0001368013313602364E36A2F490868012236
:1009C0009A4002430A602D4A03EB830302EB830340
:1009D0005B68A3609868E060211D41609960E36AEC
:1009E00003EB8301880002EB810161611158013141
:1009F000115000F0A7FF1E4B1B687BB11B4B1B68FF
:100A0000DA6AE36A9A4209D24FF0E0234FF080524B
:100A1000C3F8042DBFF34F8FBFF36F8F70BD134B1F
:100A20001C601368012BC2D1144D05F164062846E1
:100A3000FFF756FB1435B542F9D1114E3046FFF79A
:100A40004FFB104D2846FFF74BFB0F48FFF748FBC5
:100A50000E48FFF745FB0E48FFF742FB0D4B1E60AB
:100A60000D4B1D60A3E700BF2C010020B400002047
:100A70008C010020380100203C010020C000002033
:100A8000400100205401002078010020A401002032
:100A900090010020B8000020BC00002010B50446E2
:100AA00090F8653063B1012B11D0022B0ED04FF0BE
:100AB000500383F31188BFF36F8FBFF34F8FFEE7AF
:100AC000006B01F0CDF8204601F0CAF810BD01F02E
:100AD000C7F8FBE780B5154C154F164EDFF8588068
:100AE0002368A3B100F00CFFFB68DD68281DFFF749
:100AF0001EFB3368013B33602368013B236000F039
:100B000021FF2846FFF7CAFF2368002BEAD1D8F857
:100B10000030012BE4D94FF0E0234FF08052C3F8AE
:100B2000042DBFF34F8FBFF36F8FD9E73001002043
:100B3000A40100202C010020C000002070B5044654
:100B40000D46254B1E68254B1A68002182F8661059
:100B500018680430FFF7EBFA48B9204B1A682049AF
:100B60000B68D06A0122824023EA02030B60B4F1D1
:100B7000FF3F0DD03444194B1B685C60A6421DD961
:100B8000184B1868154B19680431FFF7B7FA70BD98
:100B9000002DEFD0144A5168104B18688160186816
:100BA0008C68C4601868043060601868043088601D
:100BB0001B685A61136801331360E8E70B4B186830
:100BC000064B19680431FFF799FA094B1B68A342D9
:100BD00084BF074B1C60DAE7B8010020B400002096
:100BE0003C010020BC00002090010020B800002043
:100BF0006C01002030B587B00B9C7CB10C9DB5B169
:100C000068250495049D682D1AD04FF0500383F396
:100C10001188BFF36F8FBFF34F8FFEE74FF0500384
:100C200083F31188BFF36F8FBFF34F8FFEE74FF051
:100C3000500383F31188BFF36F8FBFF34F8FFEE72D
:100C4000049D0C9D2C63022485F8654000240394C8
:100C5000029505AC01940A9C0094FFF731FE0C98B4
:100C6000FFF78EFE059807B030BD2DE9F04385B043
:100C70000746884614461E46900000F043FF08B31E
:100C80008146682000F03EFF0546A8B1C0F83090CC
:100C9000002380F86530039302900D9B01930C9B19
:100CA00000933346224641463846FFF709FE284660
:100CB000FFF766FE012007E0484600F0D1FF4FF045
:100CC000FF3001E04FF0FF3005B0BDE8F0830000D9
:100CD00010B588B000240594069407AA06A905A8B3
:100CE00001F0BAF8059B0293069B019300942346FA
:100CF000079A17491748FFF77DFF174B186010B385
:100D000000F078FD01280BD0B0F1FF3F1BD14FF070
:100D1000500383F31188BFF36F8FBFF34F8FFEE74C
:100D20004FF0500383F31188BFF36F8FBFF34F8FE2
:100D30000A4B4FF0FF321A60094B01221A60094B2F
:100D40001C6000F021FE084B1B6808B010BD00BFFE
:100D500070320008D50A0008680100206C010020EC
:100D60008C010020B801002000000020024A136816
:100D700001331360704700BF34010020014B186835
:100D8000704700BFB80100202DE9F84F604B1B6889
:100D9000002B40F0B6805F4B1C6801341C60C4B966
:100DA0005D4B1B681B6843B14FF0500383F3118800
:100DB000BFF36F8FBFF34F8FFEE7574A1168574B52
:100DC000186810601960564A136801331360FFF702
:100DD00063FD544B1B68A34200F281804E4B1B689D
:100DE0001B6853B100204C490546DFF84CC14FF059
:100DF000010B4D4ADFF834E13AE00020494B4FF057
:100E0000FF321A606CE0474B1F6069E0DF6ADCF874
:100E100000A00BFA07F949EA0A09CCF8009007EBA1
:100E2000870702EB87077F689F60D7F80890C3F8B1
:100E30000C90C9F80480C7F80880DF6A07EB8708C0
:100E400002EB8809C3F8149052F8288008F10108D1
:100E500007EB870742F82780DEF80080DF6AD8F8C2
:100E60002C309F4228BF01200B681B68002BC5D087
:100E70000B68DB68DB685F68BC42C4D35F69D3F88A
:100E80000C809E68C6F808809E68C8F8046003F16C
:100E900004087E68464504BFDE687E605D61D7F861
:100EA000009009F1FF39C7F80090D3F82890B9F104
:100EB000000FABD01F6ADE69B760DE697E6003F1A8
:100EC0001807D9F80460BE4204BF1F6AC9F804704D
:100ED0009D62D9F80070013FC9F8007096E70020C4
:100EE000124B1B68DB6A03EB83039B000E4AD3584B
:100EF000022B28BF01200E4B1B68002B18BF0120BE
:100F000004E00C4A1368013313600020BDE8F88F39
:100F100034010020B8010020B8000020BC000020EF
:100F2000700100206C010020C0000020B4000020EF
:100F3000BC010020740100203C010020554B1B68BF
:100F400043B94FF0500383F31188BFF36F8FBFF3A2
:100F50004F8FFEE72DE9F04700F0D2FC4D4B1A68A9
:100F6000013A1A601B68002B40F08B804A4B1B68CB
:100F7000002B00F08C80494B1B68002B61D0DFF800
:100F80001CC1002046494FF0010E464A464CDFF88E
:100F900020A1DCF80C30DB689E6A1F6ADD69AF6057
:100FA000DD697D6003F118077568BD4204BF1D6AE5
:100FB000756098623768013F37605E69DF689D68D9
:100FC000AF609D687D601F1D7568BD4204BFDD6810
:100FD00075605861D6F8008008F1FF38C6F80080C7
:100FE000DE6AD1F800900EFA06F848EA0908C1F85E
:100FF000008006EB860602EB860676689E60D6F8D1
:101000000880C3F80C80C8F80470B760DE6A06EB8D
:10101000860702EB8708C3F8148052F8277001375F
:1010200006EB860642F826702768DE6AFB6A9E4257
:1010300028BFCAF800E0DCF80030002BA9D1FFF788
:101040002BFC1A4B1C686CB1194E012501E0013CC8
:1010500005D0FFF799FE0028F9D03560F7E7134B6C
:1010600000221A60124B1C6864B14FF0E0234FF06D
:101070008052C3F8042DBFF34F8FBFF36F8F01244D
:1010800000E0002400F05EFC2046BDE8F08700246C
:10109000F8E700BF340100202C0100207801002077
:1010A0003C010020C0000020B4000020740100209A
:1010B000BC01002010B5A8B10446104B1B6843B119
:1010C0004FF0500383F31188BFF36F8FBFF34F8F3F
:1010D000FEE7FFF74BFE00212046FFF72FFDFFF74D
:1010E0002DFF48B94FF0E0234FF08052C3F8042D94
:1010F000BFF34F8FBFF36F8F10BD00BF34010020CF
:1011000008B5364B1B681BB1354B01221A6008BD70
:101110000022334B1A60334B1A601B68324A126844
:10112000934207D92F4B1868304B1968CB6D9B1A27
:101130000344CB652B4B1A682B4B1A602B4B1B6857
:101140001B6B1A68B2F1A53F03D15A68B2F1A53FF3
:101150001BD0264B18681968343100F095FE244BDB
:101160001B68B3FA83F3DBB2C3F11F0303EB830203
:10117000920020498A588AB94FF0500383F31188AE
:10118000BFF36F8FBFF34F8FFEE79A68B2F1A53FB1
:10119000DFD1DB68B3F1A53FDBD1E0E7154A03EB14
:1011A000830102EB810148684068486003EB8301DA
:1011B00002EB81020832904209D003EB83030D4A0F
:1011C00002EB83035B68DA68084B1A609FE74068AC
:1011D000084A02EB81025060EFE700BF34010020B3
:1011E000BC0100202801002024010020B4000020C0
:1011F0003C010020C000002058B110B50C46094A3F
:1012000011681831FEF77AFF01212046FFF796FC9E
:1012100010BD4FF0500383F31188BFF36F8FBFF3FE
:101220004F8FFEE7B400002038B5E0B18C46114680
:1012300005464268104B1868C261186894680462D9
:101240001868183060601868183090601B689D62DC
:101250002B6801332B6000290CBF60464FF0FF3034
:10126000FFF76CFC38BD4FF0500383F31188BFF3D8
:101270006F8FBFF34F8FFEE7B4000020C368DB68B9
:10128000002B4FD030B49A6AD869196A8160D86946
:10129000486003F118005168814204BF196A516027
:1012A00000219962116801391160294A1268002AE7
:1012B00041D15A699868D968816098684860181D5A
:1012C0005168814204BFD968516000215961116899
:1012D00001391160DA6A1F4C2568012191402943C8
:1012E00021601D4902EB820201EB820252689A6082
:1012F0009468DC6060609060DA6A02EB82008400CF
:1013000001EB80005861085901300851134A1168F7
:10131000DA6ACB6A9A4283BF0120114B1860002021
:1013200030BC70474FF0500383F31188BFF36F8FC9
:10133000BFF34F8FFEE70B4A5168D9618C681C627E
:10134000606088609A62116801311160DEE700BF59
:10135000340100203C010020C0000020B400002027
:10136000BC01002078010020034B1B680360034B85
:101370001B684360704700BF70010020B801002067
:10138000B0B170B50C460546D9B100F0B9FA224BA0
:101390001A68224B1B6893F86630DBB11F4B1B6841
:1013A000002283F86620012400F0CCFA204670BDAC
:1013B0004FF0500383F31188BFF36F8FBFF34F8F4C
:1013C000FEE74FF0500383F31188BFF36F8FBFF335
:1013D0004F8FFEE72368B3F1FF3F1AD069681048CA
:1013E00000682E68864205D0914203D8002323600E
:1013F0000124D9E7501A834203D800232360012433
:10140000D2E79B1A0B4423602846FFF7ADFF002468
:10141000CAE70024C8E700BFB8010020B4000020DC
:1014200070010020014B01221A607047BC010020AE
:10143000054B1B6833B1054B1B68002B0CBF02200A
:1014400000207047012070478C01002034010020EB
:10145000002851D070B50446294B1B68834208D040
:101460004FF0500383F31188BFF36F8FBFF34F8F9B
:10147000FEE7C36C43B94FF0500383F31188BFF309
:101480006F8FBFF34F8FFEE7013BC364C16A826C6D
:10149000914233D00BB1002070BD051D2846FEF7E8
:1014A00046FE38B917490B68E06A0122824023EAF8
:1014B00002030B60A36CE362C3F10502A261114950
:1014C0000E68012000FA03F232430A600E4A03EB71
:1014D000830302EB83035B68A3609968E1604D605E
:1014E0009D60E36A03EB83018D0002EB8101616182
:1014F000515901445151CFE7002070470020CBE7FC
:10150000B40000203C010020C000002008B541606C
:10151000006191420CD8D21A83699A4201D301200A
:1015200008BD011D094B1868FEF7E8FD0020F7E72C
:101530009A4201D2994206D2011D054B1868FEF766
:10154000DDFD0020ECE70120EAE700BFC401002038
:10155000C001002070B504460D46164604E0A3699C
:101560001D44236A20469847A1692B4632462944E8
:101570002046FFF7CBFF0028F1D170BD70B50546BE
:101580000E460D4B1B68DB68DC68201DFEF7CFFDA7
:1015900094F8283013F0040F07D123F0010384F8E6
:1015A0002830236A2046984770BD32462946204697
:1015B000FFF7D0FFF5E700BFC0010020F8B50546F2
:1015C000FFF7DCFB0446114B1B68834205D8002360
:1015D0002B600E4B1C602046F8BD0D4B1B681A6833
:1015E0005AB14FF0FF370A4EDB6839461868FFF7EB
:1015F000C5FF33681A68002AF6D1064A1068044904
:101600000860136001232B60E3E700BF2C02002079
:10161000C0010020C40100202DE9F04184B0564FE4
:10162000564D3B681E6896B1DB681E68FFF79EFB4F
:1016300001A8FFF7C3FF0446019A42BBB04214D38E
:10164000FFF77CFC21463046FFF798FF21E0FFF7CB
:101650008DFB01A8FFF7B2FF0446019BBBB9484BC5
:101660001B681A68B2FA82F25209311B2868FFF728
:10167000EBF8FFF763FC60B94FF0E0234FF08052C6
:10168000C3F8042DBFF34F8FBFF36F8F01E0FFF757
:1016900055FC0024224601A92868FEF7F9FF00281E
:1016A000BFD0019B002BF5DB039E736913B1301D86
:1016B000FEF73DFD6846FFF781FF8046019B013B39
:1016C000082BE7D8DFE803F005052930490505298F
:1016D000300096F8283043F0010386F82830029B4A
:1016E000B169024619443046FFF710FF0028D1D0F7
:1016F00096F8283013F0040F07D123F0010386F881
:101700002830336A30469847C4E7B36942460299A5
:1017100019443046FFF71EFFF3E796F8283023F010
:10172000010386F82830B5E796F8283043F0010326
:1017300086F828300299B16131B10346024601446E
:101740003046FFF7E3FEA5E74FF0500383F311881F
:10175000BFF36F8FBFF34F8FFEE796F8283013F07B
:10176000020F04D023F0010386F8283092E73046B8
:1017700000F076FA8EE700BFC0010020840200204E
:10178000C401002030B583B000F0BAF8114B1B68DB
:101790001BB100F0D7F803B030BD0F4D2846FEF75F
:1017A0009FFC0E4C2046FEF79BFC0D4B1D600D4B25
:1017B0001C60002300930C4B0C4A0C210520FEF703
:1017C000FFFD044B18600028E3D00949FFF712F829
:1017D000DFE700BF8402002004020020180200207E
:1017E000C0010020C401002030020020C8010020F8
:1017F0007832000810B588B0FFF7C4FF124B1B68A1
:10180000CBB100240594069407AA06A905A800F008
:101810002FFB059B0293069B019302230093234613
:10182000079A0A490A48FFF7E5F90A4B186010B110
:10183000012008B010BD4FF0500383F31188BFF3AF
:101840006F8FBFF34F8FFEE78402002080320008C5
:10185000191600088802002082B0002301930D4B66
:101860001B68B3F1FF3F08D04FF0500383F311889A
:10187000BFF36F8FBFF34F8FFEE74FF0500383F33B
:101880001188BFF36F8FBFF34F8F019B002BFCD0EC
:1018900002B070470400002008480068006880F328
:1018A00008884FF0000080F3148862B661B6BFF379
:1018B0004F8FBFF36F8F00DF00BF000008ED00E027
:1018C000DFF80C00016841F470010160704700000E
:1018D00088ED00E04FF0807340F8043C21F00101F6
:1018E00040F8081C054B40F80C3C40F8202C6FF0E9
:1018F000020340F8243C4438704700BF59180008E0
:101900004FF0500383F31188BFF36F8FBFF34F8FF6
:101910000B4A136801331360012B00D070474FF05E
:10192000E023D3F8043D13F0FF0FF7D04FF050033E
:1019300083F31188BFF36F8FBFF34F8FFEE700BFB4
:1019400004000020094B1B6843B94FF0500383F398
:101950001188BFF36F8FBFF34F8FFEE7013B034A40
:1019600013600BB983F31188704700BF0400002097
:101970004FF0E02300221A619A614BF67F325A61E0
:1019800007221A61704700004FF0E023D3F8002DC2
:101990003E4B9A423BD04FF0E023D3F8002D3C4B16
:1019A0009A423DD030B583B03A4B1A78D2B2019208
:1019B000FF221A701B78DBB28DF803309DF80330DC
:1019C00003F05003344A1370344B07221A609DF819
:1019D000033013F0800F11D006229DF803305B0016
:1019E000DBB28DF803309DF803301146013A13F055
:1019F000800FF2D1294B196003291AD04FF0500300
:101A000083F31188BFF36F8FBFF34F8FFEE74FF063
:101A1000500383F31188BFF36F8FBFF34F8FFEE73F
:101A20004FF0500383F31188BFF36F8FBFF34F8FD5
:101A3000FEE71A4B4FF440721A60019BDBB2154A65
:101A400013704FF0E024D4F8203D43F47003C4F841
:101A5000203DD4F8203D43F07043C4F8203DFFF70B
:101A600087FF00250E4B1D60FFF72AFFD4F8343F97
:101A700043F04043C4F8343FFFF70EFFFFF740FB4D
:101A8000FFF7EAFE284603B030BD00BF71C20F4128
:101A900070C20F4100E400E08C02002090020020A0
:101AA00004000020154B1A461B688342FBD3516883
:101AB00002EB010C604509D0416800EB010C634565
:101AC00009D00360904218BF10607047406801441D
:101AD00051601046F0E710B4094C2468A3420BD0C3
:101AE0005B681944416013681B680360904218BF2B
:101AF00010605DF8044B70470460F7E7AC420020CB
:101B000094020020F8B50446FFF730F94D4B1B68EE
:101B1000A3B14D4B1D68254236D1631E13F10A0F48
:101B200035D804F1080214F0070F38D022F007036B
:101B30000833934232D8FFF701FA2AE0434A12F001
:101B4000070F1ED0D11D21F0070102F580435B1A5B
:101B50000A463F480260002141601344083B23F0DD
:101B600007033848036059601960991A516013607F
:101B7000384B1960384B1960334B4FF000421A60F4
:101B8000C7E74FF48043E4E7FFF7D8F901E0FFF738
:101B9000D5F900F05FF900263046F8BD1A462E4B05
:101BA0001F68974202D32A490C6804E0FFF7C6F980
:101BB000EFE721461C466368934202D22368002B5C
:101BC000F7D1204B1B68A34214D00E680836236857
:101BD0000B6063689B1A102B13D9A01810F0070F25
:101BE0000BD04FF0500383F31188BFF36F8FBFF317
:101BF0004F8FFEE7FFF7A2F9CBE743606260FFF784
:101C000051FF6368FF1A144A1760124A126897421C
:101C10003CBF104A17601D436560002323600F4AD4
:101C2000136801331360FFF789F916F0070FB3D07B
:101C30004FF0500383F31188BFF36F8FBFF34F8FC3
:101C4000FEE700BF94020020984200209802002086
:101C5000AC420020A04200209C420020A442002070
:101C6000002833D010B5044650F8043C184A1268D6
:101C7000134208D14FF0500383F31188BFF36F8FE5
:101C8000BFF34F8FFEE750F8081C41B14FF05003EF
:101C900083F31188BFF36F8FBFF34F8FFEE723EA03
:101CA000020340F8043CFFF761F80A4A54F8043C88
:101CB00011680B441360A4F10800FFF7F3FE064A15
:101CC000136801331360FFF739F910BD704700BF87
:101CD000984200209C420020A842002070B588B0A5
:101CE00000221E210520FEF7B3FB0446174D286095
:101CF000174A6B4607CA03C31A8000231A4669466F
:101D00002046FEF7D5FB134A6B4607CA03C31A8069
:101D100000231A4669462868FEF7CAFB0E4A6B463E
:101D200007CA03C31A8000231A4669462868FEF7CB
:101D3000BFFB0021094E4FF47A754C1C304600F071
:101D4000CDFA2846FFF7B6F92146F6E7884B002082
:101D50008832000894320008A0320008AC32000833
:101D600000B589B0084D094E052428680028FDD02B
:101D700022466946FEF78CFC0028F6D069463046BC
:101D800000F0ACFAF0E700BF884B0020B832000842
:101D900010B4046891FAA1F3B3FA83F35B004FF037
:101DA000030C0CFA03F324EA030391FAA1F1B1FA4C
:101DB00081F1490002FA01F1194301605DF8044B19
:101DC000704710B4846891FAA1F3B3FA83F35B000F
:101DD0004FF0030C0CFA03F324EA030391FAA1F188
:101DE000B1FA81F1490002FA01F1194381605DF80D
:101DF000044B704710B4C46891FAA1F3B3FA83F3AB
:101E00005B004FF0030C0CFA03F324EA030391FA8E
:101E1000A1F1B1FA81F1490002FA01F11943C1605F
:101E20005DF8044B7047F8B504460D4617461E464C
:101E30000122FFF7ADFF636823EA050363603A46BA
:101E400029462046FFF7D6FF324629462046FFF7AF
:101E5000B8FFF8BDFEE70000034B0360034B0B60C7
:101E60004FF4807313607047B8460020B8420020DA
:101E7000034B0360034B0B604FF480731360704798
:101E8000204B0020204700204FF0500383F311889F
:101E9000BFF36F8FBFF34F8FFEE7000080B582B0B6
:101EA00000F07EF9744B0193002400942346C8226D
:101EB00072497348FEF7D9FE724B01930094234692
:101EC000C82271497148FEF7D0FEFEF701FF84F386
:101ED00013886F4B4CF6CC421A6045F255521A608B
:101EE00040F6FF729A6002225A601A46D368002BAD
:101EF000FCD1674B4AF6AA221A606649CA6822F4E6
:101F0000E0621204120C644B1343CB6003230022E3
:101F10004FF480714FF09040FFF785FF5F4C002336
:101F20001A464FF400712046FFF77DFF4FF400780A
:101F3000C4F8188000231A4610214FF09040FFF794
:101F400072FF4FF090451023AB62554E00231A46A6
:101F500008213046FFF767FF0827B762DFF848918E
:101F600000231A464FF400514846FFF75CFF4FF438
:101F70000056C9F8186000231A464FF480512846CD
:101F8000FFF751FF00231A4602212046FFF74BFFBF
:101F900000231A464FF480712046FFF744FF0023C8
:101FA0001A464FF480612846FFF73DFF00231A468A
:101FB0004FF480512046FFF736FF00231A46414672
:101FC0002846FFF730FF00231A464FF400612846E9
:101FD000FFF729FF012231462046FFF7D9FE63684B
:101FE00023F400536360002231462046FFF702FFCE
:101FF000002231462046FFF7E4FE01224FF48041E3
:102000002046FFF7C5FE636823F480436360002227
:102010004FF480412046FFF7EDFE00224FF480414F
:102020002046FFF7CEFE002239462046FFF7B0FEDD
:10203000002239462046FFF7DDFE012240212046DE
:10204000FFF7A6FE002240212046FFF7D3FE002224
:1020500040212046FFF7B5FE4023A362114B1A88AA
:1020600042F080021A801A8842F040021A804FF42F
:102070008073A361FEE700BF8C4B0020CC320008C8
:10208000DD1C0008904B0020D4320008611D0008C0
:102090000030004000ED00E00003FA0500040048B5
:1020A000001C0048B44200200008004808B5034660
:1020B0000C4A126852B10B4A106803440A4A0B4991
:1020C000521A934206D8074A136008BD054A0849C8
:1020D0001160F0E700F0C2F80C2303604FF0FF300E
:1020E000F3E700BF944B002000A000200004000094
:1020F000A84B002038B5264A136823F0070343F0A5
:1021000002031360136803F00703022B00D0FEE7FD
:10211000204A136823F4C06343F40073136002F58C
:10212000D032136843F480331360136823F0F00354
:1021300043F040031360136813F4003FFBD0164BC9
:102140001A6842F400221A609A6822F0030242F0F0
:1021500002029A609A6822F0F0029A609A6822F469
:10216000E0629A609A6822F460529A600B4D2846A9
:1021700000F038F84FF0E024236943F004032361B2
:10218000284600F03FF8236943F00203236138BD7D
:10219000002002400070004000100240006CDC0291
:1021A00000B583B0FFF7A6FF0D4BDA6C4FF0FF329E
:1021B000DA64DA6C0192019A9A6D42F080529A6563
:1021C0009A6D02F080520092009A9A6822F40042BE
:1021D0009A601A6842F008021A6003B05DF804FBC6
:1021E00000100240064BA3FB00239B09013B4FF06C
:1021F000E02253610023936105231361704700BF00
:10220000D34D6210014B1860704700BF08000020DA
:10221000DFF830D0002103E00B4B5B584350043112
:102220000A480B4B42189A42F6D30A4A02E00023AE
:1022300042F8043B084B9A42F9D300F015F8FFF737
:102240002DFEFEE700A000207C33000800000020E7
:102250007000002070000020A84B0020014B18687F
:10226000704700BF0C00002070B50D4D0D4C641B75
:10227000A4100026A64209D10B4D0C4C00F0ECFF37
:10228000641BA4100026A64205D170BD55F8043B7E
:1022900098470136EEE755F8043B98470136F2E7D8
:1022A000743300087433000874330008783300086E
:1022B0000A44914200F1FF3300D1704710B511F884
:1022C000014B03F8014F9142F9D110BD024403467E
:1022D000934200D1704703F8011BF9E70FB40A4B92
:1022E00013B51C6824B1A36913B9204600F066F841
:1022F00005AB049AA1680193204600F0BDF902B035
:10230000BDE8104004B070470C000020002310B559
:102310000446C0E90033C0E9043383608181436629
:10232000C2818361194608225C30FFF7CFFF054B5D
:102330006362054BA362054BE362054B2462236392
:1023400010BD00BF212C0008432C00087B2C000886
:102350009F2C0008014900F0AFB800BF792F00089A
:1023600070B568224D1E55430E4605F1740100F00C
:10237000E5F8044640B10021C0E900160C30A06029
:1023800005F16802FFF7A2FF204670BD014800F08A
:10239000B3B800BF994B0020014800F0AEB800BFB1
:1023A000994B0020014800F0A7B800BF9A4B0020CD
:1023B000014800F0A2B800BF9A4B002010B50446B7
:1023C000FFF7F0FFA3691BB1BDE81040FFF7F0BFB6
:1023D000C4E912332365134B134A1B68A262A3425C
:1023E00004BF0123A361204600F020F8606020466E
:1023F00000F01CF8A060204600F018F80022E06011
:1024000004216068FFF782FFA06801220921FFF71D
:102410007DFFE06802221221FFF778FF0123A3610C
:10242000D2E700BFDC32000855230008F8B50746A4
:10243000FFF7ACFF1E4B1E68B36913B93046FFF7B8
:10244000BDFF4836D6E90134013B03D533680BB3F1
:102450003668F7E7B4F90C50D5B9164BE36004F1D0
:102460005800656600F047F8FFF796FFC4E901558C
:10247000C4E904552560A5610822294604F15C00E1
:10248000FFF724FFC4E90D55C4E912552046F8BDF5
:102490006834D9E704213846FFF762FF044630600C
:1024A0000028D5D1FFF778FF0C233B60EEE700BF93
:1024B000DC3200080100FFFF2DE9F843064688469C
:1024C00000F148040027D4E90195B9F1010905D5C7
:1024D0002468002CF7D13846BDE8F883AB89012B7E
:1024E00007D9B5F90E30013303D029463046C0472D
:1024F00007436835E9E770477047704770B50E4E7F
:102500000C463168054611B900F07AFB306021466F
:10251000284600F075FB431C0AD0C41C24F00304B9
:10252000A04207D0211A284600F06AFB013001D1F1
:102530004FF0FF34204670BDA04B00202DE9F04144
:10254000CD1C25F0030508350C2D38BF0C25002DBA
:10255000074601DBA94205D90C233B600026304623
:10256000BDE8F0812E4E00F0BBFD33681C4634BB45
:1025700029463846FFF7C2FF431C04464DD1346854
:102580002646002E40D123683146384604EB030826
:1025900000F036FB80453AD1216803356D1A25F0ED
:1025A000030508350C2D38BF0C2529463846FFF7A2
:1025B000A5FF01302BD023682B4423600EE0226856
:1025C000521B1ED40B2A16D96119A342256018BFCD
:1025D0005960636808BF316062514B60384604F14E
:1025E0000B0600F083FD26F00706231DF21AB6D075
:1025F0009B1BA350B3E76268A3420CBF32605A60D2
:10260000ECE723466468B2E734467668B9E70C2302
:102610003B60384600F06AFDA1E72560DEE700BFB9
:102620009C4B00209368013B002B10B4936008DAA8
:102630009469A34201DB0A2903D15DF8044B00F041
:1026400033BB1368581C1060197008465DF8044BC2
:102650007047F8B506460F461446D518AC4201D16E
:10266000002007E014F8011B3A463046FFF7DAFF76
:10267000431CF3D1F8BD00002DE9F04F0D469DB08D
:1026800014469846064618B183690BB9FFF796FEC3
:10269000894B9D421BD175686B6ED90705D4AB89F8
:1026A0009A0502D4A86DFFF727FFAB891B0701D558
:1026B0002B69EBB92946304600F05AFBC0B16B6E6E
:1026C000DC070ED54FF0FF301DB0BDE8F08F7B4B1F
:1026D0009D4201D1B568DFE7794B9D4208BFF5689F
:1026E000DAE7AB899805EDD4A86DFFF706FFE9E7B7
:1026F0000023099320238DF82930CDF80C80302356
:10270000DFF8C0818DF82A304FF0010923469A4640
:1027100013F8012B0AB1252AF9D1BAEB040B0BD01F
:102720005B46224629463046FFF793FF013000F012
:10273000AA80099A5A4409929AF80030002B00F0B6
:10274000A28000234FF0FF32CDE905230AF1010AF0
:10275000049307938DF853301A935446052214F8C6
:10276000011B5848FDF76CFC049AD8B9D10644BF48
:1027700020238DF85330130744BF2B238DF853309B
:102780009AF800302A2B15D0079A544600204FF0B3
:102790000A0C214611F8013B303B092B4ED9B0B150
:1027A000079214E0A0EB080309FA03F31343049320
:1027B000A246D2E7039B191D1B680391002BBBBFE8
:1027C0005B4242F0020207930793B8BF049223785A
:1027D0002E2B0CD163782A2B35D1039B1A1D1B6835
:1027E0000392002BB8BF4FF0FF3302340593DFF89C
:1027F000E4A0217803225046FDF722FC40B140239B
:10280000A0EB0A0003FA00F0049B03430134049395
:1028100014F8011B2C488DF828100622FDF710FC37
:1028200000283FD0294B1BBB039B073323F0070332
:1028300008330393099B3B44099367E70CFB02327F
:102840000C460120A5E700230134059319464FF0FB
:102850000A0C204610F8012B303A092A03D9002B24
:10286000C5D00591C3E70CFB012104460123F0E725
:1028700003AB00932A46164B04A93046AFF3008001
:102880000746781CD6D16B6ED90705D4AB899A055B
:1028900002D4A86DFFF731FEAB895B063FF512AF9E
:1028A000099811E703AB00932A46094B04A9304667
:1028B00000F080F8E4E700BF003300082033000890
:1028C000E0320008403300084A33000800000000EE
:1028D00053260008463300082DE9F047164699466E
:1028E0008A680B69DDF820809342B8BF13463360D5
:1028F00091F8432007460C460AB101333360236840
:10290000990642BF336802333360256815F0060527
:1029100006D104F1190AE36832689B1AAB4226DC3F
:1029200094F84320131E226818BF012392062BD46B
:1029300004F1430249463846C04701301ED023689F
:10294000E568326803F00603042B08BFAD1AA368DC
:1029500022690CBF25EAE57500259342C4BF9B1A86
:10296000ED1800261A34B5421AD1002008E00123E0
:10297000524649463846C047013003D14FF0FF3038
:10298000BDE8F0870135C6E7E1185A1C302081F810
:102990004300224494F8451082F843100233C7E7FD
:1029A0000123224649463846C0470130E6D0013669
:1029B000D9E700002DE9FF470F7E0C9D782F914647
:1029C00080460C469A4601F1430207D8622F0AD886
:1029D000002F00F0D880582F00F0A38004F14205AA
:1029E00084F842703AE0A7F16303152BF6D801A1F1
:1029F00051F823F04D2A0008612A0008DD2900085B
:102A0000DD290008DD290008DD290008612A000809
:102A1000DD290008DD290008DD290008DD2900087E
:102A20006D2B0008912A00084F2B0008DD290008B3
:102A3000DD2900088F2B0008DD290008912A0008F5
:102A4000DD290008DD290008572B00082B681A1D16
:102A50001B682A6004F1420584F842300123A3E098
:102A600020682968060601F104030AD50E682B6068
:102A7000002E03DA2D23764284F843305E480A2381
:102A800019E00E682B6010F0400F18BF36B2EFE768
:102A90002B682068191D2960010601D51E6802E017
:102AA0004606FBD51E8854486F2F0CBF08230A2307
:102AB000002184F843106568A560002DA2BF21683D
:102AC00021F0040121600EB9002D4DD01546B6FB52
:102AD000F3F103FB1167C75D05F8017D3746BB4283
:102AE0000E46F4D9082B0BD12368DE0708D52369DD
:102AF00061689942DEBF302305F8013C05F1FF35DE
:102B0000521B2261CDF800A04B4603AA2146404645
:102B1000FFF7E2FE01304CD14FF0FF3004B0BDE8CA
:102B2000F087354881F845702968236851F8046BAF
:102B300029601D0614D5DF0744BF43F0200323603E
:102B40001EB9236823F0200323601023B0E7236815
:102B500043F0200323607823284884F84530E3E7D6
:102B6000590648BFB6B2E6E71546BBE72B682668AC
:102B70006169181D286035061B6801D5196002E0DF
:102B80007006FBD51980002323611546BAE72B6830
:102B90001A1D2A601D68626800212846FDF750FA58
:102BA00008B1401B606063682361002384F84330F0
:102BB000A8E723692A4649464046D0470130ABD0B2
:102BC00023689B0713D4E068039B9842B8BF18465C
:102BD000A4E70123324649464046D04701309BD006
:102BE0000135E36803995B1AAB42F2DCEBE70025A1
:102BF00004F11906F5E700BF5133000862330008FD
:102C000038B5064D0023044608462B60FFF74EFA00
:102C1000431C02D12B6803B1236038BDA44B0020B4
:102C200010B50C46B1F90E1000F0B2FA0028ABBF97
:102C3000636DA3891B1823F48053ACBF6365A38124
:102C400010BD2DE9F0411F468B89DB0505460C467A
:102C5000164605D5B1F90E100223002200F0C8F97E
:102C6000A389B4F90E1023F48053A38132463B4666
:102C70002846BDE8F04100F069B810B50C46B1F93E
:102C80000E1000F0B5F9431CA38915BF606523F44D
:102C9000805343F48053A38118BFA38110BDB1F9C1
:102CA0000E1000F0D3B80000F8B50E4614460546E5
:102CB00018B183690BB9FFF781FB214B9C422BD1E3
:102CC0006C68A369A360A3891A072FD523696BB326
:102CD00023692068C01A6369F6B28342374604DC70
:102CE0002146284600F048F930BBA368013BA360A9
:102CF00023685A1C22601E7063690130834204D02D
:102D0000A389DB0706D50A2E04D12146284600F008
:102D100033F988B93846F8BD0A4B9C4201D1AC68FA
:102D2000CFE7094B9C4208BFEC68CAE7214628461A
:102D300000F01EF80028CBD04FF0FF37EAE700BFC5
:102D40000033000820330008E032000838B5074D92
:102D500004460846114600222A601A4600F074FA1A
:102D6000431C02D12B6803B1236038BDA44B002063
:102D7000324B70B51D6806460C4625B1AB6913B9D8
:102D80002846FFF71BFB2E4B9C420FD16C68A38992
:102D9000B4F90C2019072CD4DD0611D409233360B3
:102DA00042F04003A3814FF0FF303EE0254B9C42B0
:102DB00001D1AC68EBE7244B9C4208BFEC68E6E726
:102DC000580712D5616B41B104F14403994202D016
:102DD000304600F091F900236363A38923F02403B4
:102DE000A3810023636023692360A38943F0080360
:102DF000A38123694BB9A38903F42073B3F5007F42
:102E000003D02146304600F02BF9A089B4F90C20FC
:102E100010F001030AD00023A36063695B42A36141
:102E2000236943B910F08000BAD170BD810758BF43
:102E30006369A360F4E70020F7E700BF0C000020FF
:102E40000033000820330008E032000838B5064D92
:102E50000023044608462B6000F0CEF9431C02D143
:102E60002B6803B1236038BDA44B00208A892DE96B
:102E7000F041054610070C4658D44B68002B05DC82
:102E80000B6C002B02DC0020BDE8F081E66A002E0E
:102E9000F9D0002312F480522F682B6032D0606D7D
:102EA000A3895A0705D56368C01A636B0BB1236CFD
:102EB000C01A00230246E66A216A2846B047431C2E
:102EC000A38906D129681D292CD82A4ACA40D607C9
:102ED00028D500226260D9042269226004D5421CF0
:102EE00001D12B6803B96065616B2F600029CAD0DE
:102EF00004F14403994202D0284600F0FDF8002076
:102F00006063C1E7216A01232846B047411CC7D14D
:102F10002B68002BC4D01D2B01D0162B01D12F60A4
:102F2000B1E7A38943F04003A381ADE70F69002F08
:102F3000A9D093070E6808BF4B690F6018BF002324
:102F4000A6EB07088B60B8F1000F9CDD216AA66A2A
:102F500043463A462846B047002806DCA38943F09A
:102F60004003A3814FF0FF308EE70744A8EB000831
:102F7000E9E700BF0100402038B50B6905460C4663
:102F800013B90025284638BD18B183690BB9FFF77E
:102F900015FA144B9C421BD16C68B4F90C30002B11
:102FA000EFD0626ED00704D4990502D4A06DFFF76C
:102FB000A3FA28462146FFF759FF636EDA07054654
:102FC000E0D4A3899B05DDD4A06DFFF796FAD9E77D
:102FD000054B9C4201D1AC68DFE7044B9C4208BF23
:102FE000EC68DAE70033000820330008E03200081C
:102FF00038B5074D04460846114600222A601A4695
:1030000000F012F9431C02D12B6803B1236038BDD4
:10301000A44B002070B50E46B1F90E10002996B0F1
:1030200014461D4608DAB6F90C3000222A601A064A
:1030300010D44FF480630EE06A4600F0BBF800281D
:10304000F1DB019A02F47042A2F500535A425A4150
:103050002A60EEE740230020236016B070BD000018
:103060008B8973B59D0706460C4607D504F14703C7
:10307000236023610123636102B070BD01AB6A4626
:10308000FFF7C8FF009905463046FFF757FA48B9E1
:10309000B4F90C309A05EFD423F0030343F0020394
:1030A000A381E3E70D4BB362A389206043F0800363
:1030B000A381009B6361019B20615BB1B4F90E1099
:1030C000304600F089F828B1A38923F0030343F0C8
:1030D0000103A381A0890543A581CDE755230008FD
:1030E0000148FFF709BA00BF984B00200148FFF7DD
:1030F00004BA00BF984B002037B5002944D051F8DE
:10310000043C0190002BA1F10404B8BFE418FFF7C0
:10311000E7FF1E4A0198136833B96360146003B077
:10312000BDE83040FFF7E2BFA34208D92568611926
:103130008B4201BF19685B6849192160EDE71A46A7
:103140005B680BB1A342FAD911685518A5420BD19F
:10315000246821445418A3421160E0D11C685B68C4
:10316000536021441160DAE702D90C230360D6E7EB
:10317000256861198B4204BF19685B68636004BFEE
:10318000491921605460CAE703B030BD9C4B002050
:1031900038B5074D04460846114600222A601A46F3
:1031A00000F04AF8431C02D12B6803B1236038BDFC
:1031B000A44B002038B5074D0023044608461146AD
:1031C0002B6000F021F8431C02D12B6803B123606F
:1031D00038BD00BFA44B002038B5064D002304467F
:1031E00008462B6000F018F8431C02D12B6803B18D
:1031F000236038BDA44B0020024B58221A604FF0C8
:10320000FF307047A44B0020024B58221A604FF049
:10321000FF307047A44B0020024B58221A60002058
:10322000704700BFA44B0020024B58221A604FF099
:10323000FF307047A44B0020024B58221A604FF019
:10324000FF307047A44B0020024B58221A604FF009
:10325000FF307047A44B0020F8B500BFF8BC08BC95
:103260009E467047F8B500BFF8BC08BC9E46704744
:1032700049444C4500000000546D725100000000AC
:10328000546D7220537663006D65737361676520BA
:10329000310000006D6573736167652032000000C6
:1032A0006D65737361676520330000005465737446
:1032B0003A2025640D0A0000646174612072656320
:1032C00065697665643A2025730D0A007461736B35
:1032D000310000007461736B3200000010000020A8
:1032E00000000000000000000000000000000000DE
:1032F00000000000000000000000000000000000CE
:1033000000000000000000000000000000000000BD
:1033100000000000000000000000000000000000AD
:10332000000000000000000000000000000000009D
:10333000000000000000000000000000000000008D
:10334000232D302B2000686C4C006566674546478E
:103350000030313233343536373839414243444511
:103360004600303132333435363738396162636480
:04337000656600008E
:043374002500000828
:043378000100000848
:10337C0004000000AAAAAAAA00093D00100000201F
:10338C00000000000033000820330008E032000881
:10339C000000000000000000000000000000000021
:1033AC000000000000000000000000000000000011
:1033BC000000000000000000000000000000000001
:1033CC0000000000000000000000000000000000F1
:1033DC0000000000000000000000000000000000E1
:0400000508002211BC
:00000001FF
