:020000040800F2
:1000000010B5054C237833B9044B13B10448AFF352
:1000100000800123237010BD0400002000000000B8
:100020008004000808B5034B1BB103490348AFF334
:10003000008008BD000000000800002080040008C7
:1000400010B4046891FAA1F3B3FA83F35B004FF0A4
:10005000030C0CFA03F324EA030391FAA1F1B1FAB9
:1000600081F1490002FA01F1194301605DF8044B86
:10007000704710B4846891FAA1F3B3FA83F35B007C
:100080004FF0030C0CFA03F324EA030391FAA1F1F5
:10009000B1FA81F1490002FA01F1194381605DF87A
:1000A000044B704710B4C46891FAA1F3B3FA83F318
:1000B0005B004FF0030C0CFA03F324EA030391FAFC
:1000C000A1F1B1FA81F1490002FA01F11943C160CD
:1000D0005DF8044B7047F8B504460D4617461E46BA
:1000E0000122FFF7ADFF636823EA050363603A4628
:1000F00029462046FFF7D6FF324629462046FFF71D
:10010000B8FFF8BD80B500F039F9002383F31388F8
:10011000684B4CF6CC421A6045F255521A6040F6D4
:10012000FF729A6002225A601A46D368002BFCD1F3
:10013000604B4AF6AA221A605F49CA6822F4E0625C
:100140001204120C5D4B1343CB60032300224FF4C7
:1001500080714FF09040FFF7BEFF594C00231A46C4
:100160004FF400712046FFF7B6FF4FF40078C4F853
:10017000188000231A4610214FF09040FFF7ABFF84
:100180004FF090451023AB624E4E00231A460821D3
:100190003046FFF7A0FF0827B762DFF83091002351
:1001A0001A464FF400514846FFF795FF4FF40056AA
:1001B000C9F8186000231A464FF480512846FFF70B
:1001C0008AFF00231A4602212046FFF784FF0023FE
:1001D0001A464FF480712046FFF77DFF00231A4630
:1001E0004FF480612846FFF776FF00231A464FF44C
:1001F00080512046FFF76FFF00231A4641462846EC
:10020000FFF769FF00231A464FF400612846FFF705
:1002100062FF012231462046FFF712FF636823F494
:1002200000536360002231462046FFF73BFF002267
:1002300031462046FFF71DFF01224FF48041204642
:10024000FFF7FEFE636823F48043636000224FF4EF
:1002500080412046FFF726FF00224FF480412046D0
:10026000FFF707FF002239462046FFF7E9FE00228C
:1002700039462046FFF716FF012240212046FFF7AE
:10028000DFFE002240212046FFF70CFF0022402124
:100290002046FFF7EEFE4023A3620B4B1A8842F084
:1002A00080021A801A8842F040021A804FF480734C
:1002B000A361FEE70030004000ED00E00003FA0516
:1002C00000040048001C00482000002000080048EE
:1002D00038B5264A136823F0070343F0020313607E
:1002E000136803F00703022B00D0FEE7204A1368CF
:1002F00023F4C06343F40073136002F5D032136833
:1003000043F480331360136823F0F00343F0400399
:100310001360136813F4003FFBD0164B1A6842F4C5
:1003200000221A609A6822F0030242F002029A60E8
:100330009A6822F0F0029A609A6822F4E0629A6069
:100340009A6822F460529A600B4D284600F038F803
:100350004FF0E024236943F004032361284600F0B2
:100360003FF8236943F00203236138BD00200240B7
:100370000070004000100240006CDC0200B583B049
:10038000FFF7A6FF0D4BDA6C4FF0FF32DA64DA6C40
:100390000192019A9A6D42F080529A659A6D02F02C
:1003A00080520092009A9A6822F400429A601A6879
:1003B00042F008021A6003B05DF804FB001002402E
:1003C000064BA3FB00239B09013B4FF0E022536146
:1003D0000023936105231361704700BFD34D621062
:1003E000014B1860704700BF00000020DFF830D0DC
:1003F000002103E00B4B5B58435004310A480B4B80
:1004000042189A42F6D30A4A02E0002342F8043B1B
:10041000084B9A42F9D300F00FF8FFF773FEFEE79E
:1004200000A00020A004000800000020040000201C
:10043000040000202400002070B50D4D0D4C641BFD
:10044000A4100026A64209D10B4D0C4C00F018F860
:10045000641BA4100026A64205D170BD55F8043BCC
:1004600098470136EEE755F8043B98470136F2E726
:100470009804000898040008980400089C040008E8
:10048000F8B500BFF8BC08BC9E467047F8B500BF81
:08049000F8BC08BC9E46704751
:040498002500000833
:04049C000100000853
:0404A00000093D0012
:04000005080003EDFF
:00000001FF
