:020000040800F2
:1000000000A000203931000889310008893100083A
:10001000893100088931000889310008000000009A
:10002000000000000000000000000000311E000879
:100030008931000800000000D11E0008351F0008AB
:1000400089310008893100088931000889310008A8
:100050008931000889310008893100088931000898
:100060008931000889310008893100088931000888
:100070008931000889310008893100088931000878
:10008000893100088931000889310008000000002A
:10009000000000000000000000000000893100089E
:1000A0008931000889310008893100088931000848
:1000B00089310008000000000000000089310008BC
:1000C000893100088931000889310008712C000845
:1000D0008931000889310008893100088931000818
:1000E000893100088931000800000000000000008C
:1000F0000000000000000000000000000000000000
:1001000000000000000000000000000000000000EF
:10011000000000000000000089310008000000001D
:1001200089310008893100088931000889310008C7
:1001300089310008000000000000000000000000FD
:1001400089310008893100088931000889310008A7
:100150008931000889310008893100088931000897
:10016000893100088931000800000000000000000B
:1001700000000000893100080000000000000000BD
:0C0180008931000889310008893100082D
:1001900010B5054C237833B9044B13B10448AFF3C1
:1001A00000800123237010BD10000020000000001B
:1001B0000032000808B5034B1BB103490348AFF3F5
:1001C000008008BD0000000014000020003200087C
:1001D00000F1080343604FF0FF328260C3600361A7
:1001E00000230360704700230361704730B40D683B
:1001F000B5F1FF3F11D000F108031C465B681A6897
:10020000AA42FAD963684B6099608C6061600861AA
:1002100003680133036030BC70470469F2E7036987
:10022000416882688A60416851605A68824204BFAE
:1002300082685A60002202611A68013A1A601868DE
:10024000704710B5044601F005FEA46B01F024FED2
:10025000B4FA84F0400910BD70B504461546866BAB
:10026000026C5AB903681BB100200136A66370BD49
:10027000806801F00BFB0023A360F6E76DB94068CE
:1002800002F0A8FF6368226C13446360A268934283
:1002900019D3236863602846E7E7C06802F09AFF35
:1002A000226C5142E3689B1AE3602268934202D2B7
:1002B000A3680B44E360022D01D00020D5E726B1EE
:1002C000013E0020D1E72846CFE70020CDE770B5FA
:1002D00082B00190846C64B1A26BE36B9A4211D33B
:1002E0004FF0100383F31188BFF36F8FBFF34F8F6D
:1002F000FEE74FF0100383F31188BFF36F8FBFF356
:100300004F8FFEE7A26B934203D80025284602B028
:1003100070BD94F8456076B2002201A92046FFF72F
:100320009BFF0546B6F1FF3F06D07F2E0FD0731C12
:100330005BB284F84530E9E7636A002BE6D004F14C
:10034000240001F059F9002818BF0125DEE74FF01D
:10035000100383F31188BFF36F8FBFF34F8FFEE756
:100360000346026C6AB110B50846D9681144D960D9
:100370009C68A14224BF1968D960D96802F02AFF9D
:1003800010BD704770B5054601F064FD95F8454015
:1003900064B2002C19DD05F1240608E06B6AA3B1F4
:1003A000304601F029F968B9013C64B26CB1AB6C1C
:1003B000002BF3D02846FFF78AFF0028F4D001F085
:1003C000EFF9F1E701F0ECF9EEE7FF2385F84530AE
:1003D00001F062FD01F03EFD95F8444064B2002C4E
:1003E0000FDD05F1100602E0013C64B24CB12B694F
:1003F0003BB1304601F000F90028F5D001F0D0F90A
:10040000F2E7FF2385F8443001F046FD70BD38B5B2
:1004100080B10D460446C36B1BB1026CA2FB0323E3
:100420008BB14FF0100383F31188BFF36F8FBFF3CD
:100430004F8FFEE74FF0100383F31188BFF36F8FE8
:10044000BFF34F8FFEE701F005FD2268216CE36BDF
:1004500001FB03F3D018A0600020A06362605B1A68
:100460001344E360FF2384F8443084F84530B5B981
:1004700023691BB901F010FD012038BD04F1100003
:1004800001F0BAF80028F5D04FF0E0234FF0805289
:10049000C3F8042DBFF34F8FBFF36F8FEAE704F16A
:1004A0001000FFF795FE04F12400FFF791FEE1E74D
:1004B00073B110B582B01C4608B192B1F1B94FF0DA
:1004C000100383F31188BFF36F8FBFF34F8FFEE7E5
:1004D0004FF0100383F31188BFF36F8FBFF34F8F7B
:1004E000FEE70029EBD154230193019B542B0AD141
:1004F000019B012384F84630224611E054230193E6
:10050000019B542B08D04FF0100383F31188BFF3E5
:100510006F8FBFF34F8FFEE7019B012384F84630B6
:100520002260E063216401212046FFF770FF9DF8FF
:10053000103084F850300023A364204602B010BD70
:10054000F8B550B10D4614460646A0FB012323B969
:1005500001FB00F010F1550F08D94FF0100383F3A1
:100560001188BFF36F8FBFF34F8FFEE7543001F058
:10057000EFFD074680B1002380F8463075B100F1E9
:1005800054033B60FE633D6401213846FFF73FFFA3
:1005900087F850400023BB643846F8BD0346F0E7B7
:1005A0002DE9F04385B0019288B10E461D46044600
:1005B000B1B1022D20D1E36B012B1DD04FF0100300
:1005C00083F31188BFF36F8FBFF34F8FFEE74FF0B8
:1005D000100383F31188BFF36F8FBFF34F8FFEE7D4
:1005E000036C002BE5D04FF0100383F31188BFF3A9
:1005F0006F8FBFF34F8FFEE701F0D8F850B9019B22
:1006000063B14FF0100383F31188BFF36F8FBFF313
:100610004F8FFEE74FF00008002750E04FF0000832
:10062000FAE7A76B2A4631462046FFF715FEA36C72
:10063000B3B1022D00F0A0802046FFF748FE48B17C
:100640004FF0E0234FF08052C3F8042DBFF34F8FDB
:10065000BFF36F8F01F020FC012005B0BDE8F083EF
:10066000636A63B90028F5D04FF0E0234FF0805261
:10067000C3F8042DBFF34F8FBFF36F8FEAE704F188
:10068000240000F0B9FF0028E4D04FF0E0234FF041
:100690008052C3F8042DBFF34F8FBFF36F8FD9E79C
:1006A00001F0FAFB0020D8E702A801F01BF814E0E3
:1006B0002046FFF767FE00F0FFFD4FF0010801F054
:1006C000C9FBA26BE36B9A42ABD3022D4AD0019BCC
:1006D000002BE5D0B8F1000FE6D001F0DDFB00F013
:1006E00003FD01F0B7FB94F8442052B2B2F1FF3F92
:1006F00008BF84F8447094F8452052B2B2F1FF3F2D
:1007000008BF84F8457001F0C7FB01A902A800F0FA
:10071000F5FF00BB01F09EFBD4F83890D4F83C8084
:1007200001F0BAFBC145C3D1019904F1100000F0FA
:1007300021FF2046FFF726FE00F0BEFD0028BCD1B9
:100740004FF0E0234FF08052C3F8042DBFF34F8FDA
:10075000BFF36F8FB1E72046FFF714FE00F0ACFD4A
:1007600000207AE7A76B022231462046FFF774FD8E
:10077000A36C002B3FF474AF002F7FF46BAF5BE7EB
:1007800068B170B50D460446036C8BB14FF0100391
:1007900083F31188BFF36F8FBFF34F8FFEE74FF0E6
:1007A000100383F31188BFF36F8FBFF34F8FFEE702
:1007B0000368FBB101F06EFCEFF311864FF01003FC
:1007C00083F31188BFF36F8FBFF34F8FA36BE26B7F
:1007D0009A423BD994F8452052B20133A363B2F157
:1007E000FF3F13D07F2A28D0531C5BB284F84530DA
:1007F00001202CE08368002BDCD04FF0100383F342
:100800001188BFF36F8FBFF34F8FFEE7A36C3BB12F
:100810002046FFF75CFDE8B1F5B10120286016E045
:10082000636A0BB9012012E004F1240000F0E4FE39
:10083000A0B1ADB10120286009E04FF0100383F3AF
:100840001188BFF36F8FBFF34F8FFEE7002086F351
:10085000118870BD0120FAE70120F8E70120F6E7D2
:100860000120F4E72DE9F04184B0019280B10E46F9
:100870000446B1B100F09AFFF8B9019B0BB34FF0F9
:10088000100383F31188BFF36F8FBFF34F8FFEE721
:100890004FF0100383F31188BFF36F8FBFF34F8FB7
:1008A000FEE7036C002BE5D04FF0100383F31188B3
:1008B000BFF36F8FBFF34F8FFEE74FF000080027A5
:1008C0003BE04FF00008FAE731462046FFF748FDCD
:1008D000013DA56323692BB901F0DEFA012004B0C4
:1008E000BDE8F08104F1100000F086FE0028F3D08E
:1008F0004FF0E0234FF08052C3F8042DBFF34F8F29
:10090000BFF36F8FE8E701F0C7FA0020E7E702A81E
:1009100000F0E8FE1CE02046FFF734FD00F0CCFCC0
:1009200009E02046FFF72EFD00F0C6FC2046FFF749
:1009300088FC002846D14FF0010801F08BFAA56B26
:10094000002DC1D1019B002BDDD0B8F1000FDED00E
:1009500001F0A2FA00F0C8FB01F07CFA94F84430F0
:100960005BB2B3F1FF3F08BF84F8447094F84530A0
:100970005BB2B3F1FF3F08BF84F8457001F08CFA19
:1009800001A902A800F0BAFE0028CAD12046FFF74C
:1009900058FC0028BFD0019904F1240000F0EAFDC2
:1009A0002046FFF7EFFC00F087FC0028C3D14FF092
:1009B000E0234FF08052C3F8042DBFF34F8FBFF3F5
:1009C0006F8FB8E700208AE7F0B585B0019158B184
:1009D0000446036C8BB14FF0100383F31188BFF30F
:1009E0006F8FBFF34F8FFEE74FF0100383F3118833
:1009F000BFF36F8FBFF34F8FFEE700F0D7FE50B904
:100A0000019B63B14FF0100383F31188BFF36F8F25
:100A1000BFF34F8FFEE70026374600254EE0002645
:100A20003746FAE7013BA36323683BB123694BB91F
:100A300001F032FA0126304605B0F0BD00F0EAFFC1
:100A4000A060F3E704F1100000F0D6FD0028EFD01D
:100A50004FF0E0234FF08052C3F8042DBFF34F8FC7
:100A6000BFF36F8FE4E746B14FF0100383F31188B3
:100A7000BFF36F8FBFF34F8FFEE701F00DFADAE798
:100A800002A800F02FFE23E001F0E4F9A06800F0D6
:100A90009DFE064601F000FA40E02046FFF772FC9A
:100AA00000F00AFC09E02046FFF76CFC00F004FCB3
:100AB0002046FFF7C6FB002847D1012701F0CAF9FD
:100AC000A36B002BAED1019B002BCCD0002FD7D035
:100AD00001F0E2F900F008FB01F0BCF994F84430B1
:100AE0005BB2B3F1FF3F08BF84F8445094F845303F
:100AF0005BB2B3F1FF3F08BF84F8455001F0CCF979
:100B000001A902A800F0FAFD0028CCD12046FFF789
:100B100098FB0028C1D02368002BB5D0019904F1BF
:100B2000240000F027FD2046FFF72CFC00F0C4FB5A
:100B30000028C2D14FF0E0234FF08052C3F8042DBB
:100B4000BFF34F8FBFF36F8FB7E7002E3FF473AF44
:100B500001F080F9616A19B1236B1968C1F10501CF
:100B6000A06800F0F1FE01F097F9002663E70000AD
:100B700030B130B4044609B3114B0020024610E0F6
:100B80004FF0100383F31188BFF36F8FBFF34F8FC4
:100B9000FEE70B4800EBC2000EE001320833052AE5
:100BA00009D05D68A542F4D00028F6D11D68002D5B
:100BB00008BF1846F1E708B10160446030BC7047D7
:100BC0002C00002070B504460D46164601F042F98F
:100BD00094F844305BB2B3F1FF3F04BF002384F8C4
:100BE000443094F845305BB2B3F1FF3F04BF0023BB
:100BF00084F8453001F050F9A36B1BB12046FFF794
:100C0000C1FB70BD3246294604F1240000F0CAFC45
:100C1000F4E70000074B1B681B6823B9064B4FF035
:100C2000FF321A607047034B1B68DB681A68024B7F
:100C30001A607047580000200C0100202DE9F04791
:100C400007468A469846089E0A9C95002A46A52192
:100C5000206B02F0CDFAD4F83090BAF1000F1AD020
:100C60000AF1FF3204F133030AF1090A12F8011FF5
:100C700003F8011F09B15245F8D1002384F83D3033
:100C8000042E0CD94FF0100383F31188BFF36F8F3C
:100C9000BFF34F8FFEE7002384F83430F0E7E662BD
:100CA000A6644FF0000AC4F84CA0201DFFF79BFA81
:100CB00004F11800FFF797FA2461C6F10506A66152
:100CC0006462C4F850A0C4F85CA0C4F854A0C4F88E
:100CD00058A0C4F860A084F864A084F866A0043D1D
:100CE0004D444246394625F0070001F085F8206062
:100CF000099B03B11C60BDE8F087000070B5044695
:100D000001F0A8F8374A136801331360364B1B68AB
:100D1000002B42D0354B1B683BB9334B1B68DA6A5A
:100D2000E36A9A429CBF304B1C60314A136801331E
:100D300013602364E36A2F49086801229A40024342
:100D40000A602D4A03EB830302EB83035B68A36015
:100D50009868E060211D41609960E36A03EB8301BC
:100D6000880002EB8101616111580131115001F0DD
:100D700093F81E4B1B687BB11B4B1B68DA6AE36A56
:100D80009A4209D24FF0E0234FF08052C3F8042D6D
:100D9000BFF34F8FBFF36F8F70BD134B1C60136891
:100DA000012BC2D1144D05F164062846FFF710FA55
:100DB0001435B542F9D1114E3046FFF709FA104DFE
:100DC0002846FFF705FA0F48FFF702FA0E48FFF72B
:100DD000FFF90E48FFF7FCF90D4B1E600D4B1D602F
:100DE000A3E700BFCC000020540000202C0100200D
:100DF000D8000020DC00002060000020E00000207F
:100E0000F4000020180100204401002030010020DF
:100E1000580000205C00002010B5044690F86530B2
:100E200063B1012B11D0022B0ED04FF0100383F3CE
:100E30001188BFF36F8FBFF34F8FFEE7006B01F098
:100E400035FA204601F032FA10BD01F02FFAFBE727
:100E500080B5154C154F164EDFF858802368A3B1A6
:100E600000F0F8FFFB68DD68281DFFF7D8F933684C
:100E7000013B33602368013B236001F00DF82846F5
:100E8000FFF7CAFF2368002BEAD1D8F80030012B06
:100E9000E4D94FF0E0234FF08052C3F8042DBFF3A4
:100EA0004F8FBFF36F8FD9E7D0000020440100209F
:100EB000CC0000206000002070B504460D46254B94
:100EC0001E68254B1A68002182F8661018680430E5
:100ED000FFF7A5F948B9204B1A6820490B68D06A7A
:100EE0000122824023EA02030B60B4F1FF3F0DD0E0
:100EF0003444194B1B685C60A6421DD9184B186816
:100F0000154B19680431FFF771F970BD002DEFD052
:100F1000144A5168104B1868816018688C68C46066
:100F20001868043060601868043088601B685A6173
:100F3000136801331360E8E70B4B1868064B196818
:100F40000431FFF753F9094B1B68A34284BF074BD9
:100F50001C60DAE75801002054000020DC0000206B
:100F60005C00002030010020580000200C0100200F
:100F700030B587B00B9C7CB10C9DB5B1682504954C
:100F8000049D682D1AD04FF0100383F31188BFF32E
:100F90006F8FBFF34F8FFEE74FF0100383F311887D
:100FA000BFF36F8FBFF34F8FFEE74FF0100383F354
:100FB0001188BFF36F8FBFF34F8FFEE7049D0C9D29
:100FC0002C63022485F8654000240394029505AC47
:100FD00001940A9C0094FFF731FE0C98FFF78EFEF7
:100FE000059807B030BD2DE9F04385B00746884627
:100FF00014461E46900001F0ABF808B38146682005
:1010000001F0A6F80546A8B1C0F83090002380F89A
:101010006530039302900D9B01930C9B0093334624
:10102000224641463846FFF709FE2846FFF766FE8E
:10103000012007E0484601F039F94FF0FF3001E0A8
:101040004FF0FF3005B0BDE8F083000010B588B068
:1010500000240594069407AA06A905A801F09EFAA3
:10106000059B0293069B019300942346079A174918
:101070001748FFF77DFF174B186010B300F04CFEC8
:1010800001280BD0B0F1FF3F1BD14FF0100383F3C9
:101090001188BFF36F8FBFF34F8FFEE74FF0100340
:1010A00083F31188BFF36F8FBFF34F8F0A4B4FF05D
:1010B000FF321A60094B01221A60094B1C6000F0D4
:1010C0005BFF084B1B6808B010BD00BF4C32000826
:1010D000510E0008080100200C0100202C01002006
:1010E0005801002000000020024A136801331360F9
:1010F000704700BFD4000020014B1868704700BF44
:10110000580100202DE9F84F604B1B68002B40F080
:10111000B6805F4B1C6801341C60C4B95D4B1B6812
:101120001B6843B14FF0100383F31188BFF36F8F37
:10113000BFF34F8FFEE7574A1168574B186810608E
:101140001960564A136801331360FFF763FD544B6F
:101150001B68A34200F281804E4B1B681B6853B191
:1011600000204C490546DFF84CC14FF0010B4D4AB9
:10117000DFF834E13AE00020494B4FF0FF321A60CB
:101180006CE0474B1F6069E0DF6ADCF800A00BFAF7
:1011900007F949EA0A09CCF8009007EB870702EB48
:1011A00087077F689F60D7F80890C3F80C90C9F84C
:1011B0000480C7F80880DF6A07EB870802EB88091C
:1011C000C3F8149052F8288008F1010807EB87074C
:1011D00042F82780DEF80080DF6AD8F82C309F4282
:1011E00028BF01200B681B68002BC5D00B68DB688B
:1011F000DB685F68BC42C4D35F69D3F80C809E682B
:10120000C6F808809E68C8F8046003F104087E6888
:10121000464504BFDE687E605D61D7F8009009F145
:10122000FF39C7F80090D3F82890B9F1000FABD080
:101230001F6ADE69B760DE697E6003F11807D9F8BE
:101240000460BE4204BF1F6AC9F804709D62D9F8E9
:101250000070013FC9F8007096E70020124B1B6830
:10126000DB6A03EB83039B000E4AD358022B28BF93
:1012700001200E4B1B68002B18BF012004E00C4A14
:101280001368013313600020BDE8F88FD4000020FC
:1012900058010020580000205C00002010010020B0
:1012A0000C01002060000020540000205C010020A0
:1012B00014010020DC000020554B1B6843B94FF09F
:1012C000100383F31188BFF36F8FBFF34F8FFEE7D7
:1012D0002DE9F04700F0BEFD4D4B1A68013A1A6047
:1012E0001B68002B40F08B804A4B1B68002B00F0E2
:1012F0008C80494B1B68002B61D0DFF81CC100209B
:1013000046494FF0010E464A464CDFF820A1DCF872
:101310000C30DB689E6A1F6ADD69AF60DD697D6045
:1013200003F118077568BD4204BF1D6A75609862B5
:101330003768013F37605E69DF689D68AF609D6810
:101340007D601F1D7568BD4204BFDD687560586112
:10135000D6F8008008F1FF38C6F80080DE6AD1F8C0
:1013600000900EFA06F848EA0908C1F8008006EB7A
:10137000860602EB860676689E60D6F80880C3F87B
:101380000C80C8F80470B760DE6A06EB860702EBD3
:101390008708C3F8148052F82770013706EB8606D9
:1013A00042F826702768DE6AFB6A9E4228BFCAF8A8
:1013B00000E0DCF80030002BA9D1FFF72BFC1A4B22
:1013C0001C686CB1194E012501E0013C05D0FFF706
:1013D00099FE0028F9D03560F7E7134B00221A6018
:1013E000124B1C6864B14FF0E0234FF08052C3F8F9
:1013F000042DBFF34F8FBFF36F8F012400E0002453
:1014000000F04AFD2046BDE8F0870024F8E700BF61
:10141000D4000020CC00002018010020DC000020B7
:101420006000002054000020140100205C01002016
:1014300010B5A8B10446104B1B6843B14FF0100320
:1014400083F31188BFF36F8FBFF34F8FFEE7FFF772
:101450004BFE00212046FFF72FFDFFF72DFF48B977
:101460004FF0E0234FF08052C3F8042DBFF34F8FAD
:10147000BFF36F8F10BD00BFD400002008B5364BFE
:101480001B681BB1354B01221A6008BD0022334B8B
:101490001A60334B1A601B68324A1268934207D9AC
:1014A0002F4B1868304B1968CB6D9B1A0344CB65E2
:1014B0002B4B1A682B4B1A602B4B1B681B6B1A6843
:1014C000B2F1A53F03D15A68B2F1A53F1BD0264B1C
:1014D00018681968343101F079F8244B1B68B3FAA5
:1014E00083F3DBB2C3F11F0303EB830292002049B5
:1014F0008A588AB94FF0100383F31188BFF36F8FB6
:10150000BFF34F8FFEE79A68B2F1A53FDFD1DB68EA
:10151000B3F1A53FDBD1E0E7154A03EB830102EB12
:10152000810148684068486003EB830102EB810257
:101530000832904209D003EB83030D4A02EB830388
:101540005B68DA68084B1A609FE74068084A02EB5C
:1015500081025060EFE700BFD40000205C01002052
:10156000C8000020C400002054000020DC0000203F
:101570006000002058B110B50C46094A11681831B6
:10158000FEF734FE01212046FFF796FC10BD4FF018
:10159000100383F31188BFF36F8FBFF34F8FFEE704
:1015A0005400002038B5E0B18C461146054642682B
:1015B000104B1868C2611868946804621868183083
:1015C00060601868183090601B689D622B6801335A
:1015D0002B6000290CBF60464FF0FF30FFF76CFC1A
:1015E00038BD4FF0100383F31188BFF36F8FBFF343
:1015F0004F8FFEE754000020C368DB68002B4FD0FC
:1016000030B49A6AD869196A8160D869486003F170
:1016100018005168814204BF196A51600021996223
:10162000116801391160294A1268002A41D15A69AA
:101630009868D968816098684860181D516881422F
:1016400004BFD968516000215961116801391160E6
:10165000DA6A1F4C256801219140294321601D4908
:1016600002EB820201EB820252689A609468DC60AD
:1016700060609060DA6A02EB8200840001EB800017
:101680005861085901300851134A1168DA6ACB6A67
:101690009A4283BF0120114B1860002030BC704774
:1016A0004FF0100383F31188BFF36F8FBFF34F8F99
:1016B000FEE70B4A5168D9618C681C6260608860E3
:1016C0009A62116801311160DEE700BFD40000208A
:1016D000DC00002060000020540000205C0100209D
:1016E00018010020034B1B680360034B1B68436019
:1016F000704700BF1001002058010020B0B170B544
:101700000C460546D9B100F0A5FB224B1A68224BC6
:101710001B6893F86630DBB11F4B1B68002283F80F
:101720006620012400F0B8FB204670BD4FF0100386
:1017300083F31188BFF36F8FBFF34F8FFEE74FF036
:10174000100383F31188BFF36F8FBFF34F8FFEE752
:101750002368B3F1FF3F1AD06968104800682E680B
:10176000864205D0914203D8002323600124D9E7A3
:10177000501A834203D8002323600124D2E79B1A26
:101780000B4423602846FFF7ADFF0024CAE700247E
:10179000C8E700BF580100205400002010010020BD
:1017A000014B01221A6070475C010020054B1B6849
:1017B00033B1054B1B68002B0CBF02200020704783
:1017C000012070472C010020D4000020002855D0B3
:1017D00070B50446C36A2A4A1268D26A934244D258
:1017E0008269002A05DB264A1268D26AC2F1050224
:1017F000826103EB8303234A02EB830362699A420B
:1018000005D01F4B1B68DB6AE362012035E0251D14
:101810002846FEF704FD38B91B490B68E06A01222F
:10182000824023EA02030B60154B1B68DB6AE3620C
:1018300015490E68012000FA03F232430A60114A8A
:1018400003EB830302EB83035B68A3609968E160A9
:101850004D609D60E36A03EB83018D0002EB810123
:10186000616151590144515107E0054B1B68806C7F
:10187000DB6A98422CBF0020012070BD0020704719
:101880005400002060000020DC000020002851D01F
:1018900070B50446294B1B68834208D04FF01003F3
:1018A00083F31188BFF36F8FBFF34F8FFEE7C36CD5
:1018B00043B94FF0100383F31188BFF36F8FBFF369
:1018C0004F8FFEE7013BC364C16A826C914233D003
:1018D0000BB1002070BD051D2846FEF7A0FC38B9ED
:1018E00017490B68E06A0122824023EA02030B6079
:1018F000A36CE362C3F10502A26111490E680120E5
:1019000000FA03F232430A600E4A03EB830302EB50
:1019100083035B68A3609968E1604D609D60E36A42
:1019200003EB83018D0002EB810161615159014498
:101930005151CFE7002070470020CBE75400002032
:10194000DC0000206000002000285CD038B5044690
:10195000C36C43B94FF0100383F31188BFF36F8F4B
:10196000BFF34F8FFEE7826C914238BF1146C26AC7
:101970008A4201D0012B00D038BD234B1B68834223
:1019800038D0C1628369002BA4BFC1F10501816118
:1019900002EB82021D4B03EB820243699342EBD1BF
:1019A000051D2846FEF73BFC38B919490B68E06A6B
:1019B0000122824023EA02030B60E36A14490868AB
:1019C00001229A4002430A60104A03EB830302EBB0
:1019D00083035B68A3609968E1604D609D60E36A82
:1019E00003EB8301880002EB810161611158013131
:1019F0001150C1E74FF0100383F31188BFF36F8FCD
:101A0000BFF34F8FFEE770475400002060000020B6
:101A1000DC000020054B1B6823B1044B1A68D36C13
:101A20000133D364014B1868704700BF5400002095
:101A300008B54160006191420CD8D21A83699A427C
:101A400001D3012008BD011D094B1868FEF7CEFB2C
:101A50000020F7E79A4201D2994206D2011D054BB8
:101A60001868FEF7C3FB0020ECE70120EAE700BF9F
:101A7000640100206001002070B504460D46164642
:101A800004E0A3691D44236A20469847A1692B46B8
:101A9000324629442046FFF7CBFF0028F1D170BD24
:101AA00070B505460E460D4B1B68DB68DC68201DD3
:101AB000FEF7B5FB94F8283013F0040F07D123F09C
:101AC000010384F82830236A2046984770BD3246C7
:101AD00029462046FFF7D0FFF5E700BF6001002050
:101AE000F8B50546FFF708FB0446114B1B68834217
:101AF00005D800232B600E4B1C602046F8BD0D4B13
:101B00001B681A685AB14FF0FF370A4EDB68394636
:101B10001868FFF7C5FF33681A68002AF6D1064A2D
:101B2000106804490860136001232B60E3E700BFDD
:101B3000CC01002060010020640100202DE9F0416B
:101B400084B0564F564D3B681E6896B1DB681E68E0
:101B5000FFF7CAFA01A8FFF7C3FF0446019A42BB88
:101B6000B04214D3FFF7A8FB21463046FFF798FF99
:101B700021E0FFF7B9FA01A8FFF7B2FF0446019B85
:101B8000BBB9484B1B681A68B2FA82F25209311B82
:101B90002868FFF717F8FFF78FFB60B94FF0E023D5
:101BA0004FF08052C3F8042DBFF34F8FBFF36F8FF8
:101BB00001E0FFF781FB0024224601A92868FEF717
:101BC00051FE0028BFD0019B002BF5DB039E7369FB
:101BD00013B1301DFEF723FB6846FFF781FF8046F7
:101BE000019B013B082BE7D8DFE803F0050529300E
:101BF00049050529300096F8283043F0010386F89E
:101C00002830029BB169024619443046FFF710FFA5
:101C10000028D1D096F8283013F0040F07D123F014
:101C2000010386F82830336A30469847C4E7B36921
:101C30004246029919443046FFF71EFFF3E796F833
:101C4000283023F0010386F82830B5E796F82830CD
:101C500043F0010386F828300299B16131B103469F
:101C6000024601443046FFF7E3FEA5E74FF01003BC
:101C700083F31188BFF36F8FBFF34F8FFEE796F8A2
:101C8000283013F0020F04D023F0010386F8283027
:101C900092E7304600F00AFB8EE700BF60010020AB
:101CA000240200206401002030B583B000F0D2F897
:101CB000114B1B681BB100F0EFF803B030BD0F4DA6
:101CC0002846FEF785FA0E4C2046FEF781FA0D4BAA
:101CD0001D600D4B1C60002300930C4B0C4A0C2123
:101CE0000520FEF7E5FB044B18600028E3D0094906
:101CF000FEF73EFFDFE700BF24020020A401002022
:101D0000B80100206001002064010020D001002003
:101D1000680100205432000810B588B0FFF7C4FFF6
:101D2000124B1B68CBB100240594069407AA06A9A0
:101D300005A800F03FFC059B0293069B019302233C
:101D400000932346079A0A490A48FFF711F90A4BFC
:101D5000186010B1012008B010BD4FF0100383F3DC
:101D60001188BFF36F8FBFF34F8FFEE7240200206F
:101D70005C3200083D1B00082802002082B00023CE
:101D800001930D4B1B68B3F1FF3F08D04FF01003D8
:101D900083F31188BFF36F8FBFF34F8FFEE74FF0D0
:101DA000100383F31188BFF36F8FBFF34F8F019B35
:101DB000002BFCD002B070470400002008480068E7
:101DC000006880F308884FF0000080F3148862B642
:101DD00061B6BFF34F8FBFF36F8F00DF00BF00000E
:101DE00008ED00E0DFF80C00016841F470010160CB
:101DF0007047000088ED00E04FF0807340F8043C2D
:101E000021F0010140F8081C054B40F80C3C40F85B
:101E1000202C6FF0020340F8243C4438704700BF88
:101E20007D1D000800000000000000000000000010
:101E3000074B19680868B0E8F04F80F30988BFF3D2
:101E40006F8F4FF0000080F311887047AFF3008070
:101E5000540000204FF0100383F31188BFF36F8FFD
:101E6000BFF34F8F0B4A136801331360012B00D06F
:101E700070474FF0E023D3F8043D13F0FF0FF7D085
:101E80004FF0100383F31188BFF36F8FBFF34F8FB1
:101E9000FEE700BF04000020094B1B6843B94FF068
:101EA000100383F31188BFF36F8FBFF34F8FFEE7EB
:101EB000013B034A13600BB983F31188704700BFDD
:101EC00004000020000000000000000000000000EE
:101ED000EFF30980BFF36F8F154B1A681EF0100FD8
:101EE00008BF20ED108A20E9F04F10602DE90900AD
:101EF0004FF0100080F31188BFF34F8FBFF36F8F47
:101F0000FFF7BCFA4FF0000080F3118809BC196894
:101F10000868B0E8F04F1EF0100F08BFB0EC108A50
:101F200080F30988BFF36F8F704700BFAFF3008065
:101F30005400002008B54FF0100383F31188BFF35D
:101F40006F8FBFF34F8FFFF7DDF828B14FF0E0231D
:101F50004FF08052C3F8042D002383F3118808BD8D
:101F60004FF0E02300221A619A614BF67F325A61EA
:101F700007221A61704700004FF0E023D3F8002DCC
:101F80003E4B9A423BD04FF0E023D3F8002D3C4B20
:101F90009A423DD030B583B03A4B1A78D2B2019212
:101FA000FF221A701B78DBB28DF803309DF80330E6
:101FB00003F01003344A1370344B07221A609DF863
:101FC000033013F0800F11D006229DF803305B0020
:101FD000DBB28DF803309DF803301146013A13F05F
:101FE000800FF2D1294B196003291AD04FF010034A
:101FF00083F31188BFF36F8FBFF34F8FFEE74FF06E
:10200000100383F31188BFF36F8FBFF34F8FFEE789
:102010004FF0100383F31188BFF36F8FBFF34F8F1F
:10202000FEE71A4B4FF440721A60019BDBB2154A6F
:1020300013704FF0E024D4F8203D43F47003C4F84B
:10204000203DD4F8203D43F07043C4F8203DFFF715
:1020500087FF00250E4B1D60FFF7C4FED4F8343F08
:1020600043F04043C4F8343FFFF7A8FEFFF706FAF9
:10207000FFF784FE284603B030BD00BF71C20F4198
:1020800070C20F4100E400E02C020020300200206A
:1020900004000020EFF305830F2B0FD9114A9B5C3E
:1020A000DBB2114A12789A4208D94FF0100383F339
:1020B0001188BFF36F8FBFF34F8FFEE74FF0E02320
:1020C000D3F80C3D03F4E063084A1268934208D940
:1020D0004FF0100383F31188BFF36F8FBFF34F8F5F
:1020E000FEE77047F0E300E02C0200203002002001
:1020F000154B1A461B688342FBD3516802EB010C57
:10210000604509D0416800EB010C634509D00360CC
:10211000904218BF106070474068014451601046FB
:10212000F0E710B4094C2468A3420BD05B68194453
:10213000416013681B680360904218BF10605DF82F
:10214000044B70470460F7E74C4200203402002043
:10215000F8B50446FEF7C8FF4D4B1B68A3B14D4BC5
:102160001D68254236D1631E13F10A0F35D804F1DC
:10217000080214F0070F38D022F007030833934207
:1021800032D8FFF799F82AE0434A12F0070F1ED021
:10219000D11D21F0070102F580435B1A0A463F4832
:1021A0000260002141601344083B23F007033848D4
:1021B000036059601960991A51601360384B1960B7
:1021C000384B1960334B4FF000421A60C7E74FF4A9
:1021D0008043E4E7FFF770F801E0FFF76DF800F0E7
:1021E000DBF900263046F8BD1A462E4B1F68974291
:1021F00002D32A490C6804E0FFF75EF8EFE72146B6
:102200001C466368934202D22368002BF7D1204B0F
:102210001B68A34214D00E68083623680B606368FD
:102220009B1A102B13D9A01810F0070F0BD04FF0EA
:10223000100383F31188BFF36F8FBFF34F8FFEE757
:10224000FFF73AF8CBE743606260FFF751FF63683E
:10225000FF1A144A1760124A126897423CBF104A8C
:1022600017601D436560002323600F4A1368013324
:102270001360FFF721F816F0070FB3D04FF01003EB
:1022800083F31188BFF36F8FBFF34F8FFEE700BF5B
:102290003402002038420020380200204C42002046
:1022A000404200203C42002044420020002833D01D
:1022B00010B5044650F8043C184A1268134208D17D
:1022C0004FF0100383F31188BFF36F8FBFF34F8F6D
:1022D000FEE750F8081C41B14FF0100383F311885A
:1022E000BFF36F8FBFF34F8FFEE723EA020340F87F
:1022F000043CFEF7F9FE0A4A54F8043C11680B440A
:102300001360A4F10800FFF7F3FE064A13680133D7
:102310001360FEF7D1FF10BD704700BF38420020A8
:102320003C4200204842002000B585B000230093C5
:1023300020238DF80C30064D0024234632226946B6
:102340002868FEF72DF940F2DC50FFF771F8F4E74A
:10235000284B002000B585B00023009304238DF89E
:102360000430094B029303238DF80C30074D0024F1
:102370002346322269462868FEF712F94FF4FA70B4
:10238000FFF756F8F4E700BF444B0020284B00202D
:1023900000B585B00023009304238DF804300D4B65
:1023A000029302228DF80C200A221A7014225A700D
:1023B0001E229A702822DA70074D0024234632220A
:1023C00069462868FEF7ECF84FF47A70FFF730F8AA
:1023D000F4E700BF884B0020284B00202DE9F04196
:1023E00084B0354D4FF0FF34344E22E000F0DEFD76
:1023F0003070052000F0BAFD314B1880352000F018
:10240000B5FD304B18809DF80C10009800F0E8FDE9
:102410002D4B18704FF00508294F404600F0A6FDDF
:10242000388010F0010FF8D12146284B1868FEF7CC
:10243000CBFA224669462868FEF714FA9DF80C305C
:10244000032B2AD0202BD1D0022BEDD100F0AEFDF2
:102450003070052000F08AFD194B1880352000F0FF
:1024600085FD184B18809DF80C30029A9DF80410D9
:10247000009800F053FD4FF00508114F404600F062
:1024800075FD388010F0010FF8D10323104A9DF834
:102490000410009800F01CFDC6E7402200210298BD
:1024A00000F0A6FE9DF80C30029A9DF804100098EA
:1024B00000F00EFDB8E700BF284B0020C84B0020FD
:1024C000844B0020864B0020404B0020BC4600205F
:1024D000444B002010B4046891FAA1F3B3FA83F3DB
:1024E0005B004FF0030C0CFA03F324EA030391FAA8
:1024F000A1F1B1FA81F1490002FA01F11943016039
:102500005DF8044B704710B4846891FAA1F3B3FAF4
:1025100083F35B004FF0030C0CFA03F324EA03038C
:1025200091FAA1F1B1FA81F1490002FA01F11943DE
:1025300081605DF8044B704710B4C46891FAA1F350
:10254000B3FA83F35B004FF0030C0CFA03F324EAB5
:10255000030391FAA1F1B1FA81F1490002FA01F104
:102560001943C1605DF8044B7047F8B504460D4649
:1025700017461E460122FFF7ADFF636823EA0503F5
:1025800063603A4629462046FFF7D6FF3246294681
:102590002046FFF7B8FFF8BDFEE70000034B0360DD
:1025A000034B0B604FF48073136070475446002058
:1025B00054420020034B0360034B0B604FF48073C5
:1025C00013607047C04A0020C04600204FF010033F
:1025D00083F31188BFF36F8FBFF34F8FFEE70000C7
:1025E00080B582B000F086F98649CA6822F4E062BC
:1025F0001204120C844B1343CB60032300224FF4CC
:1026000080714FF09040FFF7B0FF804C00231A46D6
:102610004FF400712046FFF7A8FF4FF40079C4F88B
:10262000189000231A4610214FF09040FFF79DFFAD
:102630004FF090454FF01008C5F82880744E0023E5
:102640001A4608213046FFF790FF0827B762DFF8E7
:10265000F4A100231A464FF400515046FFF785FFBE
:102660004FF40056CAF8186000231A464FF4805100
:102670002846FFF77AFF00231A4602212046FFF77B
:1026800074FF00231A464FF480712046FFF76DFF58
:1026900000231A464FF480612846FFF766FF0023A7
:1026A0001A464FF480512046FFF75FFF00231A4679
:1026B00049462846FFF759FF00231A464FF40061A8
:1026C0002846FFF752FF012231462046FFF702FF5E
:1026D000636823F400536360002231462046FFF70D
:1026E0002BFF002231462046FFF70DFF01224FF459
:1026F00080412046FFF7EEFE636823F48043636069
:1027000000224FF480412046FFF716FF00224FF4CD
:1027100080412046FFF7F7FE002239462046FFF7AA
:10272000D9FE002239462046FFF706FF012240214C
:102730002046FFF7CFFE002240212046FFF7FCFE97
:10274000002240212046FFF7DEFE4023A36200F076
:10275000F3F800F0D5FA00F063FB2E4D2E4B0193F9
:10276000012400940023C82229462C48FEF73BFC94
:102770002B4B019300940023C82205F10C0129483A
:10278000FEF731FC284B019300940023C82205F189
:1027900018012648FEF727FC254B019300940023DF
:1027A000C82205F124012348FEF71DFC0022414602
:1027B0000A20FDF7C5FE204B1860032200212046A9
:1027C000FDF7BEFE1D4B1860FEF740FC002383F3AF
:1027D00013881B4B4CF6CC421A6045F255521A60D6
:1027E00040F6FF729A6002225A601A46D368002BA4
:1027F000FCD1134B4AF6AA221A60044B4FF48072A4
:102800009A61FEE700ED00E00003FA0500040048CD
:10281000001C004818320008344B0020292300080F
:10282000384B0020552300083C4B00209123000822
:10283000304B0020DD230008284B0020BC46002040
:10284000003000400008004838B5264A136823F0DD
:10285000070343F002031360136803F00703022B1E
:1028600000D0FEE7204A136823F4C06343F40073EA
:10287000136002F5D032136843F480331360136899
:1028800023F0F00343F040031360136813F4003F98
:10289000FBD0164B1A6842F400221A609A6822F0A4
:1028A000030242F002029A609A6822F0F0029A60F3
:1028B0009A6822F4E0629A609A6822F460529A6000
:1028C0000B4D284600F022FC4FF0E024236943F032
:1028D00004032361284600F029FC236943F0020326
:1028E000236138BD0020024000700040001002400B
:1028F000006CDC0200B583B0FFF7A6FF0D4BDA6C6D
:102900004FF0FF32DA64DA6C0192019A9A6D42F06C
:1029100080529A659A6D02F080520092009A9A68ED
:1029200022F400429A601A6842F008021A6003B06A
:102930005DF804FB0010024010B582B0B14B0022DC
:102940001A704FF090431968202393FAA3F3B3FA57
:1029500083F35B00032202FA03F321EA030120233D
:1029600093FAA3F3B3FA83F35B00022202FA03F3B0
:102970000B434FF0904213609168202393FAA3F326
:10298000B3FA83F35B00032202FA03F321EA0301A3
:10299000202393FAA3F3B3FA83F35B00022202FA33
:1029A00003F30B434FF090429360D268202393FAD5
:1029B000A3F3B3FA83F35B00032101FA03F322EAE2
:1029C0000302202393FAA3F14FF09041CA600A6AF0
:1029D00093FAA3F3B3FA83F39B000F2101FA03F3F5
:1029E00022EA0303202292FAA2F2B2FA82F29200C1
:1029F000052101FA02F21A434FF090431A625A6815
:102A000022F020025A601968402393FAA3F3B3FA24
:102A100083F35B00032202FA03F321EA030140235C
:102A200093FAA3F3B3FA83F35B00022202FA03F3EF
:102A30000B434FF0904213609168402393FAA3F345
:102A4000B3FA83F35B00032202FA03F321EA0301E2
:102A5000402393FAA3F3B3FA83F35B00022202FA52
:102A600003F30B434FF090429360D268402393FAF4
:102A7000A3F3B3FA83F35B00032101FA03F322EA21
:102A80000302402393FAA3F14FF09041CA600A6A0F
:102A900093FAA3F3B3FA83F39B000F2101FA03F334
:102AA00022EA0303402292FAA2F2B2FA82F29200E0
:102AB000052101FA02F21A434FF090431A625A6854
:102AC00022F040025A601968802393FAA3F3B3FA04
:102AD00083F35B00032202FA03F321EA030180235C
:102AE00093FAA3F3B3FA83F35B00022202FA03F32F
:102AF0000B434FF0904213609168802393FAA3F345
:102B0000B3FA83F35B00032202FA03F321EA030121
:102B1000802393FAA3F3B3FA83F35B00022202FA51
:102B200003F30B434FF090429360D268802393FAF3
:102B3000A3F3B3FA83F35B00032101FA03F322EA60
:102B40000302802393FAA3F14FF09041CA600A6A0E
:102B500093FAA3F3B3FA83F39B000F2101FA03F373
:102B600022EA0303802292FAA2F2B2FA82F29200DF
:102B7000052101FA02F21A434FF090431A625A6893
:102B800022F080025A6003F1784303F504331A6E91
:102B900042F480521A661A6E02F480520192019A2F
:102BA0001A6C42F480521A641A6C22F480521A642D
:102BB000154900230B604FF482724A604FF4E062C3
:102BC0008A60CB600B614FF400724A6120228A61F7
:102BD000CB610B6207234B620C4C204600F062FA7B
:102BE000636843F480536360236843F040032360C9
:102BF000636843F040036360054B08225A6002B0EB
:102C000010BD00BFF44B0020CC4B00200030014031
:102C100000E100E010B401230E4C23700E4C206044
:102C20000E4C21600E494FF0000CA1F800C00D4978
:102C30000B800D4B1A800D4A936813F0020FFBD0E6
:102C400028B10278094B1A735DF8044B7047FF22D4
:102C5000F8E700BFF44B0020FC4B0020F84B0020AD
:102C6000024C0020044C0020004C002000300140A9
:102C700000B583B0194B1B7B8DF80730184B1B68D0
:102C800023B19DF80710174A12889954164B1B88D8
:102C9000164A12889A4209D9154A126892B1D25C32
:102CA0000E4B1A73104A1388013313800D4A138890
:102CB00001339BB213800D4A12889A4204D903B0A3
:102CC0005DF804FBFF22EBE700210A4B19700A4B69
:102CD0001868FDF755FD094B1860F0E7003001401A
:102CE000F84B0020024C0020044C0020004C002037
:102CF000FC4B0020F44B0020BC46002008000020C4
:102D0000454B19684FF4005393FAA3F3B3FA83F3D6
:102D10005B00032202FA03F321EA03014FF400539C
:102D200093FAA3F3B3FA83F35B00012202FA03F3ED
:102D30000B43394A1360536823F400535360D2683D
:102D40004FF4005393FAA3F3B3FA83F35B00032128
:102D500001FA03F322EA03024FF4005393FAA3F1BA
:102D60002D49CA608A6893FAA3F3B3FA83F35B0030
:102D7000032101FA03F322EA03034FF4005191FA0D
:102D8000A1F2254A93609161244B00221A604FF012
:102D900090431968102393FAA3F3B3FA83F35B000B
:102DA000032202FA03F321EA0301102393FAA3F3A7
:102DB000B3FA83F35B00012202FA03F30B434FF0F3
:102DC00090421360536823F010035360D2681023BD
:102DD00093FAA3F3B3FA83F35B00032101FA03F33D
:102DE00022EA0302102393FAA3F14FF09041CA6044
:102DF0008A6893FAA3F3B3FA83F35B00032101FA21
:102E000003F322EA0303102191FAA1F24FF090425A
:102E100093609162704700BF000800482C4B00206F
:102E2000284B4FF400529A62274B01221A604FF050
:102E300090431968102393FAA3F3B3FA83F39340F2
:102E4000032202FA03F321EA0301102393FAA3F306
:102E5000B3FA83F35B00012202FA03F30B434FF052
:102E600090421360536823F010035360D26810231C
:102E700093FAA3F3B3FA83F35B00032101FA03F39C
:102E800022EA0302102393FAA3F14FF09041CA60A3
:102E90008A6893FAA3F3B3FA83F35B00032101FA80
:102EA00003F322EA0303102191FAA1F24FF09042BA
:102EB00093609161054B302283F8232308225A60E6
:102EC000704700BF000800482C4B002000E100E0E4
:102ED00070B50D4616460D4C2370030C6370030A43
:102EE000A370E0700A4804600A4900230B600A4A94
:102EF0000424148043604E6055804FF090441025A8
:102F0000A562022300F08CF8A56170BD1C4C002066
:102F1000144C00200C4C0020084C002070B50D46CD
:102F200016460E4C2370030C6370030AA370E07006
:102F30000B4804600B4900240C600B4A04231380E7
:102F400046604C6055804FF090451026AE620223DB
:102F500000F066F8AE61204670BD00BF1C4C00203A
:102F6000144C00200C4C0020084C002008B50C4BE1
:102F70001870FF225A704FF0904210219162022285
:102F800008491846FFF746FE074A1378002BFCD184
:102F90004FF0904310229A61024B587808BD00BF51
:102FA000444C0020244C0020F44B002008B50A4873
:102FB000062303704FF0904310229A6201220021F1
:102FC000FFF728FE054A1378002BFCD14FF0904301
:102FD00010229A61002008BD1C4C0020F44B0020F8
:102FE00008B503460C4801701A0C42701A0A827028
:102FF000C3704FF0904310229A6204220021FFF721
:1030000009FE064A1378002BFCD14FF090431022A2
:103010009A61002008BD00BF1C4C0020F44B00202A
:10302000D3B12DE9F041051F0F1F961E03F1FF38A4
:103030005FFA88F800EB8808084C36F8022F57F83A
:10304000041F55F8040FFFF7E5FD2378002BFCD192
:103050004545F2D1BDE8F081704700BFF44B002038
:103060000E4AD2F8883043F47003C2F888300C4B13
:103070001A6842F001021A60002199601A6822F071
:10308000A85222F410221A604FF48052DA601A68B3
:1030900022F480221A609961704700BF00ED00E0C1
:1030A00000100240036813F0400F2CD110B40268E6
:1030B0000B684C682343CC6823430C6923434C6959
:1030C00023438C692343CC6923430C6A234322F4B2
:1030D0007F4222F0BF02134303604268CB8A8C68B0
:1030E000234322F4706222F00402134343600B6A0C
:1030F000B3F5005F03D001205DF8044B70478B8C63
:1031000003610120F8E7002070470000064BA3FB95
:1031100000239B09013B4FF0E022536100239361A0
:1031200005231361704700BFD34D6210014B186037
:10313000704700BF0C000020DFF834D0FFF790FF8D
:103140000C480D490D4A002302E0D458C450043302
:10315000C4188C42F9D30A4A0A4C002301E01360D8
:103160000432A242FBD300F011F8FFF739FAFEE770
:1031700000A0002000000020100000206C32000899
:1031800010000020644C0020FEE7000070B50D4DDB
:103190000D4C641BA4100026A64209D10B4D0C4C0B
:1031A00000F02EF8641BA4100026A64205D170BDC5
:1031B00055F8043B98470136EEE755F8043B98472D
:1031C0000136F2E764320008643200086432000815
:1031D000683200080A44914200F1FF3300D1704781
:1031E00010B511F8014B03F8014F9142F9D110BD10
:1031F00002440346934200D1704703F8011BF9E7EC
:10320000F8B500BFF8BC08BC9E467047F8B500BFD3
:08321000F8BC08BC9E467047A3
:1032180045524153455F7461736B00005245414408
:103228005F7461736B00000057524954455F7461C5
:10323800736B00005350494D414E414745525F74EE
:1032480061736B0049444C4500000000546D725195
:0C32580000000000546D722053766300EB
:04326400B5010008A8
:0432680091010008C8
:10326C0004000000AAAAAAAA0100000000093D005F
:040000050800313985
:00000001FF
