:020000040800F2
:1000000010B5054C237833B9044B13B10448AFF352
:1000100000800123237010BD0C00002000000000B0
:10002000C41E000808B5034B1BB103490348AFF3D6
:10003000008008BD0000000010000020C41E000861
:1000400000F1080343604FF0FF328260C360036138
:1000500000230360704700230361704730B40D68CC
:10006000B5F1FF3F11D000F108031C465B681A6828
:10007000AA42FAD963684B6099608C60616008613C
:1000800003680133036030BC70470469F2E7036919
:10009000416882688A60416851605A68824204BF40
:1000A00082685A60002202611A68013A1A60186870
:1000B000704710B5044601F0B3FAA46B01F0D2FA10
:1000C000B4FA84F0400910BD70B504461546866B3D
:1000D000026C5AB903681BB100200136A66370BDDB
:1000E000806801F045F80023A360F6E76DB9406829
:1000F00001F0D2FE6368226C13446360A2689342ED
:1001000019D3236863602846E7E7C06801F0C4FE9E
:10011000226C5142E3689B1AE3602268934202D248
:10012000A3680B44E360022D01D00020D5E726B17F
:10013000013E0020D1E72846CFE70020CDE770B58B
:1001400082B00190846C64B1A26BE36B9A4211D3CC
:100150004FF0500383F31188BFF36F8FBFF34F8FBE
:10016000FEE74FF0500383F31188BFF36F8FBFF3A7
:100170004F8FFEE7A26B934203D80025284602B0BA
:1001800070BD94F8456076B2002201A92046FFF7C1
:100190009BFF0546B6F1FF3F06D07F2E0FD0731CA4
:1001A0005BB284F84530E9E7636A002BE6D004F1DE
:1001B000240000F0F3FE002818BF0125DEE74FF011
:1001C000500383F31188BFF36F8FBFF34F8FFEE7A8
:1001D0000346026C6AB110B50846D9681144D9606B
:1001E0009C68A14224BF1968D960D96801F054FE07
:1001F00010BD704770B5054601F012FA95F84540FC
:1002000064B2002C19DD05F1240608E06B6AA3B185
:10021000304600F0C3FE68B9013C64B26CB1AB6C0F
:10022000002BF3D02846FFF78AFF0028F4D000F017
:1002300089FFF1E700F086FFEEE7FF2385F8453000
:1002400001F010FA01F0ECF995F8444064B2002C8A
:100250000FDD05F1100602E0013C64B24CB12B69E0
:100260003BB1304600F09AFE0028F5D000F06AFF5E
:10027000F2E7FF2385F8443001F0F4F970BD38B59A
:1002800080B10D460446C36B1BB1026CA2FB032375
:100290008BB14FF0500383F31188BFF36F8FBFF31F
:1002A0004F8FFEE74FF0500383F31188BFF36F8F3A
:1002B000BFF34F8FFEE701F0B3F92268216CE36BC7
:1002C00001FB03F3D018A0600020A06362605B1AFA
:1002D0001344E360FF2384F8443084F84530B5B913
:1002E00023691BB901F0BEF9012038BD04F11000EB
:1002F00000F054FE0028F5D04FF0E0234FF080527C
:10030000C3F8042DBFF34F8FBFF36F8FEAE704F1FB
:100310001000FFF795FE04F12400FFF791FEE1E7DE
:1003200073B110B582B01C4608B192B1F1B94FF06B
:10033000500383F31188BFF36F8FBFF34F8FFEE736
:100340004FF0500383F31188BFF36F8FBFF34F8FCC
:10035000FEE70029EBD154230193019B542B0AD1D2
:10036000019B012384F84630224611E05423019377
:10037000019B542B08D04FF0500383F31188BFF337
:100380006F8FBFF34F8FFEE7019B012384F8463048
:100390002260E063216401212046FFF770FF9DF891
:1003A000103084F850300023A364204602B010BD02
:1003B0002DE9F04184B0019280B10E460446B1B1FE
:1003C00000F0C6FEF8B9019B0BB34FF0500383F366
:1003D0001188BFF36F8FBFF34F8FFEE74FF05003CD
:1003E00083F31188BFF36F8FBFF34F8FFEE7036C6A
:1003F000002BE5D04FF0500383F31188BFF36F8FCC
:10040000BFF34F8FFEE74FF0000800273BE04FF0AF
:100410000008FAE731462046FFF7DAFE013DA56302
:1004200023692BB901F01EF9012004B0BDE8F08169
:1004300004F1100000F0B2FD0028F3D04FF0E023EB
:100440004FF08052C3F8042DBFF34F8FBFF36F8F6F
:10045000E8E701F007F90020E7E702A800F014FE42
:100460001CE02046FFF7C6FE00F0F8FB09E020463E
:10047000FFF7C0FE00F0F2FB2046FFF71AFE00284F
:1004800046D14FF0010801F0CBF8A56B002DC1D18A
:10049000019B002BDDD0B8F1000FDED001F0E2F8B7
:1004A00000F0F4FA01F0BCF894F844305BB2B3F118
:1004B000FF3F08BF84F8447094F845305BB2B3F155
:1004C000FF3F08BF84F8457001F0CCF801A902A8ED
:1004D00000F0E6FD0028CAD12046FFF7EAFD00281B
:1004E000BFD0019904F1240000F016FD2046FFF76B
:1004F00081FE00F0B3FB0028C3D14FF0E0234FF0A2
:100500008052C3F8042DBFF34F8FBFF36F8FB8E74E
:1005100000208AE730B130B4044609B3114B002003
:10052000024610E04FF0500383F31188BFF36F8F42
:10053000BFF34F8FFEE70B4800EBC2000EE0013225
:100540000833052A09D05D68A542F4D00028F6D109
:100550001D68002D08BF1846F1E708B1016044602E
:1005600030BC70472800002070B504460D46164682
:1005700001F056F894F844305BB2B3F1FF3F04BF8A
:10058000002384F8443094F845305BB2B3F1FF3F68
:1005900004BF002384F8453001F064F8A36B1BB15D
:1005A0002046FFF727FE70BD3246294604F124009D
:1005B00000F0CAFCF4E70000074B1B681B6823B976
:1005C000064B4FF0FF321A607047034B1B68DB6825
:1005D0001A68024B1A60704754000020080100207E
:1005E0002DE9F04707468A469846089E0A9C9500E2
:1005F0002A46A521206B01F05DFCD4F83090BAF1B9
:10060000000F1AD00AF1FF3204F133030AF1090A8C
:1006100012F8011F03F8011F09B15245F8D1002358
:1006200084F83D30042E0CD94FF0500383F3118829
:10063000BFF36F8FBFF34F8FFEE7002384F8343092
:10064000F0E7E662A6644FF0000AC4F84CA0201D53
:10065000FFF701FD04F11800FFF7FDFC2461C6F16E
:100660000506A6616462C4F850A0C4F85CA0C4F892
:1006700054A0C4F858A0C4F860A084F864A084F81A
:1006800066A0043D4D444246394625F0070000F07F
:10069000B1FF2060099B03B11C60BDE8F08700003A
:1006A00070B5044600F0BCFF374A1368013313608D
:1006B000364B1B68002B42D0354B1B683BB9334B84
:1006C0001B68DA6AE36A9A429CBF304B1C60314A6D
:1006D0001368013313602364E36A2F490868012219
:1006E0009A4002430A602D4A03EB830302EB830323
:1006F0005B68A3609868E060211D41609960E36ACF
:1007000003EB8301880002EB810161611158013123
:10071000115000F0A7FF1E4B1B687BB11B4B1B68E1
:10072000DA6AE36A9A4209D24FF0E0234FF080522E
:10073000C3F8042DBFF34F8FBFF36F8F70BD134B02
:100740001C601368012BC2D1144D05F164062846C4
:10075000FFF776FC1435B542F9D1114E3046FFF75C
:100760006FFC104D2846FFF76BFC0F48FFF768FC45
:100770000E48FFF765FC0E48FFF762FC0D4B1E604C
:100780000D4B1D60A3E700BFC800002050000020F3
:1007900028010020D4000020D80000205C000020A8
:1007A000DC000020F00000201401002040010020A7
:1007B0002C010020540000205800002010B50446F1
:1007C00090F8653063B1012B11D0022B0ED04FF0A1
:1007D000500383F31188BFF36F8FBFF34F8FFEE792
:1007E000006B01F0BFF8204601F0BCF810BD01F02D
:1007F000B9F8FBE780B5154C154F164EDFF8588059
:100800002368A3B100F00CFFFB68DD68281DFFF72B
:100810003EFC3368013B33602368013B236000F0FA
:1008200021FF2846FFF7CAFF2368002BEAD1D8F83A
:100830000030012BE4D94FF0E0234FF08052C3F891
:10084000042DBFF34F8FBFF36F8FD9E7CC0000208B
:1008500040010020C80000205C00002070B5044664
:100860000D46254B1E68254B1A68002182F866103C
:1008700018680430FFF70BFC48B9204B1A68204970
:100880000B68D06A0122824023EA02030B60B4F1B4
:10089000FF3F0DD03444194B1B685C60A6421DD944
:1008A000184B1868154B19680431FFF7D7FB70BD5A
:1008B000002DEFD0144A5168104B186881601868F9
:1008C0008C68C46018680430606018680430886000
:1008D0001B685A61136801331360E8E70B4B186813
:1008E000064B19680431FFF7B9FB094B1B68A3429B
:1008F00084BF074B1C60DAE7540100205000002041
:10090000D8000020580000202C01002054000020B6
:100910000801002030B587B00B9C7CB10C9DB5B1AF
:1009200068250495049D682D1AD04FF0500383F379
:100930001188BFF36F8FBFF34F8FFEE74FF0500367
:1009400083F31188BFF36F8FBFF34F8FFEE74FF034
:10095000500383F31188BFF36F8FBFF34F8FFEE710
:10096000049D0C9D2C63022485F8654000240394AB
:10097000029505AC01940A9C0094FFF731FE0C9897
:10098000FFF78EFE059807B030BD2DE9F04385B026
:100990000746884614461E46900000F043FF08B301
:1009A0008146682000F03EFF0546A8B1C0F83090AF
:1009B000002380F86530039302900D9B01930C9BFC
:1009C00000933346224641463846FFF709FE284643
:1009D000FFF766FE012007E0484600F0C3FF4FF036
:1009E000FF3001E04FF0FF3005B0BDE8F0830000BC
:1009F00010B588B000240594069407AA06A905A896
:100A000001F060F8059B0293069B01930094234636
:100A1000079A17491748FFF77DFF174B186010B367
:100A200000F078FD01280BD0B0F1FF3F1BD14FF053
:100A3000500383F31188BFF36F8FBFF34F8FFEE72F
:100A40004FF0500383F31188BFF36F8FBFF34F8FC5
:100A50000A4B4FF0FF321A60094B01221A60094B12
:100A60001C6000F021FE084B1B6808B010BD00BFE1
:100A7000DC1E0008F5070008040100200801002022
:100A8000280100205401002000000020024A1368C1
:100A900001331360704700BFD0000020014B18687D
:100AA000704700BF540100202DE9F84F604B1B68D0
:100AB000002B40F0B6805F4B1C6801341C60C4B949
:100AC0005D4B1B681B6843B14FF0500383F31188E3
:100AD000BFF36F8FBFF34F8FFEE7574A1168574B35
:100AE000186810601960564A136801331360FFF7E5
:100AF00063FD544B1B68A34200F281804E4B1B6880
:100B00001B6853B100204C490546DFF84CC14FF03B
:100B1000010B4D4ADFF834E13AE00020494B4FF039
:100B2000FF321A606CE0474B1F6069E0DF6ADCF857
:100B300000A00BFA07F949EA0A09CCF8009007EB84
:100B4000870702EB87077F689F60D7F80890C3F894
:100B50000C90C9F80480C7F80880DF6A07EB8708A3
:100B600002EB8809C3F8149052F8288008F10108B4
:100B700007EB870742F82780DEF80080DF6AD8F8A5
:100B80002C309F4228BF01200B681B68002BC5D06A
:100B90000B68DB68DB685F68BC42C4D35F69D3F86D
:100BA0000C809E68C6F808809E68C8F8046003F14F
:100BB00004087E68464504BFDE687E605D61D7F844
:100BC000009009F1FF39C7F80090D3F82890B9F1E7
:100BD000000FABD01F6ADE69B760DE697E6003F18B
:100BE0001807D9F80460BE4204BF1F6AC9F8047030
:100BF0009D62D9F80070013FC9F8007096E70020A7
:100C0000124B1B68DB6A03EB83039B000E4AD3582D
:100C1000022B28BF01200E4B1B68002B18BF0120A0
:100C200004E00C4A1368013313600020BDE8F88F1C
:100C3000D000002054010020540000205800002063
:100C40000C010020080100205C0000205000002062
:100C50005801002010010020D8000020554B1B68CF
:100C600043B94FF0500383F31188BFF36F8FBFF385
:100C70004F8FFEE72DE9F04700F0D2FC4D4B1A688C
:100C8000013A1A601B68002B40F08B804A4B1B68AE
:100C9000002B00F08C80494B1B68002B61D0DFF8E3
:100CA0001CC1002046494FF0010E464A464CDFF871
:100CB00020A1DCF80C30DB689E6A1F6ADD69AF603A
:100CC000DD697D6003F118077568BD4204BF1D6AC8
:100CD000756098623768013F37605E69DF689D68BC
:100CE000AF609D687D601F1D7568BD4204BFDD68F3
:100CF00075605861D6F8008008F1FF38C6F80080AA
:100D0000DE6AD1F800900EFA06F848EA0908C1F840
:100D1000008006EB860602EB860676689E60D6F8B3
:100D20000880C3F80C80C8F80470B760DE6A06EB70
:100D3000860702EB8708C3F8148052F82770013742
:100D400006EB860642F826702768DE6AFB6A9E423A
:100D500028BFCAF800E0DCF80030002BA9D1FFF76B
:100D60002BFC1A4B1C686CB1194E012501E0013CAB
:100D700005D0FFF799FE0028F9D03560F7E7134B4F
:100D800000221A60124B1C6864B14FF0E0234FF050
:100D90008052C3F8042DBFF34F8FBFF36F8F012430
:100DA00000E0002400F05EFC2046BDE8F08700244F
:100DB000F8E700BFD0000020C80000201401002088
:100DC000D80000205C00002050000020100100200E
:100DD0005801002010B5A8B10446104B1B6843B160
:100DE0004FF0500383F31188BFF36F8FBFF34F8F22
:100DF000FEE7FFF74BFE00212046FFF72FFDFFF730
:100E00002DFF48B94FF0E0234FF08052C3F8042D76
:100E1000BFF34F8FBFF36F8F10BD00BFD000002016
:100E200008B5364B1B681BB1354B01221A6008BD53
:100E30000022334B1A60334B1A601B68324A126827
:100E4000934207D92F4B1868304B1968CB6D9B1A0A
:100E50000344CB652B4B1A682B4B1A602B4B1B683A
:100E60001B6B1A68B2F1A53F03D15A68B2F1A53FD6
:100E70001BD0264B18681968343100F01AFE244B39
:100E80001B68B3FA83F3DBB2C3F11F0303EB8302E6
:100E9000920020498A588AB94FF0500383F3118891
:100EA000BFF36F8FBFF34F8FFEE79A68B2F1A53F94
:100EB000DFD1DB68B3F1A53FDBD1E0E7154A03EBF7
:100EC000830102EB810148684068486003EB8301BD
:100ED00002EB81020832904209D003EB83030D4AF2
:100EE00002EB83035B68DA68084B1A609FE740688F
:100EF000084A02EB81025060EFE700BFD0000020FB
:100F000058010020C4000020C00000205000002034
:100F1000D80000205C00002058B110B50C46094AEA
:100F200011681831FFF79AF801212046FFF796FC67
:100F300010BD4FF0500383F31188BFF36F8FBFF3E1
:100F40004F8FFEE75000002038B5E0B18C461146C7
:100F500005464268104B1868C261186894680462BC
:100F60001868183060601868183090601B689D62BF
:100F70002B6801332B6000290CBF60464FF0FF3017
:100F8000FFF76CFC38BD4FF0500383F31188BFF3BB
:100F90006F8FBFF34F8FFEE750000020C368DB6800
:100FA000002B4FD030B49A6AD869196A8160D86929
:100FB000486003F118005168814204BF196A51600A
:100FC00000219962116801391160294A1268002ACA
:100FD00041D15A699868D968816098684860181D3D
:100FE0005168814204BFD96851600021596111687C
:100FF00001391160DA6A1F4C2568012191402943AB
:1010000021601D4902EB820201EB820252689A6064
:101010009468DC6060609060DA6A02EB82008400B1
:1010200001EB80005861085901300851134A1168DA
:10103000DA6ACB6A9A4283BF0120114B1860002004
:1010400030BC70474FF0500383F31188BFF36F8FAC
:10105000BFF34F8FFEE70B4A5168D9618C681C6261
:10106000606088609A62116801311160DEE700BF3C
:10107000D0000020D80000205C000020500000209C
:101080005801002014010020034B1B680360034B30
:101090001B684360704700BF0C0100205401002012
:1010A000B0B170B50C460546D9B100F0B9FA224B83
:1010B0001A68224B1B6893F86630DBB11F4B1B6824
:1010C000002283F86620012400F0CCFA204670BD8F
:1010D0004FF0500383F31188BFF36F8FBFF34F8F2F
:1010E000FEE74FF0500383F31188BFF36F8FBFF318
:1010F0004F8FFEE72368B3F1FF3F1AD069681048AD
:1011000000682E68864205D0914203D800232360F0
:101110000124D9E7501A834203D800232360012415
:10112000D2E79B1A0B4423602846FFF7ADFF00244B
:10113000CAE70024C8E700BF540100205000002087
:101140000C010020014B01221A6070475801002059
:10115000054B1B6833B1054B1B68002B0CBF0220ED
:10116000002070470120704728010020D000002097
:10117000002851D070B50446294B1B68834208D023
:101180004FF0500383F31188BFF36F8FBFF34F8F7E
:10119000FEE7C36C43B94FF0500383F31188BFF3EC
:1011A0006F8FBFF34F8FFEE7013BC364C16A826C50
:1011B000914233D00BB1002070BD051D2846FEF7CB
:1011C00066FF38B917490B68E06A0122824023EABA
:1011D00002030B60A36CE362C3F10502A261114933
:1011E0000E68012000FA03F232430A600E4A03EB54
:1011F000830302EB83035B68A3609968E1604D6041
:101200009D60E36A03EB83018D0002EB8101616164
:10121000515901445151CFE7002070470020CBE7DE
:1012200050000020D80000205C00002008B541607C
:10123000006191420CD8D21A83699A4201D30120ED
:1012400008BD011D094B1868FEF708FF0020F7E7ED
:101250009A4201D2994206D2011D054B1868FEF749
:10126000FDFE0020ECE70120EAE700BF600100205E
:101270005C01002070B504460D46164604E0A369E3
:101280001D44236A20469847A1692B4632462944CB
:101290002046FFF7CBFF0028F1D170BD70B50546A1
:1012A0000E460D4B1B68DB68DC68201DFEF7EFFE69
:1012B00094F8283013F0040F07D123F0010384F8C9
:1012C0002830236A2046984770BD3246294620467A
:1012D000FFF7D0FFF5E700BF5C010020F8B5054639
:1012E000FFF7DCFB0446114B1B68834205D8002343
:1012F0002B600E4B1C602046F8BD0D4B1B681A6816
:101300005AB14FF0FF370A4EDB6839461868FFF7CD
:10131000C5FF33681A68002AF6D1064A10680449E6
:101320000860136001232B60E3E700BFC8010020C1
:101330005C010020600100202DE9F04184B0564F8F
:10134000564D3B681E6896B1DB681E68FFF79EFB32
:1013500001A8FFF7C3FF0446019A42BBB04214D371
:10136000FFF77CFC21463046FFF798FF21E0FFF7AE
:101370008DFB01A8FFF7B2FF0446019BBBB9484BA8
:101380001B681A68B2FA82F25209311B2868FFF70B
:10139000EBF8FFF763FC60B94FF0E0234FF08052A9
:1013A000C3F8042DBFF34F8FBFF36F8F01E0FFF73A
:1013B00055FC0024224601A92868FEF7F9FF002801
:1013C000BFD0019B002BF5DB039E736913B1301D69
:1013D000FEF75DFE6846FFF781FF8046019B013BFB
:1013E000082BE7D8DFE803F0050529304905052972
:1013F000300096F8283043F0010386F82830029B2D
:10140000B169024619443046FFF710FF0028D1D0D9
:1014100096F8283013F0040F07D123F0010386F863
:101420002830336A30469847C4E7B3694246029988
:1014300019443046FFF71EFFF3E796F8283023F0F3
:10144000010386F82830B5E796F8283043F0010309
:1014500086F828300299B16131B103460246014451
:101460003046FFF7E3FEA5E74FF0500383F3118802
:10147000BFF36F8FBFF34F8FFEE796F8283013F05E
:10148000020F04D023F0010386F8283092E730469B
:1014900000F068FA8EE700BF5C0100202002002007
:1014A0006001002030B583B000F0BAF8114B1B6822
:1014B0001BB100F0D7F803B030BD0F4D2846FEF742
:1014C000BFFD0E4C2046FEF7BBFD0D4B1D600D4BC6
:1014D0001C60002300930C4B0C4A0C210520FEF7E6
:1014E0001FFF044B18600028E3D00949FFF712F8EA
:1014F000DFE700BF20020020A0010020B40100208F
:101500005C01002060010020CC010020640100206B
:10151000E41E000810B588B0FFF7C4FF124B1B682B
:10152000CBB100240594069407AA06A905A800F0EB
:10153000D5FA059B0293069B019302230093234651
:10154000079A0A490A48FFF7E5F90A4B186010B1F3
:10155000012008B010BD4FF0500383F31188BFF392
:101560006F8FBFF34F8FFEE720020020EC1E0008B4
:10157000391300082402002082B0002301930D4B90
:101580001B68B3F1FF3F08D04FF0500383F311887D
:10159000BFF36F8FBFF34F8FFEE74FF0500383F31E
:1015A0001188BFF36F8FBFF34F8F019B002BFCD0CF
:1015B00002B070470400002008480068006880F30B
:1015C00008884FF0000080F3148862B661B6BFF35C
:1015D0004F8FBFF36F8F00DF00BF000008ED00E00A
:1015E000DFF80C00016841F47001016070470000F1
:1015F00088ED00E04FF0807340F8043C21F00101D9
:1016000040F8081C054B40F80C3C40F8202C6FF0CB
:10161000020340F8243C4438704700BF79150008A5
:101620004FF0500383F31188BFF36F8FBFF34F8FD9
:101630000B4A136801331360012B00D070474FF041
:10164000E023D3F8043D13F0FF0FF7D04FF0500321
:1016500083F31188BFF36F8FBFF34F8FFEE700BF97
:1016600004000020094B1B6843B94FF0500383F37B
:101670001188BFF36F8FBFF34F8FFEE7013B034A23
:1016800013600BB983F31188704700BF040000207A
:101690004FF0E02300221A619A614BF67F325A61C3
:1016A00007221A61704700004FF0E023D3F8002DA5
:1016B0003E4B9A423BD04FF0E023D3F8002D3C4BF9
:1016C0009A423DD030B583B03A4B1A78D2B20192EB
:1016D000FF221A701B78DBB28DF803309DF80330BF
:1016E00003F05003344A1370344B07221A609DF8FC
:1016F000033013F0800F11D006229DF803305B00F9
:10170000DBB28DF803309DF803301146013A13F037
:10171000800FF2D1294B196003291AD04FF05003E2
:1017200083F31188BFF36F8FBFF34F8FFEE74FF046
:10173000500383F31188BFF36F8FBFF34F8FFEE722
:101740004FF0500383F31188BFF36F8FBFF34F8FB8
:10175000FEE71A4B4FF440721A60019BDBB2154A48
:1017600013704FF0E024D4F8203D43F47003C4F824
:10177000203DD4F8203D43F07043C4F8203DFFF7EE
:1017800087FF00250E4B1D60FFF72AFFD4F8343F7A
:1017900043F04043C4F8343FFFF70EFFFFF740FB30
:1017A000FFF7EAFE284603B030BD00BF71C20F410B
:1017B00070C20F4100E400E0280200202C0200204B
:1017C00004000020154B1A461B688342FBD3516866
:1017D00002EB010C604509D0416800EB010C634548
:1017E00009D00360904218BF106070474068014400
:1017F00051601046F0E710B4094C2468A3420BD0A6
:101800005B681944416013681B680360904218BF0D
:1018100010605DF8044B70470460F7E74842002011
:1018200030020020F8B50446FFF730F9464B1B683C
:10183000D3B1464B1D68254240F08180631E13F1F1
:101840000A0F7CD804F1080214F0070F05D022F02B
:1018500007030833934272D91A463D4B1E689642DD
:101860006DD33C490C6827E03B4A12F0070F1ED0AD
:10187000D11D21F0070102F580435B1A0A46354865
:101880000260002141601344083B23F007032E4807
:10189000036059601960991A516013602F4B1960E9
:1018A0002B4B1960294B4FF000421A60C1E74FF4EF
:1018B0008043E4E721461C466368934202D22368D2
:1018C000002BF7D1204B1B68A34238D00F68083794
:1018D00023680B6063689B1A102B10D9A01810F0B6
:1018E000070F08D04FF0500383F31188BFF36F8FB9
:1018F000BFF34F8FFEE743606260FFF763FF6368EB
:10190000F61A134A1660154A126896423CBF134AEB
:1019100016602B43636000232360114A1368013370
:101920001360FFF79BF917F0070F0BD04FF0500330
:1019300083F31188BFF36F8FBFF34F8FFEE7FFF77D
:101940008DF900273846F8BD3002002034420020CF
:101950003842002048420020340200203C4200204F
:1019600040420020002833D010B5044650F8043C13
:10197000184A1268134208D14FF0500383F31188BC
:10198000BFF36F8FBFF34F8FFEE750F8081C41B1D4
:101990004FF0500383F31188BFF36F8FBFF34F8F66
:1019A000FEE723EA020340F8043CFFF76FF80A4A17
:1019B00054F8043C11680B441360A4F10800FFF7CD
:1019C00001FF064A136801331360FFF747F910BDA2
:1019D000704700BF344200203842002044420020BB
:1019E00008B54FF416742046FFF7F4F9FBE710B47E
:1019F000046891FAA1F3B3FA83F35B004FF0030C90
:101A00000CFA03F324EA030391FAA1F1B1FA81F18C
:101A1000490002FA01F1194301605DF8044B704777
:101A200010B4846891FAA1F3B3FA83F35B004FF02A
:101A3000030C0CFA03F324EA030391FAA1F1B1FABF
:101A400081F1490002FA01F1194381605DF8044B0C
:101A5000704710B4C46891FAA1F3B3FA83F35B0042
:101A60004FF0030C0CFA03F324EA030391FAA1F1FB
:101A7000B1FA81F1490002FA01F11943C1605DF840
:101A8000044B7047F8B504460D4617461E46012222
:101A9000FFF7ADFF636823EA050363603A46294612
:101AA0002046FFF7D6FF324629462046FFF7B8FF0B
:101AB000F8BD4FF0500383F31188BFF36F8FBFF36E
:101AC0004F8FFEE7034B0360034B0B604FF48073B3
:101AD000136070475446002054420020034B0360BB
:101AE000034B0B604FF4807313607047BC4A0020B7
:101AF000BC46002080B582B000F04CF9704B0193D9
:101B00000123009300234FF480726E496E48FEF764
:101B10003CFFFEF76DFF002383F313886B4B4CF6FD
:101B2000CC421A6045F255521A6040F6FF729A6034
:101B300002225A601A46D368002BFCD1634B4AF646
:101B4000AA221A606249CA6822F4E0621204120CE6
:101B5000604B1343CB60032300224FF480714FF09E
:101B60009040FFF78FFF5C4C00231A464FF4007142
:101B70002046FFF787FF4FF40078C4F81880002351
:101B80001A4610214FF09040FFF77CFF4FF0904530
:101B90001023AB62514E00231A4608213046FFF74E
:101BA00071FF0827B762DFF83C9100231A464FF413
:101BB00000514846FFF766FF4FF40056C9F8186019
:101BC00000231A464FF480512846FFF75BFF00239D
:101BD0001A4602212046FFF755FF00231A464FF40C
:101BE00080712046FFF74EFF00231A464FF48061B4
:101BF0002846FFF747FF00231A464FF4805120463E
:101C0000FFF740FF00231A4641462846FFF73AFFF8
:101C100000231A464FF400612846FFF733FF0122E4
:101C200031462046FFF7E3FE636823F40053636008
:101C3000002231462046FFF70CFF002231462046A5
:101C4000FFF7EEFE01224FF480412046FFF7CFFE62
:101C5000636823F48043636000224FF48041204690
:101C6000FFF7F7FE00224FF480412046FFF7D8FE31
:101C7000002239462046FFF7BAFE002239462046A8
:101C8000FFF7E7FE012240212046FFF7B0FE0022C9
:101C900040212046FFF7DDFE002240212046FFF7CD
:101CA000BFFE4023A3620E4B1A8842F080021A80C6
:101CB0001A8842F040021A804FF48073A361FEE755
:101CC000244B0020F41E0008E119000800300040F9
:101CD00000ED00E00003FA0500040048001C004885
:101CE000504200200008004838B5264A136823F007
:101CF000070343F002031360136803F00703022B8A
:101D000000D0FEE7204A136823F4C06343F4007355
:101D1000136002F5D032136843F480331360136804
:101D200023F0F00343F040031360136813F4003F03
:101D3000FBD0164B1A6842F400221A609A6822F00F
:101D4000030242F002029A609A6822F0F0029A605E
:101D50009A6822F4E0629A609A6822F460529A606B
:101D60000B4D284600F038F84FF0E024236943F08B
:101D700004032361284600F03FF8236943F002037F
:101D8000236138BD00200240007000400010024076
:101D9000006CDC0200B583B0FFF7A6FF0D4BDA6CD8
:101DA0004FF0FF32DA64DA6C0192019A9A6D42F0D8
:101DB00080529A659A6D02F080520092009A9A6859
:101DC00022F400429A601A6842F008021A6003B0D6
:101DD0005DF804FB00100240064BA3FB00239B09A7
:101DE000013B4FF0E022536100239361052313610F
:101DF000704700BFD34D6210014B1860704700BFA1
:101E000008000020DFF830D0002103E00B4B5B58C6
:101E1000435004310A480B4B42189A42F6D30A4AFF
:101E200002E0002342F8043B084B9A42F9D300F049
:101E30000FF8FFF75FFEFEE700A00020081F000874
:101E4000000000200C0000200C000020284B002087
:101E500070B50D4D0D4C641BA4100026A64209D18F
:101E60000B4D0C4C00F02EF8641BA4100026A6426B
:101E700005D170BD55F8043B98470136EEE755F89B
:101E8000043B98470136F2E7001F0008001F0008D6
:101E9000001F0008041F00080A44914200F1FF33AC
:101EA00000D1704710B511F8014B03F8014F914272
:101EB000F9D110BD02440346934200D1704703F8A4
:101EC000011BF9E7F8B500BFF8BC08BC9E46704797
:0C1ED000F8B500BFF8BC08BC9E46704787
:101EDC0049444C4500000000546D72510000000054
:101EEC00546D722053766300746573745F74617300
:041EFC006B00000077
:041F000025000008B0
:041F040001000008D0
:0C1F080004000000AAAAAAAA00093D00DB
:0400000508001E05CC
:00000001FF
