:020000040800F2
:10000000F89B0020D90C0008FD0A0008FD0A000832
:10001000FD0A0008FD0A0008FD0A0008FD0A0008A4
:10002000FD0A0008FD0A0008FD0A0008FD0A000894
:10003000FD0A0008FD0A0008FD0A0008D90A0008A8
:10004000D90A0008D90A0008D90A0008D90A000804
:10005000D90A0008D90A0008D90A0008D90A0008F4
:10006000D90A0008D90A0008D90A0008D90A0008E4
:10007000D90A0008D90A0008D90A0008D90A0008D4
:10008000D90A0008D90A0008D90A0008D90A0008C4
:10009000D90A0008D90A0008D90A0008D90A0008B4
:1000A000D90A0008D90A0008D90A0008D90A0008A4
:1000B000D90A0008D90A0008D90A0008D90A000894
:1000C000D90A0008D90A0008D90A0008D90A000884
:1000D000D90A0008D90A0008D90A0008D90A000874
:1000E000D90A0008D90A000800000000000000003A
:1000F0000000000000000000000000000000000000
:1001000000000000000000000000000000000000EF
:100110000000000000000000D90A000800000000F4
:10012000D90A0008D90A0008D90A0008D90A000823
:10013000D90A0008000000000000000000000000D4
:10014000D90A0008D90A0008D90A0008D90A000803
:10015000D90A0008D90A0008D90A0008D90A0008F3
:10016000D90A0008D90A00080000000000000000B9
:1001700000000000D90A0008000000000000000094
:10018000D90A0008D90A0008D90A000800000000AE
:10019000000000000000000000000000000000005F
:1001A000000000000000000000000000000000004F
:1001B000000000000000000000000000000000003F
:1001C0002D93031B97B3AA6E8996D5991944D6CA65
:1001D00007F5138D7A427600D9EA4E3CAE2683703D
:1001E000770AA5F8C3EB927B341DE76F3E59CE33F7
:1001F000272B5EFA9EB469E5DB9D111E56B7AC58FD
:100200003D4965222A4004F7D1AFC22EE21509D735
:10021000B9EE0E453FF3531647B15A67DCE9685C07
:1002200094FB29013A0FAD02CF9FC760F950A43566
:10023000EDE3F2B6864637ABF6D8D41FBC3244D6CF
:10024000060010F00D0B0008110C00080000000063
:10025000000000000000000000000000190B000872
:1002600045070008ED070008610800088D07000831
:100270000000000000000000FD0A0008351400081E
:10028000A90C0008B50C000800000000CD0C000807
:10029000310B0008250B000881180008191D000803
:1002A0000D170008511A0008891B00080000000003
:1002B000000000000000000000000000000000003E
:1002C000000000000000000000000000000000002E
:1002D000000000000000000000000000000000001E
:1002E000010000000080010000200000000000006C
:1002F00000000000000000000000000000000000FE
:10030000124910B44CF2FB340C61440719D1104C63
:10031000844216D80F4C8C6004F188348C60012420
:100320004C61C0E900230B69DB03FCD44B695DF829
:10033000044B43F000434B6108694CF2FA32104021
:10034000704701205DF8044B704700BF0020024059
:10035000FF2700002301674570B41C4C4CF2FB33AF
:100360004507236129D11A4B834226D8194BA36034
:1003700003F18833A360012363619AB14FF0FF3624
:10038000012A1DD00B46083053F8085B40F8085C82
:10039000496840F8041C023A19462369DB03FCD47F
:1003A000002AEDD1094B5A6942F000425A6118699E
:1003B0004CF2FA31084070BC7047012070BC7047A5
:1003C0000B680022C0E90036E7E700BF00200240CA
:1003D000FF27000023016745C0F30A03002B36D135
:1003E0001C4B834233D81C4BB3F8E0309B02B3F173
:1003F000021F10B4C0F3CF220BD31849096A890237
:1004000007D5B0EB530F04D3A2EB133202F5807281
:1004100092B2124B12481349D20042F002024CF23F
:10042000FB341C61986099605A615A6942F48032C9
:100430005A611A69D203FCD45A695DF8044B42F040
:1004400000425A6118694CF2FA31084070470120A5
:10045000704700BFFF2700000075FF1F002002400B
:0804600023016745AB89EFCDD4
:100468002DE977479A461D4B904601284AF6AA225D
:1004780089461A602FD84FF09043102201A99A623A
:10048800032003F041F80646C9F3074003F03CF89F
:10049800304486B2C9F3072003F036F8304485B2F9
:1004A8005FFA89F003F030F8284484B24146C24428
:1004B800514509D14FF090431022B4FA84F09A6163
:1004C800400903B0BDE87087AA2003F01DF8204456
:1004D80084B20131ECE70020F3E700BF00300040B0
:1004E800024B4AF6AA221A60704700BF003000404B
:1004F8000C4A936843F4805393600B4B4CF6CC4200
:100508001A6045F255521A6007225A60DA68D10714
:10051800FCD4C4229A60DA689207FCD44AF6AA226C
:100528001A607047002004E000300040012383F384
:1005380013887047002383F313887047002070479F
:100548000F2810B50FD1094B18794FF090424FF48E
:10055800004120B1013818719161002010BD5C790B
:100568001C719162FAE70120F8E700BF0000002043
:100578004FF0FF3070472DE97841464B464CC82272
:100588005A71464B4AF6AA221A6023689A0705460A
:1005980006D4236843F00103236023689B07FCD536
:1005A8000026A66022683E4BDFF8088113402360CE
:1005B800236823F480232360A661236843F008039B
:1005C8002360236823F0F00343F0800323604FF097
:1005D800E0234FF0FF301A699E6149F640425A61A4
:1005E8001A6942F004021A611A6942F002021A6199
:1005F8001A6942F001021A6102F044FE4FF4004108
:1006080032464FF090400AF06FF9002D3CD104F0CB
:1006180043FC236E23F480532366236C43F48053F6
:100628002364236C23F480532364236E43F48053A0
:1006380023661C4B1C4C4FF447721A604FF48252CD
:100648005A601A6842F040021A604FF400512A4674
:1006580020460AF049F94FF40053A362134B0122D4
:10066800C3F8E02010212A464FF090400AF03CF9E8
:100678004FF0904310229A610D48D8F8443029462B
:1006880098470020BDE87881D8F81C303146012011
:100698009847F6E7000000200010024000300040B4
:1006A800FFF4F6FE0030014000080048C0010020B9
:1006B80069040008400200084FF0E02311490022B5
:1006C8001A610B6823F040030B604FF09043102130
:1006D80099620D494FF4005088610C49C1F8E02037
:1006E8004FF400429A6102F1804202F5C832136861
:1006F80043F008031360136823F0F00343F060032A
:10070800136070470030014000080048C001002015
:100718000A28084B03D0102808D0012808D10A223B
:100728005A71054B4AF6AA221A6070471E22F7E74B
:100738006422F5E7000000200030004070B50A4C44
:100748000A4D0B4A0B4E2046294600F0BFF80A4BCB
:100758000A480B4A611B012408440A441C733144AB
:10076800C3E90002996070BD000000200003000882
:1007780040010000D90300084001002001030008DF
:10078800590300082DE9F0410F4E337B054623B18C
:10079800B1682846BDE8F04108470C4F0C4C0D4A9B
:1007A8003946204600F092F80B4B0C48E11B0B44ED
:1007B80033600B4B01220B440144C6E9013132730B
:1007C8002846BDE8F0410847400100200003000822
:1007D800000000204001000001030008D9030008C0
:1007E800590300082DE9F041144E317B82B00446CC
:1007F800154631B131682A46204602B0BDE8F041BD
:100808000847DFF850800E4F0E4A0193414638469C
:1008180000F05CF80C4A0D49019BA7EB0800024464
:1008280072600B4A014410440122B06032732046C2
:100838002A46316002B0BDE8F04108474001002077
:1008480000000020400100005903000801030008CF
:10085800D9030008000300082DE9F047144F3B7B3B
:1008680004460D46164633B17B6832462946204673
:10087800BDE8F0471847DFF84C90DFF84C800D4A88
:100888004946404600F022F80B4B0C48A8EB0901FA
:100898000B443B600A4B01220B440144B9603A7394
:1008A8007B60324629462046BDE8F047184700BF1E
:1008B800400100204001000001030008D90300089E
:1008C8005903000800030008000000203AB101386D
:1008D8000A4411F8013B00F8013F9142F9D17047F1
:1008E80083072CD0531E12B92BE0013B1ED300F80E
:1008F800011B8207F9D10A0442EA01620A43032B69
:1009080042EA012219D9A3F1040C2CF0030C0CF1D2
:10091800040C844440F8042B8445FBD103F0030302
:100928001BB11A4660460CF00BBD70470A0442EA38
:1009380001620A4342EA0122E5E78446F0E71346EA
:10094800D9E70A0642EA01420A4342EA01224FF085
:10095800FF33D8E7024405E010F801CB11F8013B5A
:100968009C4503D19042F7D1002070470120704781
:10097800CAB110B451F8043B50F8044B9C4202F140
:10098800FF3208D15AB150F8044B51F8043B9C424D
:1009980002F1FF32F6D001205DF8044B7047104693
:1009A8005DF8044B70471046704700BF82B002786C
:1009B80043788DF804208DF80530BDF8040002B0A6
:1009C800704700BF00687047C1F307230170437088
:1009D800704700BF0160704710B40C4C0438002108
:1009E8000A46082312F0010F03F1FF3314BF84EA0B
:1009F8005202520813F0FF03F4D10131B1F5807FA0
:100A080040F8042FECD15DF8044B70472083B8ED13
:100A1800844662B10A44184611F8013B4340DBB2F0
:100A280091425CF8233083EA1020F5D170471846CC
:100A3800704700BFCB1C03F0FC03043B4FF0FF32B0
:100A48005BB202FA01F1002B20EA01010FDB10B4BE
:100A5800084C002001F00F02043B42405BB2002B1F
:100A6800A05C4FEA1111F5DA5DF8044B70470020DD
:100A7800704700BFF027000801F00702531EDBB2E1
:100A88005AB10122013BDBB25200FF2BD2B2F9D19D
:100A9800C908435C1A43425470470122F8E700BF73
:100AA80001F00702531EDBB26AB10122013BDBB23F
:100AB8005200FF2BD2B2F9D1C908435C1A4214BFC5
:100AC8000120002070470122F6E700BF0000000067
:100AD80008B54FF0E023D3F8040DC0B2FFF730FD9E
:100AE80018B1024B024ADA60FEE708BD00ED00E0EB
:100AF8000400FA05014B024ADA60FEE700ED00E067
:100B08000400FA05014B587D704700BF40010020E2
:100B1800014B58731961704740010020014B187D43
:100B2800704700BF40010020014B5867704700BF65
:100B3800400100200E4838B5D0E906540D4BB4F1F9
:100B4800FF3F08BF9D4205D007A3D3E90023183013
:100B5800FFF748FE074BB4F1FF3F08BF9D420CBFAB
:100B68000120002038BD00BF99DD55AAFFFFFFFF17
:100B78000028000899DD55AA0F4838B5D0E90C546B
:100B88000E4BB4F1FF3F08BF9D4205D008A3D3E93F
:100B980000233030FFF726FE084BB4F1FF3F08BFB3
:100BA8009D420CBF0120002038BD00BFAFF300807C
:100BB800F56ECB99FFFFFFFF00280008F56ECB9973
:100BC8000F4838B5D0E908540E4BB4F1FF3F08BFC1
:100BD8009D4205D008A3D3E900232030FFF702FE89
:100BE800084BB4F1FF3F08BF9D420CBF0120002015
:100BF80038BD00BFAFF300803322CDABFFFFFFFF4E
:100C0800002800083322CDAB054B064AD3E9081368
:100C1800B3F1FF3F08BF91420CBF0120002070478D
:100C2800002800083322CDAB0F4838B5D0E90A5464
:100C38000E4BB4F1FF3F08BF9D4205D008A3D3E98E
:100C480000232830FFF7CEFD084BB4F1FF3F08BF63
:100C58009D420CBF0120002038BD00BFAFF30080CB
:100C680045A0F8DEFFFFFFFF0028000845A0F8DEDA
:100C7800044B1A7D1AB99B6C03B118477047FFF7EC
:100C880055BC00BF40010020044B1A7D1AB9DB6C2B
:100C980003B118477047FFF74DBC00BF4001002063
:100CA800014BC3E91201704740010020014BC3E921
:100CB8001401704740010020014B9865704700BF40
:100CC80040010020014BD865704700BF400100205B
:100CD8002DE9F04FAE4AD2F8883043F47003BDB026
:100CE800C2F88830BFF34F8FBFF36F8FDFF8A4B21D
:100CF800A94CFFF7FDFBA84878220021FFF7F0FD7B
:100D08000120DBE90A132075A44A0020E0754FF0A2
:100D1800FF34A34208BF914200F0A581DBE9061326
:100D28009F4AA34208BF914240F099819D4B059389
:100D3800994C9D48022340F60C420021E375FFF7C9
:100D4800CFFD9A48FFF748FE0020FFF714FC051E68
:100D5800C0F2688240F05A828F4B1C6D002C00F064
:100D68004682042307AA29460120A047012840F00B
:100D78003E82079B013300F059828D48FFF722FE1F
:100D8800824600283FD08B4BDFF82C92029508331F
:100D98004FF005082C462F46049321460AA800F078
:100DA800CDFD80B2002800F01E81A0F108039BB29F
:100DB80001340B9EA4B21F44002D40F00B81B145B5
:100DC8007E4A55D399199142C0F01581A9EB0601C5
:100DD800002D40F01F810AAB08311944082208A8E9
:100DE800FFF774FD029B0833DBB20293029B082BCA
:100DF80000F084800025BA4502D9B8F1000FCCD1A3
:100E0800032D00F0D081DBE908136D4AB3F1FF3FF1
:100E180008BF914200F0A4815F4B1B7D002B40F07E
:100E28006D815D4B9B6C03B198472220FFF770FCE6
:100E3800644B5848DB6A9847574A137D002B40F0AB
:100E48005A81D36C03B19847FFF736FC524A002306
:100E58001375D37571B64E4B059A9A60136883F370
:100E6800088883F3098853689F463DB0BDE8F08F32
:100E7800B24264D30132921B002D00F0E280032AB3
:100E8800039340F2D8800AAB043A98180021042250
:100E9800FFF726FD039B012D69D0022D28D11A46A4
:100EA8000AA9304600F0BAFEBA4500F0BD80002815
:100EB800A1D1394B1B7D002B40F0A281364B9B6C96
:100EC80003B198472320FFF723FC2FA3D3E900237E
:100ED8003D48FFF787FC304B1B7D002B40F093818A
:100EE8002D4BDB6C03B19847294B384ADA60FEE793
:100EF800002D80D1029B082B7FF47CAF2D48042263
:100F080009A9FFF7E3FC09A804220021FFF7E8FC80
:100F180008A9284ACDF800900423084601F066F88D
:100F28000C20FFF7F5FB204A4FF0FF3393600125B3
:100F380000273C46B8F1000F7FF42FAF60E79919FE
:100F48008945A8D28A42A6D3A1EB0902002D59D01F
:100F5800042AA0D91E4803931844401A0AAB18441F
:100F6800043A0021FFF7BCFC012D039B95D10E4EDE
:100F780004981A460AA9B368FFF74AFDBA4500F073
:100F88009580B06037E700BF45A0F8DEFFFFFFFFA0
:100F980000ED00E0002800084001002045A0F8DE30
:100FA80099DD55AA00300008000800200C08002030
:100FB800042800080408002000340008073400084A
:100FC8003322CDAB40020008282800080400FA05A7
:100FD80004340008A24A00960AA90CA8039301F059
:100FE80005F8039BEBE6162008F1FF38FFF790FBA6
:100FF8005FFA88F8FFE68945BFF44DAFA1EB090217
:10100800002DA5D1974803920344591A0AAB1944F5
:1010180008A81CE0039304310AAB581804220021E5
:10102800FFF75EFC039B36E7012800F0B480002838
:101038007FF4E9AE3DE700210AA8FFF751FC039BC6
:1010480029E7A6EB090008AB184403920CA9FFF79F
:101058003DFCDDE902321344DBB20293C6E6FFF73A
:101068006DFA002834D0804B0593804A0123D3754C
:1010780040F60C4200217E48FFF732FC7D48FFF71E
:10108800ABFC0120FFF777FA0028C0F23D8100F0A1
:101098002181DBE90813784AB3F1FF3F08BF914289
:1010A80040F02681754B764ADA60FEE7704BC44300
:1010B8009C607448FFF786FC844222D0142008F113
:1010C800FF380025FFF724FB5FFA88F802952FE721
:1010D800DBE90813684AA34208BF9142624B0593B3
:1010E80003D01B6801337FF4B1AE674B1B68002B3C
:1010F8007FF41EAEB9E7FFF71DFAA5E6FFF716FA6B
:1011080093E66249042208A8FFF724FC0028D5D1F9
:1011180056490A7D4FF0FF338B61002A61D1534A4B
:10112800926C002A00F089809047DBE90823524935
:10113800B3F1FF3F08BF8A4205D045A3D3E9002396
:101148005348FFF74FFB494B1B7D002B72D1474B90
:10115800DB6C03B198471020FFF7DAFA0225E7E6BF
:10116800424B1B7D002B36D1404B9B6C03B19847FB
:101178002320FFF7CDFA38A3D3E900234548FFF72A
:1011880031FB3A4B1B7D4BBB384BDB6C002B3FF4E0
:101198006FAF98476CE700221146304600F03EFDDD
:1011A80000283FF486AE314B1B7DEBB92F4B9B6C6F
:1011B80003B19847384B3948DB6A98472B4B1B7D5E
:1011C800002B40F08480294BDB6C03B1984720202A
:1011D800FFF79EFA38E6FFF7A9F9C9E7FFF7AAF97A
:1011E80046E7FFF7A3F9A0E7FFF7A0F9E2E7162023
:1011F800FFF78EFAFFF760FA204B214ADA60FEE724
:10120800FFF794F95EE6FFF795F96DE6DBE9081359
:10121800194AB3F1FF3F08BF914241D1174B184A11
:10122800DA60FEE7154B164ADA60FEE71220FFF790
:101238006FFADFE7FFF77EF98DE7DBE908120E4862
:101248009A4208BF814282D077E700BFAFF300809F
:101258003322CDABFFFFFFFF45A0F8DEFFFFFFFF06
:10126800040800200834000800300008400100206D
:10127800000800200C0800203322CDAB00ED00E070
:101288000400FA0500280008E00200080828000801
:101298002028000828280008400200080028000824
:1012A8001B4B1B7D002B2CD1194B9B6C03B1984712
:1012B800184B1948DB6A9847154B1B7D002B7FF4A8
:1012C8001AAF134BDB6C002B7FF4BDADBCE5FFF709
:1012D80031F97CE7FFF74CF90028FBD0DBE908136C
:1012E8000E4AB3F1FF3F08BF91427FF4ADAD81E7ED
:1012F800FFF7BEFC074B0848DB6A9847FFF7C4FCBA
:10130800A2E5FFF713F9D3E7054B064ADA60FEE7D3
:101318004001002040020008002800083322CDAB1D
:1013280000ED00E00400FA050378062B10D1094B04
:10133800D0F801201A66427983F86420827983F80C
:10134800652009390730986683F8671000207047D0
:101358000220704740010020054B1A6F4FF0070C20
:10136800012183F865C083F86C101070704700BFC6
:101378004001002041B3013930B5441E10FA81F50F
:1013880048F2050E002014F8012F08230BE01FFA7D
:101398008CF0110648BF40F00100013B520013F0E9
:1013A800FF0392B20DD04FEA400C10F4004F1FFA21
:1013B8008CF1ECD0100648BF41F0010181EA0E0023
:1013C800EBE7AC42DFD130BD0846704738B506229E
:1013D800154B02701A6E42701A6E120A8270B3F8B8
:1013E8006220C27093F86320027193F864204271FE
:1013F80093F86520827193F86C3003F10905DA1DC2
:101408000833D2B2DBB200218154C154E9B20D468F
:101418000446FFF7AFFF2C44030A04F8010C04F854
:10142800023C284638BD00BF400100202DE9F047A6
:1014380008294FF0000482B01C701AD91E460746CE
:1014480090460D46FFF770FF044600283FD1DFF8AD
:101458006C91D9F860305A1C10D099F80DA0BAF1E7
:10146800000F28D163B1D9F81020934208D0062480
:1014780000E00424204602B0BDE8F0874FF0010ADE
:1014880029463846FFF776FFE0B999F96430002B12
:10149800F0DB99F8650008F10702411EC9F87020D1
:1014A8000C2919D8DFE801F0791818181818181835
:1014B8006F655B513E00824629463846FFF75AFF62
:1014C8000028E2D00124204602B0BDE8F0870224BB
:1014D800204602B0BDE8F087D9F85C50002D61D0F5
:1014E8001346354A0092D9F8681099F86720A8473A
:1014F80040B1D9F870200723012189F8653089F8AF
:101508006C101370BAF1000FB4D1D9F81030C9F8C3
:1015180060304046802389F86430FFF757FF54460F
:101528003070A7E7244B99F86710D9F8680000F0E5
:1015380027FB0028E6D00722D9F8703089F8652003
:10154800012289F86C201870DCE71B4B99F86710AA
:10155800D9F8680000F078FA0028D3D0EBE7164BEA
:1015680099F86710D9F8680000F0CCF80028C9D0BD
:10157800E1E7114B99F86710D9F8680000F0C8FB4B
:101588000028BFD0D7E70C4B99F86710D9F8680046
:1015980000F072F90028B5D0CDE70749104600F0F1
:1015A8000FF8AFE7072389F86530012389F86C3015
:1015B800032388F80730A5E7AC010020400100208C
:1015C80008B5042205230B7000F8012B0249FFF728
:1015D8007DF9002008BD00BF60E90008154B9B6835
:1015E8009B08013B99421DD8F0B5134E0546706D16
:1015F80083B0A8B1706F98B10C46A3001C2128686D
:101608000193FFF717FAEB78776D60F30713EB7028
:1016180004232A460DEB03010120B84720B100201E
:1016280003B0F0BD00207047706F2146FFF724FA21
:101638000120F5E7E00200084001002008B5064B4C
:101648005B6F3BB101461846FFF72AFA003818BF0E
:10165800012008BD184608BD4001002010B5084B00
:1016680082B01C6D4FF0FF3301932CB1042381002D
:101678000DEB03020120A047019802B010BD00BF86
:10168800400100202DE9F84380460F4616461D46C6
:10169800FFF798F918B900242046BDE8F88308F147
:1016A8000C00FFF78FF90028F5D008F10800FFF7C4
:1016B80089F90028EFD008F110084046FFF782F9B1
:1016C800A842E8D9002EE6D0DFF8349000240FE0D5
:1016D800D9F8740010B1FFF7E3F928B9384629465C
:1016E800FFF778F901340437B44205F10105D3D284
:1016F8004046FFF767F9A842A9B2E9D2CCE700BF94
:10170800400100202DE9F843DFF8788000251D709E
:101718001C4698F81730012B17461BD0022B02D015
:101728000120BDE8F8830646FFF74CF90246301D54
:101738001646FFF747F9D8F8241081463846FFF7D0
:1017480049F904232370D8F824000028E9D056B9B1
:101758003046E6E710462946FFF73CF90423237094
:101768002846BDE8F8834B463246391D08F11C006F
:10177800FFF788FF2378024603EB8203284623708D
:10178800CFE700BF40010020044B0020C3E9090057
:1017980083F84400D861D86218627047400100207D
:1017A800F0B5314D6E6D002485B00746AC75BEB1FD
:1017B8004FF6FF73224621460120B04780B16D6F76
:1017C800002D3CD0294B9A68284621465209FFF73C
:1017D80087F8FFF74DFAFFF757FA204605B0F0BD36
:1017E800686F28B1214B9A6800215209FFF778F8F1
:1017F800FFF73EFAEFB11E48FEF7C4FF0F2204467A
:1018080039466846FFF762F80122FF210DF10F0003
:10181800FFF766F8164804226946FFF71DF82018F6
:1018280015D0B0FA80F4FFF72FFA6409204605B006
:10183800F0BDFFF729FA0124204605B0F0BDFFF7F7
:1018480017FAFFF721FA2C46204605B0F0BD04A38D
:10185800D3E900230748FEF7C5FFE2E7AFF30080AE
:1018680033CC88AAFFFFFFFF40010020E0020008F8
:1018780000280008102800082DE9F0411D46002323
:1018880004462B700D300E461746FFF78FF8C82810
:1018980021D8237B012B17D00F2E1CD1224EF37D8C
:1018A8004BB996F81480B8F1000F39D11F4B1B685B
:1018B8001BB30223F3752046FFF772FF80B94FF080
:1018C80004084046BDE8F081201DFFF77BF8174B60
:1018D8005B689842E0D94FF002084046BDE8F081C5
:1018E80000234FF0040886F84430C6E90933F36151
:1018F800F36233624046BDE8F081FFF7B9F90C4B5B
:101908000C48DB6A9847FFF7BFF901237375B36D7D
:10191800002BE2D03846294698474046BDE8F0817A
:101928000123F375C7E700BF40010020E00200086B
:10193800400200080028000800207047F0B5144F46
:1019480083B03C6D4FF0FF33054601932CB104235F
:1019580089000DEB03020120A047019E202130469B
:10196800FFF768F888B9C6F30754A4F10903DBB296
:10197800BF2B0AD83F6D2FB12A46C6F31301234661
:10198800B84710B1204603B0F0BD002003B0F0BD49
:10199800400100202DE9F0430023284F0360BB6A73
:1019A800AFB02BB94FF0000840462FB0BDE8F08328
:1019B800064623483C6AFFF705F88442F2D197F8B7
:1019C8004480B8F1000F0AD1FB7D022B09D04546AF
:1019D8004FF00108404635602FB0BDE8F0833D6CFC
:1019E800F6E7184CC1464FF0FF35494601A8FFF706
:1019F800A5FF0028D8D0082813D001AB191803A8D0
:101A080010F8013B6B400822DBB213F0010F14BF42
:101A180084EA53035B08013AF7D1884283EA152523
:101A2800EED1FEF75DFDFB6A09F101094B45DCD2F9
:101A3800ED43012387F844303D64C9E740010020A5
:101A4800042800082083B8ED70B50021254E1970D0
:101A58001D46F37D013B012B82B002D9012002B063
:101A680070BD01A814460191FFF794FF80B3019956
:101A780004F10800FEF7AEFF316A2046FEF7AAFF20
:101A88001948FEF79FFF0146201DFEF7A3FF1749DF
:101A9800052204F10C00FEF719FF04F1110096F875
:101AA8004510FEF797FF2046FEF78CFF98B90146D0
:101AB80004F11400FEF78EFF0D4B04F11200B3F889
:101AC8000D10FEF781FF182300202B7002B070BDA7
:101AD80001900146CCE7F16A04F114000131FEF7E8
:101AE80079FFE9E7400100200428000808280008D9
:101AF8000028000870B5FFF7BBF81E4D1E4BA869FB
:101B0800DE6AB047032430B1A869B047631E13F0FA
:101B1800FF04F8D198B91949A869184E4FF4007212
:101B2800FEF79AFE04244FF40072314670B1A8699A
:101B3800FEF792FE631E13F0FF04F4D130B1FFF7F5
:101B4800A3F81820FEF7E4FD002070BDFFF79CF80D
:101B58000A49A8694FF40072FEF70AFF20B90A2063
:101B6800FEF7D6FD012070BD1A20FEF7D1FD00203A
:101B780070BD00BF40010020400200080C0C00208E
:101B880070B500221F4C1A70E37D0BB9012070BD9F
:101B98001D48256AFEF716FF8542F7D1E37D022B23
:101BA80016D01A4D1A4B28469E68FEF70BFF864240
:101BB800ECD1A36901331DD1FFF75AF8154B16482C
:101BC800DB6A9847FFF760F80520FEF7A1FD0BE0F8
:101BD8000E4DFFF74DF82B7B012B10D0FEF7CCFFF5
:101BE8000123A375FFF750F82B7B012B08BF637502
:101BF800002070BDFFF77EFF0128E5D1DCE7FEF786
:101C080099FFEFE740010020042800080028000899
:101C18000008002040020008002800082DE9F047CD
:101C2800DFF8E89020F4FF65D9F8183025F00705AB
:101C3800AB4204460E46174641D0013327D100294E
:101C480043D030484FF400622946FEF73FFEC9F8FA
:101C580018503B1905F2FF7293424FF0010822D940
:101C6800A5EB040A04F20C400AF5006A264C1FFA98
:101C78008AFA401B204452463146FEF727FEFFF7FA
:101C880039FF0128804625D04046BDE8F087FFF798
:101C980031FF8046002EF7D00128D2D03B1905F23B
:101CA800FF729342DCD804F20C441748651B2844A1
:101CB8003A463146FEF70AFE4046BDE8F08700295D
:101CC800C7D1BDE8F047FFF715BF4FF00108404600
:101CD800BDE8F087A7EB0A07BFB206EB0A013A4650
:101CE80004F20C40FEF7F2FD05F5006507F20C4022
:101CF8002044C7F500627919FEF7E8FDC9F81850C5
:101D0800C2E700BF0C0C00200008002040010020A2
:101D18002DE9F04F4FF0000985B083F800900D468B
:101D28008246FEF74FFEDFF8C0820446A648D8F880
:101D38002060FEF747FE864280F095800AF1040095
:101D4800FEF740FE98F81730A5F10806022B074663
:101D5800F6B266D0012B40F08A80D8F82830A4B2B9
:101D68009C425AD37FD8C8F82C400AF10804002BAB
:101D780040F09580002876D100900390334603AA5E
:101D88002146204600F032F9A319904813F8035C65
:101D980013F8042C2D0445EA026513F8012C13F8F6
:101DA800023C154345EA0325321F4FF0FF33214615
:101DB800FEF72EFEA84212D19AF80830E25C1C44C5
:101DC800834B1A7162785A71A2789A71E178D97145
:101DD8004FF0FF329A60C8F84020C8F81820D8F8A9
:101DE8002820D8F8203078481E440132C8F8282026
:101DF800C8F82060FEF7E6FD86420ED198F8173045
:101E0800012B0AD17248D8F84010826888F844300B
:101E1800C943D243C8F840108260002005B0BDE82D
:101E2800F08FD8F828301FFA84FB23BB5C46694B37
:101E38009B689B08013BA3422CD3674B1B7B012B60
:101E480063D0D8F85470D8F81C3002935FB152466A
:101E580006F1080302A90020B84700285AD08128B3
:101E680001D1052000E0042005B0BDE8F08F012075
:101E780005B0BDE8F08FD8F82C30A4B2A342D6D371
:101E8800D8F874000028D2D05946FEF709FE002879
:101E9800CDD0C2E7012388F845300520E4E74F4B51
:101EA800984235D3D8F84030484832462146FEF7A4
:101EB800AFFD4B4AC8F840003346009721462046FC
:101EC80000F094F8474B1A1DBA4246D3F119D81DB1
:101ED800814272D28A4248D3FEF7CAFEFEF770FEEC
:101EE800FEF7D2FE324621463846FFF797FE002815
:101EF800B9D0374D3246AB68214605F10C00FEF7E4
:101F080087FDD8F82820A8606BE7344B9F4298D209
:101F18000620A9E7DDE9022362F313030393C3F361
:101F28000F4365F30B13594603A8ADF80E30FFF7BE
:101F380055FB002897D0029B08333344C8F81C305F
:101F4800D8F82C30A34218D9D8F82420AAB1531EA7
:101F5800C8F82430D8F8282043E7D81DB8421AD248
:101F6800F1198A42B8D28842B6D3CB1A1A1FB01ACE
:101F780020440021FEF7B4FCAEE7A342D8F828209D
:101F8800BFF42FAF72B9BBF1000F0BD0C8F82440D3
:101F9800C8F82C4025E70833DA1B49462046FEF7E7
:101FA8009FFC99E7591CA142F2D2D8F824100139B4
:101FB800CB1A2344C8F82430EAE7D21BA0184946B4
:101FC8000422FEF78DFC87E7042800080C0800208F
:101FD80000080020E002000800280008003000087F
:101FE8000408002000340008400100202DE9F041D9
:101FF800069C002B4BD0404E00F1FF3EE5181EF822
:10200800010FE70748BF80F0690041385FFA84FC98
:10201800C0F34603C4F3C708C0074FEA4C074FEAAA
:10202800940048BF43F08003A8EB0C0800F0400080
:1020380007F0020783EA08033843DBB229D00138E6
:10204800C0B2013803F00107C0B25B0817B163F0F2
:102058007F03DBB2FF28F4D104F00300105C10F01A
:1020680003071ED1A0F15E07C7F34600FF0701D59D
:1020780040F080000CF07F070134F75D8CEA070C14
:1020880083EA0C034340AC4201F8013BB7D1BDE8F9
:10209800F08104F003007933105C10F00307DBB221
:1020A800E0D0012F11D0022F4FEA4007FFB215D020
:1020B800000648BF47F001077800C0B23F0648BF96
:1020C80040F001007838C0B2D4E73B30C7B278009E
:1020D8003F06C0B2CED540F00100CBE7000648BFAE
:1020E80047F001077800C0B23F0648BF40F0010042
:1020F8003138C0B2BEE700BFC001000800000000D0
:1021080000000000000000000000000000000000C7
:1021180000000000000000000000000000000000B7
:1021280000000000000000000000000000000000A7
:102138000000000000000000000000000000000097
:1027F000000306050C0F0A090B080D0E0704010261
:1028000000000000000000000000000000000000C8
:1028100000000000000000000000000000000000B8
:1028200000000000000000000000000000000000A8
:102830000000000000000000000000000000000098
:10300000F89B0020B1D20008FD7C0008617C00081C
:10301000FDD20008957C0008C97C00080000000073
:10302000000000000000000000000000FDD20008C9
:10303000FDD2000800000000FDD200081555000870
:10304000FDD20008FDD20008FDD20008755400082A
:10305000FDD20008FDD20008FDD20008FDD2000814
:10306000FDD20008D1740008FDD20008094800080C
:10307000FDD20008FDD20008FDD20008FDD20008F4
:10308000FB4B0008FDD20008FDD200080000000044
:10309000000000000000000000000000E94A0008F5
:1030A000FDD20008FDD20008FDD20008FDD20008C4
:1030B000FDD200080000000000000000FDD2000862
:1030C000FDD20008FDD20008FDD200089D5E000878
:1030D000FDD20008835F0008FDD20008FDD2000881
:1030E000FDD20008D55400080000000000000000D8
:1030F00000000000000000000000000000000000D0
:1031000000000000000000000000000000000000BF
:103110000000000000000000FDD2000800000000D8
:10312000FDD20008FDD20008FDD20008FDD2000843
:10313000FDD20008000000000000000000000000B8
:10314000FDD20008FDD20008457D0008FDD2000830
:10315000FDD20008FDD20008FDD20008FDD2000813
:10316000FDD20008FDD200080000000000000000B1
:1031700000000000FDD20008000000000000000078
:0C318000FDD20008FDD20008FDD20008BE
:1031900010B5054C237833B9044B13B10448AFF391
:1031A00000800123237010BDD00500200000000026
:1031B0005CD7000808B5034B1BB103490348AFF3C4
:1031C000008008BD00000000D40500205CD7000886
:1031D00080B485B000AF78600023FB6004E0004657
:1031E0000046FB680133FB607A6813469B001A4473
:1031F000FB689A42F3D800BF00BF1437BD465DF8A4
:10320000047B7047094B4CF6CC421A6045F255528C
:103210001A6040F6FF729A6002225A60DA68002A49
:10322000FCD14AF6AA221A60704700BF0030004065
:10323000012383F313887047002383F313887047B7
:10324000024A53780133DBB253707047C00100204B
:10325000024B002283F82820704700BFF0050020B1
:10326000024B002283F86820704700BFF005002061
:10327000054B9A6C02439A649B6C82B01840019093
:10328000019B02B0704700BF00100240054BDA6C92
:103290000243DA64DB6C82B018400190019B02B0FB
:1032A000704700BF00100240114BD3ED1D7A03F1AF
:1032B0007800C3ED2D7A00210122B0EE677AF0ECA0
:1032C000017AF5EE407AF1EE10FA03D179B183ED8F
:1032D0002D7A7047F4EEC77AF1EE10FAF6D4013287
:1032E000D2B2102A4FF00101E7D1C3ED2D7A704719
:1032F000F00500201A2828BF1A2038B506280D4DE1
:103300000D4938BF062004468C2205F1B8000AF0AA
:1033100039F8E31CDBB2043405EB8303E4B24FF469
:10332000C04205EB8404C3F8B820044BC4F8B8309D
:1033300038BD00BFF005002008DD00080060001067
:103340001A2828BF1A2038B506280D4D0D4938BF58
:10335000062004468C2205F5BC700AF013F8E31C25
:10336000DBB2043405EB8303E4B24FF4C04205EB57
:103370008404C3F87821044BC4F8783138BD00BF09
:10338000F005002008DD00080060001010F1290F92
:10339000064B03DA00229A7098787047392801DDCD
:1033A0006322F8E72A309870F6E700BFC0010020DA
:1033B000024B9A8810439880704700BFC0010020DC
:1033C0004A1C054BD2B2121A884288BF0122BE2184
:1033D000184409F0B9BF00BF2808002030B5084CD8
:1033E000084D01380A2351B1B1FBF3F203FB12116E
:1033F000294491F88C10015501381146F3D230BDA3
:103400002808002008DD0008064B0A2202FB0131D3
:10341000054A11F8013B1BB1835401300828F8D14B
:10342000704700BFA4DD000828080020054B9A6DF6
:1034300002439A659B6D82B018400190019B02B0D7
:10344000704700BF00100240064BD3E99221013AB9
:1034500041F1FF31C3E99221D3F85822013AC3F870
:1034600058227047F0050020054B9A79824288BFA8
:1034700098714FF090434FF400429A62704700BF3A
:10348000C0010020024B4FF47A7202FB00307047FB
:10349000C05570330048704700A1BC3310F4807FE2
:1034A000C2B246F66C334FF0640108BF00230248F5
:1034B00001FB0233184470475874C8330C4A4FF06C
:1034C0009040012182F80E13036903F008030361A1
:1034D000B3FA83F35B0982F80C33002382F80E33CE
:1034E00092F80D0308B182F80C1382F80D3370477F
:1034F000F0050020044BD979044B012201B108B139
:103500009A6270479A617047C00100200004004829
:103510000A4B9A689207FCD5084A18734CF250334C
:103520009068C00703D5137B0B7000207047013BE8
:103530009BB2002BF4D10120704700BF0030014046
:10354000204BDA6822F00302DA60DA6822F47C6247
:10355000DA60DA6822F40052DA601A6B000D22F4A5
:10356000F86200F4F86010439A68186322F0004291
:1035700022F03F0242F004029A601A685207FCD51A
:10358000186C00BFDA6822F0030242F00102DA6030
:10359000DA6822F47C6242F4F062DA60DA6822F4DB
:1035A0000052DA601A6B22F4F86242F4A0721A63D5
:1035B0009A6822F0004222F03F0242F010029A6024
:1035C00080B2704700000450044B1A7A120754BFAF
:1035D00093ED030A93ED040A704700BFC001002079
:1035E0000B490C4808B58B6843F480038B60FFF7E8
:1035F000A7FF094BB3F8AA3040F6B8325343B3FBE8
:10360000F0F0064B98828B6823F480038B6008BD32
:1036100000030450010000800075FF1FC00100205E
:1036200010B50D4CA38AB3F5166F01D2FFF7D8FF82
:103630000A490B488B6843F080738B60FFF780FF6B
:10364000A38A58438B6800EB4000001323F080737B
:10365000E0828B6010BD00BFC00100200003045059
:10366000000084CB38B5FFF7BBFF1C481C499FED19
:103670001D7AFFF765FF1C4A8C8AB2F8A850B2F891
:10368000CA2004FB00F340F6B830B3FBF0F364202B
:103690005B1B4343521B93FBF2F3144A14481E3343
:1036A00007EE903A9368F8EEE77A23F40003C1ED51
:1036B000047A9360FFF744FF6043031307EE903AE8
:1036C000F8EEE77AF2EE046A77EEC77A094B87EEF6
:1036D000A67A022281ED037A9A6238BD000052C7B1
:1036E000C00100200000FA430075FF1F00030450D2
:1036F0008000501D00040048244A136823F007038B
:1037000043F002031360136803F00703022B00D099
:10371000FEE71F4A136823F4C06343F40073136089
:103720001C4B1A6842F480321A601A6822F0F002C8
:1037300042F040021A601A689203FCD51A6842F4FB
:1037400000221A609A6822F0030242F002029A6094
:103750009A6822F0F0029A609A6822F4E0629A6015
:103760009A6822F460529A604FF0E0234BF67F3261
:103770005A6100229A6105221A611A6942F0040214
:103780001A611A6942F002021A6170470020024071
:10379000007000400010024008B54FF0FF30FFF706
:1037A000ABFFFFF773FD4FF08050FFF73FFE054B77
:1037B0009A6822F400429A601A6842F008021A607D
:1037C00008BD00BF00100240054B1868C0F302336B
:1037D00003EB8303C0F3032000EB4300704700BFFB
:1037E00000280040054B1868C0F3015303EB830326
:1037F000C0F3034000EB4300704700BF00280040C7
:103800000E4B10B51A68FFF7DFFF02F07F02044687
:10381000FFF7E8FF130903EB830102F00F03084AE7
:1038200003EB4103128B074901FB02333C2202FBED
:1038300004324FF4616303FB002010BD00280040F8
:10384000C00100208051010010B50B4CFFF7D8FFDC
:10385000C4F89403FFF7D4FFD4F894339842F5D119
:10386000064BD4F89423D96991423CBFD4F89423F1
:10387000DA61D4F8940310BDF0050020C0010020E7
:10388000194B9A6922F480629A61DA685107FCD573
:103890005A69120C12046FEA52226FEA42225A61EC
:1038A0009A6922F007029A619A6942F480629A61E9
:1038B0000E4B9A6812045EBF9A6842F400429A6006
:1038C000094BDA6D42F00402DA659A6942F48042EB
:1038D0009A6103F55C439A6842F480129A601A6810
:1038E00042F480121A6070470028004000700040C7
:1038F0000D4B1A6C42F080321A645A6C42F07062BE
:103900005A64DA6D42F00102DA659A6942F4805233
:103910009A6103F55C439A6842F480229A601A68BF
:1039200042F480221A607047002800404FF0904314
:10393000102208B19A6270479A6170470A4AD2E928
:10394000E63199420ED013F8011B017002F21F40BC
:10395000834202F5687194BFC2F89833C2F8981395
:103960000120704700207047F0050020154A2DE91E
:103970007041154D00244FF0FF3396464FF0140C64
:103980000CFB04E110318978C9070FD5517C8142C5
:103990000CD1D2E900182E6A761A464506D22E6A54
:1039A00041448E1B9E423CBF2B6ACB1A0134062C2D
:1039B00002F11402E4D15A1C14BF18460020BDE8DD
:1039C000708100BFE0170020C001002010B5014445
:1039D00048F20504884201D1104610BD10F8013BA1
:1039E00082EA0322082312F4004F4FEA420218BF72
:1039F0006240013B92B2F6D1ECE7074B10B193F86D
:103A000020243AB983F82004044B1A6A044B00209E
:103A10009A67704701207047F0050020C001002020
:103A2000E0170020024A938C01339384704700BF53
:103A3000C00100200144884201D11046704710F8AF
:103A4000013B5A40082312F0800F03F1FF334FEA85
:103A5000420218BF82F0310213F0FF0392B2F2D19A
:103A6000E9E710B5002207210446FFF7E3FFE379F9
:103A7000C0B2834210D17BB1206860B1237903F0DA
:103A8000F002302A07D1B4F8052003F00F0342EA10
:103A90000343034A936210BD4FF0FF30FBE700BFC2
:103AA000C0010020024A938D01339385704700BF07
:103AB000C0010020164AD18AD38D40F6B732914218
:103AC000C3F3001322D90BBB124B4CF2FB321A6129
:103AD000114A9A6002F188329A60104A02EA102074
:103AE00040F0020058615A6942F480325A611A6902
:103AF000D203FCD45A6942F000425A611A694CF26E
:103B0000FA331A420CBF0520012070470620704787
:103B1000C00100200020024023016745F8FF070094
:103B200030B51E4CE58AE38D40F6B734A542C3F3A9
:103B3000001330D9002B2ED1194B4CF2FB34450722
:103B40001C6101D0012030BD164C9C6004F188340A
:103B50009C60012492085C614FF0FF355AB9104B0C
:103B60005A6942F000425A611A694CF2FA331A4219
:103B7000E8D10520E7E70C680460012A1FBF4C6804
:103B80004460023A083012BF0831456000221C69C7
:103B9000E403FCD4E2E70620D5E700BFC001002023
:103BA000002002402301674538B50568C5F30A03C4
:103BB000044633B92846FFF77DFF052814D1E36991
:103BC0009847A2890023910899420ED8A1682846F7
:103BD000FFF7A6FF052807D1A38965601D44636927
:103BE000AB4298BF2569256038BD55F823000130E8
:103BF00008D063692A449A42226001D32369236072
:103C00000220F1E70133DFE72DE97043144E9046BF
:103C1000B56B0C468146FFF717FE04F00F0141EA31
:103C2000091428602C71A5F8058000220721284678
:103C3000FFF700FF0024E87106F130084046FFF767
:103C4000B3FF052806D1736BEA79DB799A4201D17B
:103C50001CB1FEE70134032CF0D1BDE8708300BF36
:103C6000C00100202DE978410A4DDFF82C800324A3
:103C700005F150063046FFF797FF052805D16B6D1B
:103C8000B8F80E20DB899A4201D0013CF2D1BDE8A0
:103C9000788100BFC0010020009C00202DE9704306
:103CA000002605690446B046B1466369AB4205D8B3
:103CB0008EB1C4F804800520BDE87083A36928464E
:103CC0009847431C04D081459EBFA84681460126E3
:103CD000A3891D44E9E70320EEE710B50446FFF78A
:103CE000DDFF052806D16268A38913446269236059
:103CF000934201D32369236010BDBFF34F8F054961
:103D0000054BCA6802F4E0621343CB60BFF34F8FE8
:103D100000BFFDE700ED00E00400FA050F4BD3F80B
:103D20009400D3F8942010F0005018BF0220110125
:103D3000D3F89420D3F8943048BF40F00400D20068
:103D400048BF40F008005B01054BB3F8223448BF80
:103D500040F020000BB140F080007047001002409E
:103D6000F00500200E490F4A08B58B6823F0004388
:103D700023F03F0343F002038B6093689BB290688B
:103D800083420AD0FFF708FD8B6823F0004323F03D
:103D90003F0343F001038B6008BD30BFEFE700BF76
:103DA0000000045000280040044A92F87030B3FA32
:103DB00083F35B0982F87030704700BFC0010020B8
:103DC000034B4FF4FA625A671A6A9A67704700BF4A
:103DD000C0010020114BDFED126AD3F83220D3F876
:103DE0001A00D3F8223007EE102AF3EE0A7A37EEE3
:103DF000677A07EE903AF8EE677A00F2AF10E7EED6
:103E0000267AFDEEE77A17EE903AC01A40F25E335A
:103E1000984294BF00200120704700BF009C002002
:103E2000000010C270B5134D0C46B5F87C60014619
:103E3000A0B19CB13319FE2B03DD0023A5F87C3023
:103E400070BD16B9013C0131A4B20B482246304482
:103E5000344409F097FAA5F87C40F1E7074BA5F840
:103E60007E6083F87A210023A5F87C30012385F851
:103E70008030E5E7C00100205C180020E01700203A
:103E80002DE97043DFF840800D88B8F88440B8F819
:103E900082900C4BA9EB040292B295420E46D3F8E5
:103EA0007C1128BF15462A46214409F06BFA601997
:103EB00080B28145A8F8840035808CBF00200120A5
:103EC000BDE87083E0170020C00100202DE9704399
:103ED000DFF8588098F88640B8F882900D4644B9CB
:103EE000012280F8009088F886200A802046BDE8EC
:103EF0007083B8F884400E880B4BA9EB040292B291
:103F00009642D3F87C1128BF164621443444A4B20B
:103F1000324609F037FA4C45A8F884402E8034BF69
:103F200000240124E2E700BFE0170020C0010020C8
:103F300070B5049E054600240F2D184634702DD010
:103F4000102D13D0032D03D1B1F80550B42D01D994
:103F500001240BE00C78002CFAD1D1F80110B1F556
:103F6000803FF5D32A4609F00DFA3570204670BD22
:103F700011F804E00B19BEF1030F93F801C0E7D16B
:103F8000BCF1030F9B78E3D16B430334C0F82C35AD
:103F9000E4B2A242ECD800243470E7E701484FF4C1
:103FA0007A75F6E7F005002010B50F4C0F4923682D
:103FB00023F0400323600E4B9A6B42F480529A63C5
:103FC0009A6B22F480529A63204606F003FD6368E0
:103FD00043F480536360236843F040032360054B40
:103FE000002283F8382510BD00300140480200202F
:103FF00000100240F005002008B50448012106F039
:104000007FFE034B0522C3F8B02008BD76DE000812
:10401000C001002008B50448022106F071FE034BE0
:104020000522C3F8B02008BD78DE0008C0010020DA
:104030002DE978411E4D7E23FF220C46064685F869
:104040003935FFF7F7FC30550134E4B22146002042
:1040500001234FF07D08C2B294420BD8023155FAC9
:1040600081F37E2283F83825BDE878411148C9B232
:1040700006F046BE325CA2F17D0CBCF1010F9E46FB
:1040800011D803F1010C5FFA8CF3AE4455FA8CFCA5
:10409000203A01318EF83985C9B28CF839250133BF
:1040A000DBB20130D7E705EB030C8CF83925F6E7D6
:1040B000F0050020290B0020002006F069BF2DE943
:1040C0007041002689B005463446B046B5F9042053
:1040D000B5F90030B5F906109B1AB5F90220521A4D
:1040E000524303FB032300EE103AB8EE400A09F0F6
:1040F00097F9FCEEC07A06F0FC0217EE903AC6F390
:104100008501434502F1200206F104066A4484BF9A
:104110000C469846202E42ED087A05F10805D5D1C7
:10412000062C88BF04F1FF3408AB03EB84031A4666
:1041300053F8243C52F81C0C08AA02EB84040344F4
:1041400054F8200C03440320B3FBF0F009B0BDE8A1
:1041500070812DE9734F0646884606F0B3FB0028B0
:1041600065D0364CB8F80220B8F80030B4F88611A3
:1041700013441FFA83F9B4F8882111FA83F3033347
:104180009A4259D3B4F882312344A8F1020AA3F821
:104190009091B4F882310233A4F88231043E4FF09A
:1041A000000BB4F88201B4F88851CDF804A02D1AA0
:1041B0003AF8022FADB2AA423CD9214B71682A4687
:1041C000184409F0DFF884F882B184F883B11C4BFD
:1041D000B4F88201BAF8002056F8041F521B294493
:1041E000184409F0CFF8BAF80010B4F88221019B06
:1041F0000A44551B9845A9B2A4F88251D1D1B4F80C
:104200008831B4F886215B1A012B9EBF002384F805
:10421000823184F88331B4F8803102329144013321
:10422000A4F88691A4F8803106F03AFB012002B090
:10423000BDE8708F0025CAE70020F8E7E0170020EE
:10424000701900202DE97041604C0D46012185B0A8
:1042500084F88015002837D1ADF806302B685C4C07
:10426000B3F5005F3CBF4FF400532B602B68CDE9E2
:1042700002520422ADF804209A071EBF23F0030364
:1042800008332B60D4F8BC35013310D12A68D4F838
:10429000C0359A420BD8B2F5005F08D022F47F6394
:1042A00023F00F039A421CBF03F580532B6001A932
:1042B00002A8FFF74EFF01286AD12B68C4F8C03569
:1042C000002005B0BDE87081012861D10021009176
:1042D000002A66D14FF6FF718B4262D14FF004087D
:1042E00004F5C87606F0EEFA002855D0B4F8863109
:1042F000B4F88821073393424ED8B4F8823123446E
:10430000A3F89081B4F88231B4F88851023398B29E
:104310002D1AADB2032DA4F882313BD82A46694646
:10432000304409F02FF8002384F8823184F8833177
:10433000B4F88201C5F104020DEB0501304409F027
:1043400021F8B4F88231B4F8862104335D1BB4F847
:104350008831A4F88251A9B25B1A012B9EBF0023B9
:1043600084F8823184F88331B4F880310632013325
:10437000A4F88621A4F8803106F092FA0020009B70
:1043800003F58053B3F5804F009307D20028A9D0DE
:10439000802096E70025CBE70120F0E7002890D0A9
:1043A000F6E7296803920422009102A80DEB0201AE
:1043B000CDF808D0ADF80420ADF80630FFF7C9FEFF
:1043C000012814BF802000207BE700BFE0170020F9
:1043D000F00500202DE9704F8E4D142200218CB085
:1043E00005F14C0008F0B0FF8B4BEB632B6E85F8AA
:1043F000423005F1340494E803001A0C85F840209B
:104400001A0A95F8693085F84330002405F1440311
:1044100083E8030085F8412021461A4612F8013B43
:10442000634013F0010418BF5E249E0748BF84F068
:10443000BC04580748BF84F061041E0748BF84F0DD
:10444000C204D80648BF84F09D049E0648BF84F08D
:1044500023040131580648BF84F04604C9B21B0644
:1044600048BF84F08C040829D8D16C4ED6F8B4002B
:10447000031F00F11C0253F8041F002940F0C28002
:104480009A42F8D1DFF89CC1DFF89CE185F84C40F6
:104490000D214FF0FF321CF8013B83EA12631B062B
:1044A0000820002B4FEA4303B8BF83EA0E0301380C
:1044B000F7D183EA02224B1E13F0FF01EBD1D24366
:1044C000130C85F84D3095F86B300193544B52BA6C
:1044D000A5F84E2003F1200604AD186859682A4655
:1044E00003C20833B3421546F7D1DFF8409149487B
:1044F00000250CABC846002103EBC50E18F801BB24
:1045000000EBDB0ACBB2C1F3C4064A1E02939AF851
:1045100040A098F83FC00EEB0603002A03930BF06F
:1045200007030AFA03FA1346B8BF8B1D0EEBE30329
:10453000D2F1000B13F8203C0BF0070B02F007023E
:1045400058BFCBF1000203FA02F200EBDC030CF0DF
:10455000070C93F840308AEA020A03FA0CFC029B2B
:104560008AEA0C0A764403F007030AF0800A4AFA42
:1045700003FA16F8203C01314AEA030A039B40295A
:1045800003F820ACBAD10135042D09F18009B0D16E
:10459000019B002B15BF6FF0550C4FF0550C5526A5
:1045A0006FF0550604AA00F15005002112F801EB46
:1045B000D3790CEA0E0E334043EA0E0305F8013BB3
:1045C00092F817E0D37B06EA0E0E0CEA03030131E2
:1045D00043EA0E030829EB71E8D190F86B30002B09
:1045E000036E4FF0E2001C4418BF4FF48072B4FB1E
:1045F000F0F308BF002200FB13441443A0B20CB038
:10460000BDE8708F06F022F9D6F8B400103006F03D
:104610001DF937E7F005002097157A6FC0010020DB
:104620007ADE000830060020B71DC1049ADE0008BB
:10463000084B10B4002483F88640A3F88440064C4D
:10464000A3F88210C4F87C015DF8044B104606F014
:104650007FBC00BFC0010020E017002030B5046817
:1046600091FAA1F3B3FA83F303255B0005FA03F390
:1046700024EA030391FAA1F1B1FA81F149008A40D9
:104680001343036030BD70B5184E06F1B8040546FB
:1046900001460A22204608F065FE30B32B68C6F8B2
:1046A000B8306B6863602B89114823810122042193
:1046B000FFF7D4FF4FF400630E4A8362002314F81F
:1046C000011B117391688907FCD501330A2BF6D1C0
:1046D000084A93681B06FCD405484FF40063BDE804
:1046E0007040836102220421B8E770BDC001002040
:1046F000000400480038004030B5846891FAA1F306
:10470000B3FA83F303255B0005FA03F324EA0303FA
:1047100091FAA1F1B1FA81F149008A401343836013
:1047200030BD30B5C46891FAA1F3B3FA83F3032521
:104730005B0005FA03F324EA030391FAA1F1B1FA4D
:1047400081F149008A401343C36030BD094A08B56E
:10475000936843F400039360042103224FF09040D8
:10476000FFF77CFF00220421FFF7DBFF024B022250
:104770009A6108BD0003045000040048054B1A6EFE
:1047800002431A661B6E82B018400190019B02B072
:10479000704700BF0010024008B50120FFF7EEFF90
:1047A0001548C1684FF4704321F4704193FAA3F3A4
:1047B000B3FA83F2012393400B43C36000220F48F6
:1047C0008021FFF74BFF00228021FFF7AAFF0C4B4F
:1047D0001A6842F080021A60DA6842F08002DA60F9
:1047E0009A6842F080029A60064B202283F81723D1
:1047F0004FF400021A6008BD0000014000040048A8
:104800000004014000E100E00E4B1A68920718D541
:1048100002225A600C4A936823F0004323F03F03BE
:1048200043F010039360094A136823F001031360F7
:10483000074B0122C3F8C420064A136823F0010382
:104840001360704700000240000004500040014027
:10485000C001002000440140094B9A6822F0010287
:104860009A60DA68120C120442F02002DA60054AFB
:104870001A6158619A6842F001029A60704700BF5D
:104880000000024040000450094B0A490022C3F8CE
:10489000C4208B6823F0004323F03F0343F004035C
:1048A0008B604008044B0138D8625A62704700BFE1
:1048B000C0010020000004500040014010B5114C20
:1048C000114BC4F83A30114B207E03F2C45203F26C
:1048D000046103F5C96321615821626184F83610CF
:1048E00000225B6984F83820022184F8371084F8AC
:1048F0003920C4F83230FEF7FDFC607EBDE8104080
:10490000FEF71EBD009C0020D1760008F0050020B7
:1049100010B5194C102323766376FFF7CFFF0023E1
:104920005922E2762377637784F8232084F82430B1
:10493000002284F82530A377E37784F8203084F8C8
:10494000213084F8383084F839300C4BC4F82620F4
:10495000C4F82A20C4F82E2058226FF027015B6982
:1049600084F836200222A17684F8221084F83720B9
:10497000C4F8323010BD00BF009C0020380C00206D
:104980002DE9704F2DED028B554CA2B0D4F81A30A2
:10499000009312AB0620236102AB636194F8188088
:1049A00094F8199020766076FEF7A4FC607EFEF7FE
:1049B000C7FC10230025A3762723E37625776577A8
:1049C000FFF7D0F9FFF7CEF9FFF7CCF9FFF7CAF9F7
:1049D000FFF7C8F9FFF7C6F905F036FEFFF7C2F991
:1049E000FFF7C0F9FFF7BEF9FFF7BCF9FFF7BAF917
:1049F000FFF7B8F9FFF7B6F9FFF7B4F905F082FE53
:104A0000AA46AB46206905F1040E425F30F90E302C
:104A100005F1020CA91DD31A30F90C20405E121AC0
:104A20005243606903FB032330F90CC0415E465FCB
:104A300030F90EE000EE103AACEB0101B8EEC00A1E
:104A4000A6EB0E06019108F0EBFC0199494306FB29
:104A50000613BDEEC08A00EE103AB8EEC00A08F0A8
:104A6000DFFC18EE102AFDEEC07A002A17EE903A0D
:104A700002DD934538BF9346002B02DD9A4538BFCF
:104A80009A460835402DBDD1FFF76CF9FFF76AF95A
:104A9000FFF768F9FFF766F9FFF764F9FFF762F9C6
:104AA000FFF760F9FFF75EF9404684F8188084F854
:104AB0001990FEF71FFC607EFEF742FC009BC4F8D5
:104AC0001A30084B6361D345584603F1400238BFA2
:104AD0005046226122B0BDEC028BBDE8708F00BF52
:104AE000009C0020B40B0020044AD2F8C8300133E7
:104AF000C2F8C830024B80225A617047C0010020C2
:104B00000004014090ED026AD0ED076A90ED037A4F
:104B1000D0ED067A66EE266A66EE277AA6EE267A4B
:104B2000D0ED046A90ED056AC0ED007A27EE265AB2
:104B3000A7EEE60AA6EE856A80ED017AC5EE065A72
:104B4000B7EE006AA6EEE56AE0EE257A27EE067A71
:104B5000C0ED067A80ED077AB0EE670A704770B54F
:104B6000D0F83C410C21614342184558536805B9BF
:104B70005BB1D0F83861B24204D1C0F838310025B9
:104B80001D6002E06B60002BFAD10C2303FB0403D1
:104B900083ED020AD0F8383163B9C0F838214350A8
:104BA00053600134192CCABF0023C0F83C41C0F83F
:104BB0003C3170BDD3ED027AB4EEE70AF1EE10FAA3
:104BC00007D50025455053601A60C0F83821E8E742
:104BD0002B46D3ED027AB4EEE70AF1EE10FA05D5D2
:104BE0001D68455053606A601A60DAE75D68002D01
:104BF000EED15A6043505560D3E7104B1A689202C9
:104C00001AD54FF400125A600D4A136823F00103BD
:104C100013600C4BB3F87036012B4FF090434FF4F8
:104C200080724FF480510BBF9A61996199629A62C8
:104C3000054B4FF4C0429A61704700BF000002402C
:104C4000002C0140F005002000040048094B10B57D
:104C5000DC6E24F00104DC661A6F120C120411439E
:104C6000054A196798675A67DA6E42F00102DA66F8
:104C700010BD00BF0000024018040048074B08495F
:104C800000220138D8625A620A6842F001020A60C2
:104C90001A6842F001021A60704700BF002C014000
:104CA000004401402DE9704785B090F801800478F8
:104CB00043798DF807304FEA410A4FEA880390F8AC
:104CC00002E090F803C00679C279857943EAD413EB
:104CD0000AF0020003438DF80C304FEA4C108B00B1
:104CE00040EA1E1003F0100940EA09008DF80A009E
:104CF000C80020F07F0040EA56008DF808004FEA17
:104D0000C209081149EA951900F0040049EA0009AE
:104D1000C8100AF0040A00F0100040EA0A0040EA55
:104D2000981040EA0E108DF80B0003F0200321F0DC
:104D30007F00034343EADC0343EAC6138DF80930DE
:104D40004B09480A03F0050343EA850500F0020316
:104D500043EA4404CB1100F0080003F01003C91229
:104D6000034301F00401194341EA521101A88DF8EF
:104D700005908DF806508DF80D408DF80410FFF762
:104D800082FC05B0BDE870871FB50023ADF80C307C
:104D9000074A0A2358430C4611181058496801ABBA
:104DA00003C3214601A8FFF77DFF04B010BD00BF7B
:104DB000A4DD00087FB501AA4FF0BE33DFF82CC098
:104DC00001930724536013810A2550B1B0FBF5F617
:104DD00005FB16036344304693F88C301355013CB1
:104DE000F3D21046FFF75EFF04B070BD08DD000887
:104DF00070B5084E084D06F50E74A9882046FFF7D9
:104E000051FF0023C6F83832C6F83C32A6F84032CB
:104E1000AB8070BDF0050020C001002030B5046AF1
:104E200091FAA1F3B3FA83F30F259B0005FA03F37C
:104E300024EA030391FAA1F1B1FA81F189008A40D1
:104E40001343036230BD154808B502222021FFF745
:104E500005FC01222021FFF74FFC00222021FFF753
:104E600060FC09222021FFF7D9FF436823F02003CB
:104E7000436002221021FFF7F1FB01221021FFF70E
:104E80003BFC00221021FFF74CFC09221021FFF708
:104E9000C5FF436823F01003436008BD00040048C9
:104EA0004FF0904010B502222021FFF7D7FB0222DD
:104EB0002021FFF721FC00222021FFF732FC0522F0
:104EC0002021FFF7ABFF436823F020034360022259
:104ED0004021FFF7C3FB02224021FFF70DFC002217
:104EE0004021FFF71EFC05224021FFF797FF436892
:104EF00023F04003436002228021FFF7AFFB022230
:104F00008021FFF7F9FB00228021FFF70AFC052230
:104F10008021FFF783FF436823F08003436010BDC7
:104F200030B5090A446A91FAA1F3B3FA83F30F2565
:104F30009B0005FA03F324EA030491FAA1F1B1FA04
:104F400081F189008A402243426230BD064B93F8CA
:104F5000CC2022B1D3F8D0200132C3F8D0200122D6
:104F600083F8CC20704700BFC0010020144B93F899
:104F70000F2342F0010283F80F234FF090410122EA
:104F800083F80E230A6902F008020A61B2FA82F27B
:104F9000520983F80C23002283F80E2393F80C2384
:104FA00012B993F80D234AB1012283F80C2393F828
:104FB0000F236FF3000283F80F23C7E7704700BF8A
:104FC000F0050020C2E7044B93F81133C0B28342CE
:104FD00000D1BBE7704700BFF00500202DE970410C
:104FE000C34ED6F8D43085B023B1D6F8D8300133CB
:104FF000C6F8D830BF4C0123C6F8D43094F88433B7
:10500000182103FB01122244581C92F80C53072D5F
:105010002CD0092D00F0F380052D40F0DB8001FB42
:105020000341D1F82C23501CC1F82C03107800F058
:105030007005702D0CD1951CC1F82C53527842EAA2
:1050400000204FF6FF72904203D1FFF77FFFC1E0CF
:1050500080B2182101FB03440122D4F82C134B1C0D
:10506000C4F82C33A44B05F0E7FFB3E0D2F81023CB
:10507000052A42D8DFE802F05F03253775B4FEF752
:105080001DFA94F88423182303FB024191F834039A
:1050900010F0010010D002FB03332344D3F8102397
:1050A0000132C3F81023D4F890331B78D80708D402
:1050B00092490122402051E084F8160306F072FA6A
:1050C000C3E794F884038E49182200FB02231C4492
:1050D00002FB0011D4F810330133C4F8103302225C
:1050E000AC3129203AE001FB034595F8342302F066
:1050F0001F02012A08D0112A10D0002006F052FA0F
:10510000802384F81633A0E701FB00440420C4F890
:1051100010037B4C01FB0341AE31E2E795F93523E7
:10512000D4F8903384F80A231978C90703D50021ED
:105130001B6A0846984794F88403182100FB011362
:105140002344012201FB0044C3F810230023C4F8C8
:1051500030336B4B01FB0031AC310D2005F062FDAB
:1051600038E001FB0341B4F8083391F83523013AE4
:10517000002BD2B281F8352314BF002140218B18B7
:105180007F2BA4F80813B8DC182505FB0040052385
:10519000C0F81033F2B15B48C4F87806292384F8CC
:1051A00072360023C4F88036C4F87C36A0F2EA33A5
:1051B0000B44C4F8843601254F4BA4F88A26A4F882
:1051C000885600F11602009300F10E01022306300A
:1051D00005F0B8FC0023C6F8D43005B0BDE87081F6
:1051E000182101FB0341B4F80803D4F89033444D6F
:1051F0001B6A94F90A2391F8351328449AE701FBB6
:10520000034292F83423032A00F28D80DFE802F093
:10521000020E187C01FB0344012284F83423384C2D
:1052200001FB03410222AE312C2097E701FB03452D
:10523000B5F8362352BAA5F83623022285F834236E
:10524000182505FB0348B8F83633432B4DD94023C6
:10525000ADF80E30D4F8903329485B6A0DF10E0199
:105260009847BDF80E1094F8843388F8350399B345
:1052700005FB034394F80F2393F83533002B14BF39
:1052800002200020C2F3801202431B4B1C48C9B20B
:1052900005F09BFE94F80F3394F884236FF3861384
:1052A00005FB024184F80F33BDF80E30B1F8360328
:1052B000C3F57F43FD3303449BB2A1F8363391F825
:1052C000351309B9422B85D805FB024494F83433D1
:1052D000013384F834337DE703FB05552C44D4F8BF
:1052E00010330133C4F8103374E705FB0044F6E7CC
:1052F000C0010020F0050020DD4F0008FA08002062
:1053000078080020620C002001FB0344042284F88A
:10531000342384F83623084C01FB03410122074B58
:10532000AE3128209FE601FB0044D4F8103301334E
:10533000C4F8103389E600BF78080020DD4F00086C
:10534000084B08229A62084BD3F8DC2032B9D3F814
:10535000E0201AB9054A4FF4005191610022C3F8C8
:10536000E4207047001C0048C001002000080048ED
:10537000074B4FF400729A61064BD3F8E0201AB93C
:10538000054A4FF4005191610022C3F8DC207047B8
:1053900000040048C00100200008004808B50020B3
:1053A00006F000F9FFF7CCFFFFF7E2FF064B0522FE
:1053B00083F81023FF21002283F8842383F8151338
:1053C00083F8242308BD00BFF005002003780BB14B
:1053D00000207047012303704278002AF8D14370FF
:1053E0001846704737B5114D05F54770FFF7EEFFCA
:1053F00078B100242346224621460720009405F078
:1054000043FDFFF7EBFD85F81D4385F81C4303B012
:1054100030BD074AD2F8E8300133C2F8E83006F070
:10542000C1F8044BC5F82033F1E700BFF0050020B8
:10543000C0010020A95A000810B5030A0C4C43F023
:10544000F00384F8723684F875160B0A04F2726160
:1054500084F8730684F8743604220023084605F0A5
:1054600003FCB4F872365BBAA4F8123310BD00BF67
:10547000F0050020144B4FF4A0125A61A3F55C43D1
:105480000121DA6D42F00402DA65104AA2F8EC104C
:105490009A68996921F480719961596C093A21F4EB
:1054A000FF4121F07F01D2B20A435A649A6942F463
:1054B00080729A61DA6D42F00102DA65044B4FF4B2
:1054C00000725A60704700BF00040140C001002014
:1054D00000E100E00C4B4FF480225A61A3F55C43DD
:1054E0001A6DD2070FD5094A0121A2F8EE10DA6D24
:1054F0000A43DA65064B4FF40072C3F88420BFF309
:105500004F8FBFF36F8F704700040140C001002030
:1055100000E100E0044B1A6A01321A62D3F8F0206D
:105520000132C3F8F0207047C0010020044B1A6A12
:105530001B6A181A884294BF00200120704700BFE0
:10554000C001002010B5064C236AC4F8F430D4F82A
:10555000F4000121FFF7EAFF0028F8D010BD00BFDA
:10556000C00100202DE97841254E0328A6F8F80057
:1055700042D004283AD040F2FF3440F2FF13022810
:1055800008BF1C461F4DCA236B6253236B62AB6975
:1055900023F48063AB61EB685907FCD56B69DFF8D6
:1055A000688003EA08036B61AB6943F48063AB6115
:1055B000FFF7C8FFFFF7C6FFAB6923F48063AB6159
:1055C000104BDA685207FCD55A6902EA08022243F6
:1055D0000134A4B25A61A6F8FC409A6942F4806290
:1055E0009A61FF225A62BDE87841ABE7B6F8FA400B
:1055F000E402013CA4B2C5E740F2FF74C2E700BF79
:10560000C0010020002800400000FFFF074B0022DF
:10561000A3F86822A3F88022054B5A6FD3F8003113
:10562000DA4201D101209DE7704700BFF00500205C
:10563000C00100200C4B10B50124C3F898160021BE
:1056400083F83845C3F89406A3F89C16A3F89E4641
:10565000A3F8A026054B9A689207FCD510B10278F2
:105660001A7310BDFF22FBE7F00500200030014057
:1056700010B51A4C002384F8A736D4F8B0365BB3C3
:1056800094F8C13694F8C0260133DBB29A4284F80C
:10569000C13600D980B194F8A426114B03EBC203A4
:1056A0000020D3F8983398470022D4F8B036C4F8D5
:1056B000B026BDE810401847D4F8BC26D4F8B81678
:1056C000D4F8B44632F8132018B251F8201054F828
:1056D0002000BDE81040ADE710BD00BFF005002080
:1056E00008DD0008034A136823F0380318431060EC
:1056F000704700BF00300140134938B5054601F539
:10570000D960FFF763FEE8B191F8A73603F0FF0414
:10571000B3B991F8A436FF2B12D10C4881F8A456E6
:1057200000EBC5050A2395F89403A1F8C636FFF7E8
:10573000D9FF002381F8C93681F8C836204638BD24
:105740004024F6E74024F9E7F005002008DD0008D2
:105750001F4B2DE977411C6A05460E4690460A21EB
:105760002046FFF7E3FE10B103B0BDE870810120D1
:10577000FFF7C2FF0028F2D1164C032384F8CC3681
:105780002B0C84F8CD362B0A84F8CE3604F2CC6389
:10579000C4F8D4360423C4F8DC06A4F8E436C4F80C
:1057A000D80684F8CF56C4F8E086A4F8E66602234B
:1057B000009004F2E46204F2D46004F2DC6105F0CB
:1057C000C1F9012003B0BDE8704105F0EBBE00BF98
:1057D000C0010020F0050020114B10B51C6A0A2101
:1057E0002046FFF7A3FE08B1012017E00120FFF7D4
:1057F00083FF0028F3D10B4C052304F2CC6184F81D
:10580000CC36FF2384F8CD3602220346084605F045
:105810002BFA012005F0C6FE94F8CD0610BD00BF9E
:10582000C0010020F005002038B50F4B1C6A0A218A
:105830002046FFF77BFE08B10D4613E00120FFF77D
:105840005BFF05460028F2D10848062380F8CC36D5
:10585000012200F2CC602B46294605F005FA012012
:1058600005F0A0FE284638BDC0010020F00500204C
:105870002DE9734306468846914600240325FFF729
:10588000D3FF0A2812D10134E4B2032CF7D1264BFE
:105890001C6A0A212046FFF749FE98B1224AD2F835
:1058A0000C310133C2F80C310A2538E0FFF794FFC0
:1058B0008307ECD4013D15F0FF05E6D1032CEDD0B4
:1058C00002252CE00120FFF717FF05460028E0D154
:1058D0001648320C80F8CD26320A80F8CE2600F227
:1058E000CC62C0F8D42602230422A0F8E42680F873
:1058F000CC3680F8CF66C0F8DC56C0F8D896C0F831
:10590000E056A0F8E68600F2E46200F2DC61009561
:1059100000F2D46005F016F9012005F043FE284698
:1059200002B0BDE8708300BFC0010020F005002078
:1059300070B5054600240326FFF776FF0A280CD130
:105940000134E4B2032CF7D1194B1E6A0A21304608
:10595000FFF7ECFD68B10A2427E0FFF73DFF83075E
:10596000F2D4013E16F0FF06ECD1032CF3D0022452
:105970001BE00120FFF7C0FE04460028E6D10D48D9
:10598000202380F8CC362B0C80F8CD362B0A80F8FB
:10599000CE3680F8CF56234600F2CC600422214652
:1059A00005F062F9012005F0FDFD204670BD00BF45
:1059B000C0010020F00500201F4938B5044601F55C
:1059C000D960FFF703FD38B391F8A436FF2B0FD150
:1059D00000250A23102081F8A456A1F8C636FFF747
:1059E00081FE81F8C95681F8C856A047002038BD0D
:1059F00091F8CA3613B9012381F8A63691F8A53675
:105A0000C1F8A8460133DBB281F8A536002381F83E
:105A1000C93681F8C836E9E791F8CA3613B90123C7
:105A200081F8A63691F8A536C1F8A8460133DBB255
:105A300081F8A536DAE700BFF0050020174B93F890
:105A40000E130122C1B183F80D2393F88413182299
:105A500001FB022293F810131A44032992F80C2335
:105A60000DD1072A08BF0E4A0E4802BFD2F81031E6
:105A70000133C2F810319FE783F80C23E5E75AB1F0
:105A800093F80F23D20707D593F80F236FF3000283
:105A900083F80F23FFF75ABA704700BFF0050020C4
:105AA000C0010020E5530008004885E7E5530008E1
:105AB0007FB55F4C94F88403182100FB0112224447
:105AC000431CD2F81023082A2DD8DFE802F0051E67
:105AD0002E62747E8691960001FB034201FB004119
:105AE00001250024C2F81053C1F8304391F8341353
:105AF000039105F0C3FA039900942B462246022035
:105B000005F0C2F9402004B070BD01FB034302223E
:105B1000C3F810230020FFF7EFFD30B14548FFF731
:105B20004BFF0028EED08020EDE743490026FF23FD
:105B3000084684F8733684F874360322334684F8B2
:105B4000726605F091F894F8123394F87226B4F85E
:105B5000735643EA02236DBA3046A4F81233ADB24D
:105B600005F020FD45F2C5139D42DCD194F8842355
:105B7000182302FB03332344D3F810230132C3F864
:105B8000102305F07BFAD4F89033186905F012FA67
:105B9000B8E701FB03420423C2F8103301FB0043C2
:105BA000D3F82C13039105F069FA002203990092AF
:105BB00001230620A4E701FB03430522C3F81023B9
:105BC0000020FFF799FD0028A8D10021022005F050
:105BD00001F9002005F0E6FCC8E701FB03430722BA
:105BE000C3F8102305F04AFAD4F890339869CDE74A
:105BF0000020FFF781FD002890D194F88C1333200A
:105C000001F00F0105F0E6F894F884330B491822EF
:105C100002FB0311A43100230422342005F00CFA06
:105C2000002005F0BFFC022384F8103300206AE74F
:105C3000F0050020C54F0008620C00207808002005
:105C400013B54F4C94F88403182100FB0112224431
:105C5000431CD2F81023042A26D8DFE802F00317E9
:105C600027525C0001FB03420123C2F8103301FB01
:105C700000430022C3F8302305F000FAD4F8903333
:105C8000986905F097F9402002B010BD01FB03436D
:105C90000222C3F810230020FFF72EFD30B139484F
:105CA000FFF78AFE0028EED08020EDE794F88C13F1
:105CB000332001F00F0105F08DF8D4F890334FF444
:105CC000C070997B05F086F80421092005F082F860
:105CD00040214FF40B7005F07DF8002005F062FCC8
:105CE00094F88423182302FB03332344D3F81023AE
:105CF0000132C3F8102305F0C1F9D4F89033D86904
:105D0000BFE701FB03430422C3F810230020FFF781
:105D1000F3FC0028C3D14521022005F05BF80721E0
:105D2000022005F057F80321282005F053F8092137
:105D3000022005F04FF894F80F336FF3041384F842
:105D40000F3394F80F330DF107016FF345130F2054
:105D500084F80F3305F060F80121062005F078F88B
:105D6000002005F01FFCFDF7A9FB032384F8103386
:105D700094F80C330BB1FFF761FE002084E700BFFD
:105D8000F0050020C54F000838B51B4C94F884334B
:105D9000182103FB01122244D2F81003012814D069
:105DA000022821D028BB01FB03430125C2F8105370
:105DB000C3F83003FFF7A0FC38B11048FFF7FCFD33
:105DC000002814BF8020402038BD94F88423182375
:105DD00002FB03331C44D4F810330133C4F81033EE
:105DE000FFF7FCF84020EFE7002005F0DBFB002088
:105DF000EAE78020E8E700BFF0050020C54F000873
:105E000038B5244C94F88433182503FB05522244FA
:105E1000591CD2F81003022815D003282AD0A8BB99
:105E2000182000FB014200FB0343D2F810131A486C
:105E30000131C2F810130022C3F83023FFF7BCFD74
:105E400020BB402038BD002005F0ACFB94F8843323
:105E500005FB034393F83533D3B9FFF787F894F87C
:105E6000843303FB05552C44D4F810330133C4F8B4
:105E70001033E6E794F80C030028E2D005FB034555
:105E80000020C2F81003C5F83403C9E78020D9E721
:105E90000020D7E7F0050020DD4F0008194B82B045
:105EA0001B7B8DF80730184BD3F8982622B1B3F836
:105EB0009C169DF807005054B3F89E26B3F8A01620
:105EC00091420AD9D3F89416B9B18A5C0D490A7384
:105ED000B3F89E260132A3F89E26B3F89C26B3F8A9
:105EE000A016013292B29142A3F89C2607D8002056
:105EF00083F8380502B0FFF7BBBBFF22E6E702B02C
:105F0000704700BF00300140F0050020194B1A68AF
:105F100042F470421A601A6822F4A0421A601A6AA7
:105F200042F0EE421A6203F1784303F503331A6834
:105F300042F480721A601A685205FCD5D3F88820A2
:105F400042F00202C3F888201A6E42F480421A66B8
:105F5000094B40F28262DA601A6842F06C021A6001
:105F60001A6842F001021A60044B202283F82523AC
:105F70005A607047000400480038014000E100E02A
:105F800070471E4BD86910F0200010B50FD0998CC7
:105F90001B4BD3F89C2302F8011B03F21F4003F5AF
:105FA0006871824298BF1146C3F89C1310BDDA692C
:105FB00052061BD51249D1F8E826D1F8EC46944296
:105FC0000CD012F8010B188501F5DE6301F26F7039
:105FD000824298BF1346C1F8E836E7E7094A82F8DB
:105FE00014011A6A42F040021A62DFE74FF0FF32F2
:105FF0001A62054B2022C3F88421D7E700380140FC
:10600000F0050020C001002000E100E02DE9704F04
:10601000DFF8C08086B04FF0000EC4464FF0140A7F
:106020002B4B5FFA8EF476460EF1010E1D6A404648
:1060300073460AFB03C210329178C90741D50AFBA7
:1060400004C110318978C90704D49278D20701D5E8
:10605000DCB236E0D0E90521A5EB0209894523D35E
:10606000DCB2B44215D046460FCE01AD0FC5D6F80E
:1060700000B0C5F800B00AFB04C425460FCDC146E8
:10608000A9E80F002B68336001AE0FCE0FC4C5F82E
:1060900000B0BEF1050F08F11408C1D100238CF83F
:1060A000813506B0BDE8708F0AFB04F90A440CEB99
:1060B00009015CF8099049684944521B491B8A420E
:1060C000C6D30133062B00F11400B2D1C9E700BFDB
:1060D000C0010020E01700202DE97841234E002563
:1060E000AE46B4464FF0140808FB05C41034A4783B
:1060F00014F001040FD0747C0135062D4EEA040E15
:1061000006F11406F0D11A4AD2F818310133C2F858
:106110001831FF2421E04EFA04F6F60720D40126B8
:1061200006FA04F4E4B214267543DFF844E00CEBFD
:106130000506DEF820E04CF805E0B57CB36062F3BC
:106140004105069BB574F360B37C747443F001039E
:1061500071603074B374FFF759FF2046BDE8788151
:106160000134082CD7D1FF24DDE700BFE017002061
:10617000C001002073B5584C94F88423182502FB05
:1061800005512144531CD1F8100305FB0241D1F8FD
:106190002C1301291BD1C0B9FFF7AEFA0646A0B9EE
:1061A0008021022004F016FE3146022004F012FE87
:1061B000304605F0F7F994F8843303FB05552C4479
:1061C000D4F810330133C4F81033802082E004285F
:1061D000FBD8DFE800F0032339586B00FFF7C8F85D
:1061E000FFF7AEF894F88433182503FB05532344D6
:1061F00040F22E41D3F810230132C3F81023374B5D
:106200000093374B01221046FFF766FF94F8843362
:1062100005FB0344C4F8300340205BE0314A082109
:106220009161A2F5A0524FF40051916218252E49B8
:1062300005FB03430122C1F8E4200221C3F8101337
:10624000264B0093264BDEE7284B4FF400729A62F0
:106250004FF40052C3F82824234B0120C3F8DC007C
:10626000FFF76EF894F88433182503FB0553234495
:106270000246D3F810130144C3F81013174B0093D0
:106280001921174BC0E705FB034305FB024404211A
:106290000020C3F81013C4F83003FFF72DFA28B11B
:1062A0001348FFF789FB0028B6D08EE78021022033
:1062B00004F090FD8021022004F08CFD802102205A
:1062C00004F088FD0021022004F084FD002005F088
:1062D00069F9002002B070BDF0050020010900201E
:1062E000C74F0008001C0048C001002000040048FF
:1062F000C54F000813B50023044600930122084B44
:10630000C8210220FFF7E8FE064BC82283F82804C4
:10631000E1B203F22A4002B0BDE81040FEF788B9AE
:1063200015740008F005002070B5134B002293F897
:10633000815514461E464FF0140C93F810E0864524
:106340000BD193F811E08E4507D10CFB0462957CCC
:106350006FF300059574012215460134062C03F1F4
:106360001403EAD10AB186F8815596F881350BB14C
:10637000FFF74CFEFF2070BDE01700202DE97041B3
:10638000D14C94F88413182201FB0220204485B0DC
:10639000D0F8100300238DF80B304B1C0A2841D88D
:1063A000DFE810F00B002F0042008D009300CB00BF
:1063B000E8004E01520165016F01C44A0821916154
:1063C0001825A2F5A05205FB03434FF4005191623A
:1063D0000122BF49C3F81023BE4BC1F8E420104688
:1063E00000930221BC4BFFF777FE94F8843384F8C6
:1063F000140305FB0344C4F83003402005B0BDE896
:10640000708102FB0343022002FB0142C3F8100328
:106410000023C2F83033FEF7ABFFB048FFF7CCFAE9
:106420000028EAD08020E9E74721022004F0D2FCCE
:106430000321282004F0CEFC4021022004F0CAFCF5
:106440000021062004F004FD94F88C13332001F0A1
:106450000F0104F0BFFCD4F890334FF4C070997B67
:1064600004F0B8FC4521022004F0B4FCD4F89033C9
:106470003020D97B04F0AEFCB4F88E331BB940F663
:10648000FF73A4F88E33B4F88E134FF4B570FEF793
:10649000D3FF002005F086F894F88423182302FB2C
:1064A00003332344D3F810230132C3F8102304F03C
:1064B000E5FDD4F89033586904F07CFD9DE702FBBC
:1064C00003430422C3F81023A7E780212E2004F001
:1064D000BFFC0D21022004F07DFC0DF10B010F200B
:1064E00004F09AFC0321282004F074FC4FF480711E
:1064F000062004F0ADFC0DF10B01042004F08CFC2F
:10650000FCF7DCFF002005F04DF894F884231823F5
:1065100002FB033323446421D3F810230132C3F870
:1065200010236C4B009301226B4B1046FFF7D4FDF8
:1065300084F81403FEF71AFD5FE794F80C33002B80
:106540003FF470AF94F814130120FFF7EDFE94F8B8
:10655000843384F81403182103FB0112224401FB45
:106560000343D2F810030130C2F810030022C3F82D
:10657000302352E70121092004F02CFC08210620D9
:1065800004F066FCD4F890331A78D2073AD51A7A18
:1065900053485B7884F87536A92184F87216002573
:1065A000622105234FF0380884F8731684F87626A4
:1065B000C4F87806A4F8883600F10E0184F87486D1
:1065C000C4F8805600F1160200950123063004F04D
:1065D000B9FAD4F890637168A1B1327812F01C0F47
:1065E00010D0C2F3820203A806F0CCFE317811F07D
:1065F00020030EBF18222B464246C1F3820103A896
:1066000004F0E3FC002004F0CDFF94F80F3394F87D
:10661000842343F0400384F80F33182302FB033331
:106620001C44D4F810330133C4F8103304F026FDB1
:106630000022009201231146092004F025FCDCE62B
:1066400002FB034308223DE74021062004F000FC42
:10665000002004F0A7FF94F88423182302FB0333DF
:106660001C44D4F810330133C4F8103362E794F8B3
:106670000C23002A3FF4D6AE182202FB03430A2261
:1066800020E70DF10B010F2004F0C6FB00210620CE
:1066900004F0DEFB134B4FF400729A624FF4005289
:1066A000C3F828240A4B0122C3F8DC200220FEF79D
:1066B00047FE402104F08EFB002004F073FF02230C
:1066C00084F81033002099E6F0050020001C0048F3
:1066D000C001002001090020C74F0008C54F000875
:1066E000620C0020000400487FB5664C94F88403D7
:1066F000182100FB01122244431CD2F81023062A61
:1067000037D8DFE802F004182133588BAA0001FBC8
:1067100003420123C2F8103301FB00430022C3F8F7
:10672000302304F0ABFCD4F89033586904F042FCF9
:10673000402004B070BD01FB03430222C3F81023C4
:1067400004F09CFC5048F1E701FB03430322C3F82B
:10675000102301224D4B009364214D4B1046FFF74F
:10676000BBFC84F81403FEF701FCE1E794F80C335A
:106770000BB98020DDE794F814130120FFF7D4FD56
:1067800094F8843384F81403182103FB0112224483
:1067900001FB0343D2F810030130C2F810030020BC
:1067A000C3F83003FEF7A8FF28B13A48FFF704F911
:1067B0000028DED1BCE70021062004F049FB364E5C
:1067C00094F88413182505FB016104220023A431E9
:1067D000342004F031FC4FF48051062004F038FBE3
:1067E0002946332004F0F6FA002004F0DBFE94F88A
:1067F000843303FB055525448936D5F8103301331E
:10680000C5F81033FEF7B2FB0122214B009664213C
:106810001046FFF761FC84F8140389E794F80C3301
:10682000002BA6D094F814130120FFF77DFD94F8F7
:10683000843384F81403182103FB0112224401FB62
:106840000343D2F810030130C2F810030020C3F84C
:106850003003FEF751FF0028A7D10021062004F0E5
:10686000F7FA0DF10F01332004F0D6FA002004F0FE
:1068700099FE9DF80F0084F88C0310F0200018BFDB
:10688000802056E7F0050020ACE000080109002058
:10689000C74F0008C54F0008780800202DE97F4F3A
:1068A00005465A4C022D94F829040E46914665D0AF
:1068B000032D37D001282DD1D4F8243484F8703733
:1068C0001A0A84F871271A0C1B0E84F8722784F8B0
:1068D000733744F2EA520023062104F5EE6084F88F
:1068E000743784F87537FDF771F8030A84F8763742
:1068F000022384F82934464B84F877071B6AC4F8CE
:106900003035C822082104F5EE6004B0BDE8704FB0
:10691000FDF78EBE032802D1042384F8293404B085
:10692000BDE8708F022814D1002300930122394B57
:1069300084F829540A21FFF7CFFB354B84F828044B
